# Sony Interactive Entertainment Wireless Controller
# 0x05, 0x01,                    // Usage Page (Generic Desktop)        0
# 0x09, 0x05,                    // Usage (Game Pad)                    2
# 0xa1, 0x01,                    // Collection (Application)            4
# 0x85, 0x01,                    //  Report ID (1)                      6
# 0x09, 0x30,                    //  Usage (X)                          8
# 0x09, 0x31,                    //  Usage (Y)                          10
# 0x09, 0x32,                    //  Usage (Z)                          12
# 0x09, 0x35,                    //  Usage (Rz)                         14
# 0x15, 0x00,                    //  Logical Minimum (0)                16
# 0x26, 0xff, 0x00,              //  Logical Maximum (255)              18
# 0x75, 0x08,                    //  Report Size (8)                    21
# 0x95, 0x04,                    //  Report Count (4)                   23
# 0x81, 0x02,                    //  Input (Data,Var,Abs)               25
# 0x09, 0x39,                    //  Usage (Hat switch)                 27
# 0x15, 0x00,                    //  Logical Minimum (0)                29
# 0x25, 0x07,                    //  Logical Maximum (7)                31
# 0x35, 0x00,                    //  Physical Minimum (0)               33
# 0x46, 0x3b, 0x01,              //  Physical Maximum (315)             35
# 0x65, 0x14,                    //  Unit (Degrees,EngRotation)         38
# 0x75, 0x04,                    //  Report Size (4)                    40
# 0x95, 0x01,                    //  Report Count (1)                   42
# 0x81, 0x42,                    //  Input (Data,Var,Abs,Null)          44
# 0x65, 0x00,                    //  Unit (None)                        46
# 0x05, 0x09,                    //  Usage Page (Button)                48
# 0x19, 0x01,                    //  Usage Minimum (1)                  50
# 0x29, 0x0e,                    //  Usage Maximum (14)                 52
# 0x15, 0x00,                    //  Logical Minimum (0)                54
# 0x25, 0x01,                    //  Logical Maximum (1)                56
# 0x75, 0x01,                    //  Report Size (1)                    58
# 0x95, 0x0e,                    //  Report Count (14)                  60
# 0x81, 0x02,                    //  Input (Data,Var,Abs)               62
# 0x06, 0x00, 0xff,              //  Usage Page (Vendor Defined Page 1) 64
# 0x09, 0x20,                    //  Usage (Vendor Usage 0x20)          67
# 0x75, 0x06,                    //  Report Size (6)                    69
# 0x95, 0x01,                    //  Report Count (1)                   71
# 0x15, 0x00,                    //  Logical Minimum (0)                73
# 0x25, 0x7f,                    //  Logical Maximum (127)              75
# 0x81, 0x02,                    //  Input (Data,Var,Abs)               77
# 0x05, 0x01,                    //  Usage Page (Generic Desktop)       79
# 0x09, 0x33,                    //  Usage (Rx)                         81
# 0x09, 0x34,                    //  Usage (Ry)                         83
# 0x15, 0x00,                    //  Logical Minimum (0)                85
# 0x26, 0xff, 0x00,              //  Logical Maximum (255)              87
# 0x75, 0x08,                    //  Report Size (8)                    90
# 0x95, 0x02,                    //  Report Count (2)                   92
# 0x81, 0x02,                    //  Input (Data,Var,Abs)               94
# 0x06, 0x00, 0xff,              //  Usage Page (Vendor Defined Page 1) 96
# 0x09, 0x21,                    //  Usage (Vendor Usage 0x21)          99
# 0x95, 0x36,                    //  Report Count (54)                  101
# 0x81, 0x02,                    //  Input (Data,Var,Abs)               103
# 0x85, 0x05,                    //  Report ID (5)                      105
# 0x09, 0x22,                    //  Usage (Vendor Usage 0x22)          107
# 0x95, 0x1f,                    //  Report Count (31)                  109
# 0x91, 0x02,                    //  Output (Data,Var,Abs)              111
# 0x85, 0x04,                    //  Report ID (4)                      113
# 0x09, 0x23,                    //  Usage (Vendor Usage 0x23)          115
# 0x95, 0x24,                    //  Report Count (36)                  117
# 0xb1, 0x02,                    //  Feature (Data,Var,Abs)             119
# 0x85, 0x02,                    //  Report ID (2)                      121
# 0x09, 0x24,                    //  Usage (Vendor Usage 0x24)          123
# 0x95, 0x24,                    //  Report Count (36)                  125
# 0xb1, 0x02,                    //  Feature (Data,Var,Abs)             127
# 0x85, 0x08,                    //  Report ID (8)                      129
# 0x09, 0x25,                    //  Usage (Vendor Usage 0x25)          131
# 0x95, 0x03,                    //  Report Count (3)                   133
# 0xb1, 0x02,                    //  Feature (Data,Var,Abs)             135
# 0x85, 0x10,                    //  Report ID (16)                     137
# 0x09, 0x26,                    //  Usage (Vendor Usage 0x26)          139
# 0x95, 0x04,                    //  Report Count (4)                   141
# 0xb1, 0x02,                    //  Feature (Data,Var,Abs)             143
# 0x85, 0x11,                    //  Report ID (17)                     145
# 0x09, 0x27,                    //  Usage (Vendor Usage 0x27)          147
# 0x95, 0x02,                    //  Report Count (2)                   149
# 0xb1, 0x02,                    //  Feature (Data,Var,Abs)             151
# 0x85, 0x12,                    //  Report ID (18)                     153
# 0x06, 0x02, 0xff,              //  Usage Page (Vendor Usage Page 0xff02) 155
# 0x09, 0x21,                    //  Usage (Vendor Usage 0x21)          158
# 0x95, 0x0f,                    //  Report Count (15)                  160
# 0xb1, 0x02,                    //  Feature (Data,Var,Abs)             162
# 0x85, 0x13,                    //  Report ID (19)                     164
# 0x09, 0x22,                    //  Usage (Vendor Usage 0x22)          166
# 0x95, 0x16,                    //  Report Count (22)                  168
# 0xb1, 0x02,                    //  Feature (Data,Var,Abs)             170
# 0x85, 0x14,                    //  Report ID (20)                     172
# 0x06, 0x05, 0xff,              //  Usage Page (Vendor Usage Page 0xff05) 174
# 0x09, 0x20,                    //  Usage (Vendor Usage 0x20)          177
# 0x95, 0x10,                    //  Report Count (16)                  179
# 0xb1, 0x02,                    //  Feature (Data,Var,Abs)             181
# 0x85, 0x15,                    //  Report ID (21)                     183
# 0x09, 0x21,                    //  Usage (Vendor Usage 0x21)          185
# 0x95, 0x2c,                    //  Report Count (44)                  187
# 0xb1, 0x02,                    //  Feature (Data,Var,Abs)             189
# 0x06, 0x80, 0xff,              //  Usage Page (Vendor Usage Page 0xff80) 191
# 0x85, 0x80,                    //  Report ID (128)                    194
# 0x09, 0x20,                    //  Usage (Vendor Usage 0x20)          196
# 0x95, 0x06,                    //  Report Count (6)                   198
# 0xb1, 0x02,                    //  Feature (Data,Var,Abs)             200
# 0x85, 0x81,                    //  Report ID (129)                    202
# 0x09, 0x21,                    //  Usage (Vendor Usage 0x21)          204
# 0x95, 0x06,                    //  Report Count (6)                   206
# 0xb1, 0x02,                    //  Feature (Data,Var,Abs)             208
# 0x85, 0x82,                    //  Report ID (130)                    210
# 0x09, 0x22,                    //  Usage (Vendor Usage 0x22)          212
# 0x95, 0x05,                    //  Report Count (5)                   214
# 0xb1, 0x02,                    //  Feature (Data,Var,Abs)             216
# 0x85, 0x83,                    //  Report ID (131)                    218
# 0x09, 0x23,                    //  Usage (Vendor Usage 0x23)          220
# 0x95, 0x01,                    //  Report Count (1)                   222
# 0xb1, 0x02,                    //  Feature (Data,Var,Abs)             224
# 0x85, 0x84,                    //  Report ID (132)                    226
# 0x09, 0x24,                    //  Usage (Vendor Usage 0x24)          228
# 0x95, 0x04,                    //  Report Count (4)                   230
# 0xb1, 0x02,                    //  Feature (Data,Var,Abs)             232
# 0x85, 0x85,                    //  Report ID (133)                    234
# 0x09, 0x25,                    //  Usage (Vendor Usage 0x25)          236
# 0x95, 0x06,                    //  Report Count (6)                   238
# 0xb1, 0x02,                    //  Feature (Data,Var,Abs)             240
# 0x85, 0x86,                    //  Report ID (134)                    242
# 0x09, 0x26,                    //  Usage (Vendor Usage 0x26)          244
# 0x95, 0x06,                    //  Report Count (6)                   246
# 0xb1, 0x02,                    //  Feature (Data,Var,Abs)             248
# 0x85, 0x87,                    //  Report ID (135)                    250
# 0x09, 0x27,                    //  Usage (Vendor Usage 0x27)          252
# 0x95, 0x23,                    //  Report Count (35)                  254
# 0xb1, 0x02,                    //  Feature (Data,Var,Abs)             256
# 0x85, 0x88,                    //  Report ID (136)                    258
# 0x09, 0x28,                    //  Usage (Vendor Usage 0x28)          260
# 0x95, 0x3f,                    //  Report Count (63)                  262
# 0xb1, 0x02,                    //  Feature (Data,Var,Abs)             264
# 0x85, 0x89,                    //  Report ID (137)                    266
# 0x09, 0x29,                    //  Usage (Vendor Usage 0x29)          268
# 0x95, 0x02,                    //  Report Count (2)                   270
# 0xb1, 0x02,                    //  Feature (Data,Var,Abs)             272
# 0x85, 0x90,                    //  Report ID (144)                    274
# 0x09, 0x30,                    //  Usage (Vendor Usage 0x30)          276
# 0x95, 0x05,                    //  Report Count (5)                   278
# 0xb1, 0x02,                    //  Feature (Data,Var,Abs)             280
# 0x85, 0x91,                    //  Report ID (145)                    282
# 0x09, 0x31,                    //  Usage (Vendor Usage 0x31)          284
# 0x95, 0x03,                    //  Report Count (3)                   286
# 0xb1, 0x02,                    //  Feature (Data,Var,Abs)             288
# 0x85, 0x92,                    //  Report ID (146)                    290
# 0x09, 0x32,                    //  Usage (Vendor Usage 0x32)          292
# 0x95, 0x03,                    //  Report Count (3)                   294
# 0xb1, 0x02,                    //  Feature (Data,Var,Abs)             296
# 0x85, 0x93,                    //  Report ID (147)                    298
# 0x09, 0x33,                    //  Usage (Vendor Usage 0x33)          300
# 0x95, 0x0c,                    //  Report Count (12)                  302
# 0xb1, 0x02,                    //  Feature (Data,Var,Abs)             304
# 0x85, 0x94,                    //  Report ID (148)                    306
# 0x09, 0x34,                    //  Usage (Vendor Usage 0x34)          308
# 0x95, 0x3f,                    //  Report Count (63)                  310
# 0xb1, 0x02,                    //  Feature (Data,Var,Abs)             312
# 0x85, 0xa0,                    //  Report ID (160)                    314
# 0x09, 0x40,                    //  Usage (Vendor Usage 0x40)          316
# 0x95, 0x06,                    //  Report Count (6)                   318
# 0xb1, 0x02,                    //  Feature (Data,Var,Abs)             320
# 0x85, 0xa1,                    //  Report ID (161)                    322
# 0x09, 0x41,                    //  Usage (Vendor Usage 0x41)          324
# 0x95, 0x01,                    //  Report Count (1)                   326
# 0xb1, 0x02,                    //  Feature (Data,Var,Abs)             328
# 0x85, 0xa2,                    //  Report ID (162)                    330
# 0x09, 0x42,                    //  Usage (Vendor Usage 0x42)          332
# 0x95, 0x01,                    //  Report Count (1)                   334
# 0xb1, 0x02,                    //  Feature (Data,Var,Abs)             336
# 0x85, 0xa3,                    //  Report ID (163)                    338
# 0x09, 0x43,                    //  Usage (Vendor Usage 0x43)          340
# 0x95, 0x30,                    //  Report Count (48)                  342
# 0xb1, 0x02,                    //  Feature (Data,Var,Abs)             344
# 0x85, 0xa4,                    //  Report ID (164)                    346
# 0x09, 0x44,                    //  Usage (Vendor Usage 0x44)          348
# 0x95, 0x0d,                    //  Report Count (13)                  350
# 0xb1, 0x02,                    //  Feature (Data,Var,Abs)             352
# 0x85, 0xf0,                    //  Report ID (240)                    354
# 0x09, 0x47,                    //  Usage (Vendor Usage 0x47)          356
# 0x95, 0x3f,                    //  Report Count (63)                  358
# 0xb1, 0x02,                    //  Feature (Data,Var,Abs)             360
# 0x85, 0xf1,                    //  Report ID (241)                    362
# 0x09, 0x48,                    //  Usage (Vendor Usage 0x48)          364
# 0x95, 0x3f,                    //  Report Count (63)                  366
# 0xb1, 0x02,                    //  Feature (Data,Var,Abs)             368
# 0x85, 0xf2,                    //  Report ID (242)                    370
# 0x09, 0x49,                    //  Usage (Vendor Usage 0x49)          372
# 0x95, 0x0f,                    //  Report Count (15)                  374
# 0xb1, 0x02,                    //  Feature (Data,Var,Abs)             376
# 0x85, 0xa7,                    //  Report ID (167)                    378
# 0x09, 0x4a,                    //  Usage (Vendor Usage 0x4a)          380
# 0x95, 0x01,                    //  Report Count (1)                   382
# 0xb1, 0x02,                    //  Feature (Data,Var,Abs)             384
# 0x85, 0xa8,                    //  Report ID (168)                    386
# 0x09, 0x4b,                    //  Usage (Vendor Usage 0x4b)          388
# 0x95, 0x01,                    //  Report Count (1)                   390
# 0xb1, 0x02,                    //  Feature (Data,Var,Abs)             392
# 0x85, 0xa9,                    //  Report ID (169)                    394
# 0x09, 0x4c,                    //  Usage (Vendor Usage 0x4c)          396
# 0x95, 0x08,                    //  Report Count (8)                   398
# 0xb1, 0x02,                    //  Feature (Data,Var,Abs)             400
# 0x85, 0xaa,                    //  Report ID (170)                    402
# 0x09, 0x4e,                    //  Usage (Vendor Usage 0x4e)          404
# 0x95, 0x01,                    //  Report Count (1)                   406
# 0xb1, 0x02,                    //  Feature (Data,Var,Abs)             408
# 0x85, 0xab,                    //  Report ID (171)                    410
# 0x09, 0x4f,                    //  Usage (Vendor Usage 0x4f)          412
# 0x95, 0x39,                    //  Report Count (57)                  414
# 0xb1, 0x02,                    //  Feature (Data,Var,Abs)             416
# 0x85, 0xac,                    //  Report ID (172)                    418
# 0x09, 0x50,                    //  Usage (Vendor Usage 0x50)          420
# 0x95, 0x39,                    //  Report Count (57)                  422
# 0xb1, 0x02,                    //  Feature (Data,Var,Abs)             424
# 0x85, 0xad,                    //  Report ID (173)                    426
# 0x09, 0x51,                    //  Usage (Vendor Usage 0x51)          428
# 0x95, 0x0b,                    //  Report Count (11)                  430
# 0xb1, 0x02,                    //  Feature (Data,Var,Abs)             432
# 0x85, 0xae,                    //  Report ID (174)                    434
# 0x09, 0x52,                    //  Usage (Vendor Usage 0x52)          436
# 0x95, 0x01,                    //  Report Count (1)                   438
# 0xb1, 0x02,                    //  Feature (Data,Var,Abs)             440
# 0x85, 0xaf,                    //  Report ID (175)                    442
# 0x09, 0x53,                    //  Usage (Vendor Usage 0x53)          444
# 0x95, 0x02,                    //  Report Count (2)                   446
# 0xb1, 0x02,                    //  Feature (Data,Var,Abs)             448
# 0x85, 0xb0,                    //  Report ID (176)                    450
# 0x09, 0x54,                    //  Usage (Vendor Usage 0x54)          452
# 0x95, 0x3f,                    //  Report Count (63)                  454
# 0xb1, 0x02,                    //  Feature (Data,Var,Abs)             456
# 0x85, 0xe0,                    //  Report ID (224)                    458
# 0x09, 0x57,                    //  Usage (Vendor Usage 0x57)          460
# 0x95, 0x02,                    //  Report Count (2)                   462
# 0xb1, 0x02,                    //  Feature (Data,Var,Abs)             464
# 0x85, 0xb3,                    //  Report ID (179)                    466
# 0x09, 0x55,                    //  Usage (Vendor Usage 0x55)          468
# 0x95, 0x3f,                    //  Report Count (63)                  470
# 0xb1, 0x02,                    //  Feature (Data,Var,Abs)             472
# 0x85, 0xb4,                    //  Report ID (180)                    474
# 0x09, 0x55,                    //  Usage (Vendor Usage 0x55)          476
# 0x95, 0x3f,                    //  Report Count (63)                  478
# 0xb1, 0x02,                    //  Feature (Data,Var,Abs)             480
# 0x85, 0xb5,                    //  Report ID (181)                    482
# 0x09, 0x56,                    //  Usage (Vendor Usage 0x56)          484
# 0x95, 0x3f,                    //  Report Count (63)                  486
# 0xb1, 0x02,                    //  Feature (Data,Var,Abs)             488
# 0x85, 0xd0,                    //  Report ID (208)                    490
# 0x09, 0x58,                    //  Usage (Vendor Usage 0x58)          492
# 0x95, 0x3f,                    //  Report Count (63)                  494
# 0xb1, 0x02,                    //  Feature (Data,Var,Abs)             496
# 0x85, 0xd4,                    //  Report ID (212)                    498
# 0x09, 0x59,                    //  Usage (Vendor Usage 0x59)          500
# 0x95, 0x3f,                    //  Report Count (63)                  502
# 0xb1, 0x02,                    //  Feature (Data,Var,Abs)             504
# 0xc0,                          // End Collection                      506
# 
R: 507 05 01 09 05 a1 01 85 01 09 30 09 31 09 32 09 35 15 00 26 ff 00 75 08 95 04 81 02 09 39 15 00 25 07 35 00 46 3b 01 65 14 75 04 95 01 81 42 65 00 05 09 19 01 29 0e 15 00 25 01 75 01 95 0e 81 02 06 00 ff 09 20 75 06 95 01 15 00 25 7f 81 02 05 01 09 33 09 34 15 00 26 ff 00 75 08 95 02 81 02 06 00 ff 09 21 95 36 81 02 85 05 09 22 95 1f 91 02 85 04 09 23 95 24 b1 02 85 02 09 24 95 24 b1 02 85 08 09 25 95 03 b1 02 85 10 09 26 95 04 b1 02 85 11 09 27 95 02 b1 02 85 12 06 02 ff 09 21 95 0f b1 02 85 13 09 22 95 16 b1 02 85 14 06 05 ff 09 20 95 10 b1 02 85 15 09 21 95 2c b1 02 06 80 ff 85 80 09 20 95 06 b1 02 85 81 09 21 95 06 b1 02 85 82 09 22 95 05 b1 02 85 83 09 23 95 01 b1 02 85 84 09 24 95 04 b1 02 85 85 09 25 95 06 b1 02 85 86 09 26 95 06 b1 02 85 87 09 27 95 23 b1 02 85 88 09 28 95 3f b1 02 85 89 09 29 95 02 b1 02 85 90 09 30 95 05 b1 02 85 91 09 31 95 03 b1 02 85 92 09 32 95 03 b1 02 85 93 09 33 95 0c b1 02 85 94 09 34 95 3f b1 02 85 a0 09 40 95 06 b1 02 85 a1 09 41 95 01 b1 02 85 a2 09 42 95 01 b1 02 85 a3 09 43 95 30 b1 02 85 a4 09 44 95 0d b1 02 85 f0 09 47 95 3f b1 02 85 f1 09 48 95 3f b1 02 85 f2 09 49 95 0f b1 02 85 a7 09 4a 95 01 b1 02 85 a8 09 4b 95 01 b1 02 85 a9 09 4c 95 08 b1 02 85 aa 09 4e 95 01 b1 02 85 ab 09 4f 95 39 b1 02 85 ac 09 50 95 39 b1 02 85 ad 09 51 95 0b b1 02 85 ae 09 52 95 01 b1 02 85 af 09 53 95 02 b1 02 85 b0 09 54 95 3f b1 02 85 e0 09 57 95 02 b1 02 85 b3 09 55 95 3f b1 02 85 b4 09 55 95 3f b1 02 85 b5 09 56 95 3f b1 02 85 d0 09 58 95 3f b1 02 85 d4 09 59 95 3f b1 02 c0
N: Sony Interactive Entertainment Wireless Controller
I: 3 054c 09cc
# ReportID: 1 / X:  129 | Y:  124 | Z:  122 | Rz:  125 | Hat switch:   8 | Button: 0  0  0  0  0  0  0  0  0  0  0  0  0  0 | 0xff000020:  38 | Rx:    0 | Ry:    0 | 0xff000021:  135 ,  209 ,    4 ,  242 ,  255 ,  254 ,  255 ,  228 ,  255 ,  240 ,  255 ,    9 ,   31 ,   24 ,    7 ,    0 ,    0 ,    0 ,    0 ,    0 ,   24 ,    0 ,    0 ,    1 ,   69 ,  129 ,  118 ,  115 ,   17 ,  128 ,    0 ,    0 ,    0 ,    0 ,  128 ,    0 ,    0 ,    0 ,  128 ,    0 ,    0 ,    0 ,    0 ,  128 ,    0 ,    0 ,    0 ,  128 ,    0 ,    0 ,    0 ,    0 ,  128 ,    0 
E: 000000.000000 64 01 81 7c 7a 7d 08 00 98 00 00 87 d1 04 f2 ff fe ff e4 ff f0 ff 09 1f 18 07 00 00 00 00 00 18 00 00 01 45 81 76 73 11 80 00 00 00 00 80 00 00 00 80 00 00 00 00 80 00 00 00 80 00 00 00 00 80 00
# ReportID: 1 / X:  129 | Y:  124 | Z:  122 | Rz:  126 | Hat switch:   8 | Button: 0  0  0  0  0  0  0  0  0  0  0  0  0  0 | 0xff000020:  39 | Rx:    0 | Ry:    0 | 0xff000021:  116 ,  212 ,    4 ,  242 ,  255 ,  254 ,  255 ,  229 ,  255 ,  225 ,  255 ,  104 ,   31 ,   81 ,    7 ,    0 ,    0 ,    0 ,    0 ,    0 ,   24 ,    0 ,    0 ,    1 ,   69 ,  129 ,  118 ,  115 ,   17 ,  128 ,    0 ,    0 ,    0 ,    0 ,  128 ,    0 ,    0 ,    0 ,  128 ,    0 ,    0 ,    0 ,    0 ,  128 ,    0 ,    0 ,    0 ,  128 ,    0 ,    0 ,    0 ,    0 ,  128 ,    0 
E: 000000.002659 64 01 81 7c 7a 7e 08 00 9c 00 00 74 d4 04 f2 ff fe ff e5 ff e1 ff 68 1f 51 07 00 00 00 00 00 18 00 00 01 45 81 76 73 11 80 00 00 00 00 80 00 00 00 80 00 00 00 00 80 00 00 00 80 00 00 00 00 80 00
# ReportID: 1 / X:  129 | Y:  124 | Z:  122 | Rz:  126 | Hat switch:   8 | Button: 0  0  0  0  0  0  0  0  0  0  0  0  0  0 | 0xff000020:  40 | Rx:    0 | Ry:    0 | 0xff000021:   97 ,  215 ,    4 ,  242 ,  255 ,  253 ,  255 ,  232 ,  255 ,  231 ,  255 ,   80 ,   31 ,   70 ,    7 ,    0 ,    0 ,    0 ,    0 ,    0 ,   24 ,    0 ,    0 ,    1 ,   69 ,  129 ,  118 ,  115 ,   17 ,  128 ,    0 ,    0 ,    0 ,    0 ,  128 ,    0 ,    0 ,    0 ,  128 ,    0 ,    0 ,    0 ,    0 ,  128 ,    0 ,    0 ,    0 ,  128 ,    0 ,    0 ,    0 ,    0 ,  128 ,    0 
E: 000000.005113 64 01 81 7c 7a 7e 08 00 a0 00 00 61 d7 04 f2 ff fd ff e8 ff e7 ff 50 1f 46 07 00 00 00 00 00 18 00 00 01 45 81 76 73 11 80 00 00 00 00 80 00 00 00 80 00 00 00 00 80 00 00 00 80 00 00 00 00 80 00
# ReportID: 1 / X:  129 | Y:  124 | Z:  122 | Rz:  126 | Hat switch:   8 | Button: 0  0  0  0  0  0  0  0  0  0  0  0  0  0 | 0xff000020:  41 | Rx:    0 | Ry:    0 | 0xff000021:   78 ,  218 ,    4 ,  243 ,  255 ,  253 ,  255 ,  232 ,  255 ,  255 ,  255 ,    3 ,   31 ,   53 ,    7 ,    0 ,    0 ,    0 ,    0 ,    0 ,   24 ,    0 ,    0 ,    1 ,   69 ,  129 ,  118 ,  115 ,   17 ,  128 ,    0 ,    0 ,    0 ,    0 ,  128 ,    0 ,    0 ,    0 ,  128 ,    0 ,    0 ,    0 ,    0 ,  128 ,    0 ,    0 ,    0 ,  128 ,    0 ,    0 ,    0 ,    0 ,  128 ,    0 
E: 000000.007962 64 01 81 7c 7a 7e 08 00 a4 00 00 4e da 04 f3 ff fd ff e8 ff ff ff 03 1f 35 07 00 00 00 00 00 18 00 00 01 45 81 76 73 11 80 00 00 00 00 80 00 00 00 80 00 00 00 00 80 00 00 00 80 00 00 00 00 80 00
# ReportID: 1 / X:  129 | Y:  124 | Z:  122 | Rz:  126 | Hat switch:   8 | Button: 0  0  0  0  0  0  0  0  0  0  0  0  0  0 | 0xff000020:  42 | Rx:    0 | Ry:    0 | 0xff000021:   59 ,  221 ,    4 ,  242 ,  255 ,  253 ,  255 ,  230 ,  255 ,    3 ,    0 ,   30 ,   31 ,   64 ,    7 ,    0 ,    0 ,    0 ,    0 ,    0 ,   24 ,    0 ,    0 ,    1 ,   69 ,  129 ,  118 ,  115 ,   17 ,  128 ,    0 ,    0 ,    0 ,    0 ,  128 ,    0 ,    0 ,    0 ,  128 ,    0 ,    0 ,    0 ,    0 ,  128 ,    0 ,    0 ,    0 ,  128 ,    0 ,    0 ,    0 ,    0 ,  128 ,    0 
E: 000000.010960 64 01 81 7c 7a 7e 08 00 a8 00 00 3b dd 04 f2 ff fd ff e6 ff 03 00 1e 1f 40 07 00 00 00 00 00 18 00 00 01 45 81 76 73 11 80 00 00 00 00 80 00 00 00 80 00 00 00 00 80 00 00 00 80 00 00 00 00 80 00
# ReportID: 1 / X:  129 | Y:  124 | Z:  122 | Rz:  126 | Hat switch:   8 | Button: 0  0  0  0  0  0  0  0  0  0  0  0  0  0 | 0xff000020:  43 | Rx:    0 | Ry:    0 | 0xff000021:   40 ,  224 ,    4 ,  241 ,  255 ,  253 ,  255 ,  230 ,  255 ,  224 ,  255 ,   46 ,   31 ,   55 ,    7 ,    0 ,    0 ,    0 ,    0 ,    0 ,   24 ,    0 ,    0 ,    1 ,   69 ,  129 ,  118 ,  115 ,   17 ,  128 ,    0 ,    0 ,    0 ,    0 ,  128 ,    0 ,    0 ,    0 ,  128 ,    0 ,    0 ,    0 ,    0 ,  128 ,    0 ,    0 ,    0 ,  128 ,    0 ,    0 ,    0 ,    0 ,  128 ,    0 
E: 000000.014012 64 01 81 7c 7a 7e 08 00 ac 00 00 28 e0 04 f1 ff fd ff e6 ff e0 ff 2e 1f 37 07 00 00 00 00 00 18 00 00 01 45 81 76 73 11 80 00 00 00 00 80 00 00 00 80 00 00 00 00 80 00 00 00 80 00 00 00 00 80 00
# ReportID: 1 / X:  129 | Y:  124 | Z:  122 | Rz:  125 | Hat switch:   8 | Button: 0  0  0  0  0  0  0  0  0  0  0  0  0  0 | 0xff000020:  44 | Rx:    0 | Ry:    0 | 0xff000021:   21 ,  227 ,    4 ,  241 ,  255 ,  253 ,  255 ,  230 ,  255 ,  244 ,  255 ,   87 ,   31 ,   94 ,    7 ,    0 ,    0 ,    0 ,    0 ,    0 ,   24 ,    0 ,    0 ,    1 ,   69 ,  129 ,  118 ,  115 ,   17 ,  128 ,    0 ,    0 ,    0 ,    0 ,  128 ,    0 ,    0 ,    0 ,  128 ,    0 ,    0 ,    0 ,    0 ,  128 ,    0 ,    0 ,    0 ,  128 ,    0 ,    0 ,    0 ,    0 ,  128 ,    0 
E: 000000.017055 64 01 81 7c 7a 7d 08 00 b0 00 00 15 e3 04 f1 ff fd ff e6 ff f4 ff 57 1f 5e 07 00 00 00 00 00 18 00 00 01 45 81 76 73 11 80 00 00 00 00 80 00 00 00 80 00 00 00 00 80 00 00 00 80 00 00 00 00 80 00
# ReportID: 1 / X:  129 | Y:  124 | Z:  122 | Rz:  126 | Hat switch:   8 | Button: 0  0  0  0  0  0  0  0  0  0  0  0  0  0 | 0xff000020:  45 | Rx:    0 | Ry:    0 | 0xff000021:    2 ,  230 ,    4 ,  241 ,  255 ,  253 ,  255 ,  231 ,  255 ,  233 ,  255 ,   40 ,   31 ,   69 ,    7 ,    0 ,    0 ,    0 ,    0 ,    0 ,   24 ,    0 ,    0 ,    1 ,   69 ,  129 ,  118 ,  115 ,   17 ,  128 ,    0 ,    0 ,    0 ,    0 ,  128 ,    0 ,    0 ,    0 ,  128 ,    0 ,    0 ,    0 ,    0 ,  128 ,    0 ,    0 ,    0 ,  128 ,    0 ,    0 ,    0 ,    0 ,  128 ,    0 
E: 000000.020272 64 01 81 7c 7a 7e 08 00 b4 00 00 02 e6 04 f1 ff fd ff e7 ff e9 ff 28 1f 45 07 00 00 00 00 00 18 00 00 01 45 81 76 73 11 80 00 00 00 00 80 00 00 00 80 00 00 00 00 80 00 00 00 80 00 00 00 00 80 00
# ReportID: 1 / X:  129 | Y:  124 | Z:  122 | Rz:  126 | Hat switch:   8 | Button: 0  0  0  0  0  0  0  0  0  0  0  0  0  0 | 0xff000020:  46 | Rx:    0 | Ry:    0 | 0xff000021:  239 ,  232 ,    4 ,  242 ,  255 ,  254 ,  255 ,  229 ,  255 ,    5 ,    0 ,  255 ,   30 ,   74 ,    7 ,    0 ,    0 ,    0 ,    0 ,    0 ,   24 ,    0 ,    0 ,    1 ,   69 ,  129 ,  118 ,  115 ,   17 ,  128 ,    0 ,    0 ,    0 ,    0 ,  128 ,    0 ,    0 ,    0 ,  128 ,    0 ,    0 ,    0 ,    0 ,  128 ,    0 ,    0 ,    0 ,  128 ,    0 ,    0 ,    0 ,    0 ,  128 ,    0 
E: 000000.023405 64 01 81 7c 7a 7e 08 00 b8 00 00 ef e8 04 f2 ff fe ff e5 ff 05 00 ff 1e 4a 07 00 00 00 00 00 18 00 00 01 45 81 76 73 11 80 00 00 00 00 80 00 00 00 80 00 00 00 00 80 00 00 00 80 00 00 00 00 80 00
# ReportID: 1 / X:  129 | Y:  124 | Z:  122 | Rz:  126 | Hat switch:   8 | Button: 0  0  0  0  0  0  0  0  0  0  0  0  0  0 | 0xff000020:  47 | Rx:    0 | Ry:    0 | 0xff000021:  220 ,  235 ,    4 ,  241 ,  255 ,  255 ,  255 ,  230 ,  255 ,  219 ,  255 ,   51 ,   31 ,   85 ,    7 ,    0 ,    0 ,    0 ,    0 ,    0 ,   24 ,    0 ,    0 ,    1 ,   69 ,  129 ,  118 ,  115 ,   17 ,  128 ,    0 ,    0 ,    0 ,    0 ,  128 ,    0 ,    0 ,    0 ,  128 ,    0 ,    0 ,    0 ,    0 ,  128 ,    0 ,    0 ,    0 ,  128 ,    0 ,    0 ,    0 ,    0 ,  128 ,    0 
E: 000000.026367 64 01 81 7c 7a 7e 08 00 bc 00 00 dc eb 04 f1 ff ff ff e6 ff db ff 33 1f 55 07 00 00 00 00 00 18 00 00 01 45 81 76 73 11 80 00 00 00 00 80 00 00 00 80 00 00 00 00 80 00 00 00 80 00 00 00 00 80 00
# ReportID: 1 / X:  129 | Y:  124 | Z:  122 | Rz:  125 | Hat switch:   8 | Button: 0  0  0  0  0  0  0  0  0  0  0  0  0  0 | 0xff000020:  48 | Rx:    0 | Ry:    0 | 0xff000021:  201 ,  238 ,    4 ,  242 ,  255 ,  254 ,  255 ,  230 ,  255 ,  223 ,  255 ,   67 ,   31 ,   69 ,    7 ,    0 ,    0 ,    0 ,    0 ,    0 ,   24 ,    0 ,    0 ,    1 ,   69 ,  129 ,  118 ,  115 ,   17 ,  128 ,    0 ,    0 ,    0 ,    0 ,  128 ,    0 ,    0 ,    0 ,  128 ,    0 ,    0 ,    0 ,    0 ,  128 ,    0 ,    0 ,    0 ,  128 ,    0 ,    0 ,    0 ,    0 ,  128 ,    0 
E: 000000.029026 64 01 81 7c 7a 7d 08 00 c0 00 00 c9 ee 04 f2 ff fe ff e6 ff df ff 43 1f 45 07 00 00 00 00 00 18 00 00 01 45 81 76 73 11 80 00 00 00 00 80 00 00 00 80 00 00 00 00 80 00 00 00 80 00 00 00 00 80 00
# ReportID: 1 / X:  129 | Y:  124 | Z:  122 | Rz:  126 | Hat switch:   8 | Button: 0  0  0  0  0  0  0  0  0  0  0  0  0  0 | 0xff000020:  49 | Rx:    0 | Ry:    0 | 0xff000021:  182 ,  241 ,    4 ,  241 ,  255 ,  253 ,  255 ,  231 ,  255 ,  227 ,  255 ,   34 ,   31 ,   68 ,    7 ,    0 ,    0 ,    0 ,    0 ,    0 ,   24 ,    0 ,    0 ,    1 ,   69 ,  129 ,  118 ,  115 ,   17 ,  128 ,    0 ,    0 ,    0 ,    0 ,  128 ,    0 ,    0 ,    0 ,  128 ,    0 ,    0 ,    0 ,    0 ,  128 ,    0 ,    0 ,    0 ,  128 ,    0 ,    0 ,    0 ,    0 ,  128 ,    0 
E: 000000.031717 64 01 81 7c 7a 7e 08 00 c4 00 00 b6 f1 04 f1 ff fd ff e7 ff e3 ff 22 1f 44 07 00 00 00 00 00 18 00 00 01 45 81 76 73 11 80 00 00 00 00 80 00 00 00 80 00 00 00 00 80 00 00 00 80 00 00 00 00 80 00
# ReportID: 1 / X:  130 | Y:  124 | Z:  122 | Rz:  125 | Hat switch:   8 | Button: 0  0  0  0  0  0  0  0  0  0  0  0  0  0 | 0xff000020:  50 | Rx:    0 | Ry:    0 | 0xff000021:  163 ,  244 ,    4 ,  241 ,  255 ,  254 ,  255 ,  230 ,  255 ,  228 ,  255 ,   10 ,   31 ,   69 ,    7 ,    0 ,    0 ,    0 ,    0 ,    0 ,   24 ,    0 ,    0 ,    1 ,   69 ,  129 ,  118 ,  115 ,   17 ,  128 ,    0 ,    0 ,    0 ,    0 ,  128 ,    0 ,    0 ,    0 ,  128 ,    0 ,    0 ,    0 ,    0 ,  128 ,    0 ,    0 ,    0 ,  128 ,    0 ,    0 ,    0 ,    0 ,  128 ,    0 
E: 000000.034346 64 01 82 7c 7a 7d 08 00 c8 00 00 a3 f4 04 f1 ff fe ff e6 ff e4 ff 0a 1f 45 07 00 00 00 00 00 18 00 00 01 45 81 76 73 11 80 00 00 00 00 80 00 00 00 80 00 00 00 00 80 00 00 00 80 00 00 00 00 80 00
# ReportID: 1 / X:  129 | Y:  124 | Z:  122 | Rz:  125 | Hat switch:   8 | Button: 0  0  0  0  0  0  0  0  0  0  0  0  0  0 | 0xff000020:  51 | Rx:    0 | Ry:    0 | 0xff000021:  144 ,  247 ,    4 ,  243 ,  255 ,  254 ,  255 ,  232 ,  255 ,  225 ,  255 ,   19 ,   31 ,   69 ,    7 ,    0 ,    0 ,    0 ,    0 ,    0 ,   24 ,    0 ,    0 ,    1 ,   69 ,  129 ,  118 ,  115 ,   17 ,  128 ,    0 ,    0 ,    0 ,    0 ,  128 ,    0 ,    0 ,    0 ,  128 ,    0 ,    0 ,    0 ,    0 ,  128 ,    0 ,    0 ,    0 ,  128 ,    0 ,    0 ,    0 ,    0 ,  128 ,    0 
E: 000000.036973 64 01 81 7c 7a 7d 08 00 cc 00 00 90 f7 04 f3 ff fe ff e8 ff e1 ff 13 1f 45 07 00 00 00 00 00 18 00 00 01 45 81 76 73 11 80 00 00 00 00 80 00 00 00 80 00 00 00 00 80 00 00 00 80 00 00 00 00 80 00
# ReportID: 1 / X:  129 | Y:  124 | Z:  122 | Rz:  125 | Hat switch:   8 | Button: 0  0  0  0  0  0  0  0  0  0  0  0  0  0 | 0xff000020:  52 | Rx:    0 | Ry:    0 | 0xff000021:  125 ,  250 ,    4 ,  243 ,  255 ,  252 ,  255 ,  231 ,  255 ,  208 ,  255 ,   67 ,   31 ,   91 ,    7 ,    0 ,    0 ,    0 ,    0 ,    0 ,   24 ,    0 ,    0 ,    1 ,   69 ,  129 ,  118 ,  115 ,   17 ,  128 ,    0 ,    0 ,    0 ,    0 ,  128 ,    0 ,    0 ,    0 ,  128 ,    0 ,    0 ,    0 ,    0 ,  128 ,    0 ,    0 ,    0 ,  128 ,    0 ,    0 ,    0 ,    0 ,  128 ,    0 
E: 000000.039639 64 01 81 7c 7a 7d 08 00 d0 00 00 7d fa 04 f3 ff fc ff e7 ff d0 ff 43 1f 5b 07 00 00 00 00 00 18 00 00 01 45 81 76 73 11 80 00 00 00 00 80 00 00 00 80 00 00 00 00 80 00 00 00 80 00 00 00 00 80 00
# ReportID: 1 / X:  129 | Y:  124 | Z:  122 | Rz:  125 | Hat switch:   8 | Button: 0  0  0  0  0  0  0  0  0  0  0  0  0  0 | 0xff000020:  53 | Rx:    0 | Ry:    0 | 0xff000021:  106 ,  253 ,    4 ,  243 ,  255 ,  253 ,  255 ,  229 ,  255 ,  223 ,  255 ,   59 ,   31 ,   83 ,    7 ,    0 ,    0 ,    0 ,    0 ,    0 ,   24 ,    0 ,    0 ,    1 ,   69 ,  129 ,  118 ,  115 ,   17 ,  128 ,    0 ,    0 ,    0 ,    0 ,  128 ,    0 ,    0 ,    0 ,  128 ,    0 ,    0 ,    0 ,    0 ,  128 ,    0 ,    0 ,    0 ,  128 ,    0 ,    0 ,    0 ,    0 ,  128 ,    0 
E: 000000.042271 64 01 81 7c 7a 7d 08 00 d4 00 00 6a fd 04 f3 ff fd ff e5 ff df ff 3b 1f 53 07 00 00 00 00 00 18 00 00 01 45 81 76 73 11 80 00 00 00 00 80 00 00 00 80 00 00 00 00 80 00 00 00 80 00 00 00 00 80 00
# ReportID: 1 / X:  129 | Y:  124 | Z:  122 | Rz:  125 | Hat switch:   8 | Button: 0  0  0  0  0  0  0  0  0  0  0  0  0  0 | 0xff000020:  54 | Rx:    0 | Ry:    0 | 0xff000021:   87 ,    0 ,    4 ,  242 ,  255 ,  253 ,  255 ,  230 ,  255 ,  235 ,  255 ,  252 ,   30 ,   72 ,    7 ,    0 ,    0 ,    0 ,    0 ,    0 ,   24 ,    0 ,    0 ,    1 ,   69 ,  129 ,  118 ,  115 ,   17 ,  128 ,    0 ,    0 ,    0 ,    0 ,  128 ,    0 ,    0 ,    0 ,  128 ,    0 ,    0 ,    0 ,    0 ,  128 ,    0 ,    0 ,    0 ,  128 ,    0 ,    0 ,    0 ,    0 ,  128 ,    0 
E: 000000.045172 64 01 81 7c 7a 7d 08 00 d8 00 00 57 00 04 f2 ff fd ff e6 ff eb ff fc 1e 48 07 00 00 00 00 00 18 00 00 01 45 81 76 73 11 80 00 00 00 00 80 00 00 00 80 00 00 00 00 80 00 00 00 80 00 00 00 00 80 00
# ReportID: 1 / X:  129 | Y:  124 | Z:  122 | Rz:  125 | Hat switch:   8 | Button: 0  0  0  0  0  0  0  0  0  0  0  0  0  0 | 0xff000020:  55 | Rx:    0 | Ry:    0 | 0xff000021:   68 ,    3 ,    4 ,  242 ,  255 ,  252 ,  255 ,  229 ,  255 ,  247 ,  255 ,   16 ,   31 ,   79 ,    7 ,    0 ,    0 ,    0 ,    0 ,    0 ,   24 ,    0 ,    0 ,    1 ,   69 ,  129 ,  118 ,  115 ,   17 ,  128 ,    0 ,    0 ,    0 ,    0 ,  128 ,    0 ,    0 ,    0 ,  128 ,    0 ,    0 ,    0 ,    0 ,  128 ,    0 ,    0 ,    0 ,  128 ,    0 ,    0 ,    0 ,    0 ,  128 ,    0 
E: 000000.049381 64 01 81 7c 7a 7d 08 00 dc 00 00 44 03 04 f2 ff fc ff e5 ff f7 ff 10 1f 4f 07 00 00 00 00 00 18 00 00 01 45 81 76 73 11 80 00 00 00 00 80 00 00 00 80 00 00 00 00 80 00 00 00 80 00 00 00 00 80 00
# ReportID: 1 / X:  129 | Y:  124 | Z:  122 | Rz:  125 | Hat switch:   8 | Button: 0  0  0  0  0  0  0  0  0  0  0  0  0  0 | 0xff000020:  56 | Rx:    0 | Ry:    0 | 0xff000021:   49 ,    6 ,    4 ,  241 ,  255 ,  255 ,  255 ,  230 ,  255 ,  244 ,  255 ,   36 ,   31 ,   72 ,    7 ,    0 ,    0 ,    0 ,    0 ,    0 ,   24 ,    0 ,    0 ,    1 ,   69 ,  129 ,  118 ,  115 ,   17 ,  128 ,    0 ,    0 ,    0 ,    0 ,  128 ,    0 ,    0 ,    0 ,  128 ,    0 ,    0 ,    0 ,    0 ,  128 ,    0 ,    0 ,    0 ,  128 ,    0 ,    0 ,    0 ,    0 ,  128 ,    0 
E: 000000.053358 64 01 81 7c 7a 7d 08 00 e0 00 00 31 06 04 f1 ff ff ff e6 ff f4 ff 24 1f 48 07 00 00 00 00 00 18 00 00 01 45 81 76 73 11 80 00 00 00 00 80 00 00 00 80 00 00 00 00 80 00 00 00 80 00 00 00 00 80 00
# ReportID: 1 / X:  129 | Y:  124 | Z:  122 | Rz:  125 | Hat switch:   8 | Button: 0  0  0  0  0  0  0  0  0  0  0  0  0  0 | 0xff000020:  57 | Rx:    0 | Ry:    0 | 0xff000021:   30 ,    9 ,    4 ,  241 ,  255 ,  254 ,  255 ,  230 ,  255 ,  243 ,  255 ,   46 ,   31 ,   84 ,    7 ,    0 ,    0 ,    0 ,    0 ,    0 ,   24 ,    0 ,    0 ,    1 ,   69 ,  129 ,  118 ,  115 ,   17 ,  128 ,    0 ,    0 ,    0 ,    0 ,  128 ,    0 ,    0 ,    0 ,  128 ,    0 ,    0 ,    0 ,    0 ,  128 ,    0 ,    0 ,    0 ,  128 ,    0 ,    0 ,    0 ,    0 ,  128 ,    0 
E: 000000.057364 64 01 81 7c 7a 7d 08 00 e4 00 00 1e 09 04 f1 ff fe ff e6 ff f3 ff 2e 1f 54 07 00 00 00 00 00 18 00 00 01 45 81 76 73 11 80 00 00 00 00 80 00 00 00 80 00 00 00 00 80 00 00 00 80 00 00 00 00 80 00
# ReportID: 1 / X:  129 | Y:  123 | Z:  122 | Rz:  125 | Hat switch:   8 | Button: 0  0  0  0  0  0  0  0  0  0  0  0  0  0 | 0xff000020:  58 | Rx:    0 | Ry:    0 | 0xff000021:   11 ,   12 ,    4 ,  242 ,  255 ,  255 ,  255 ,  230 ,  255 ,  241 ,  255 ,   48 ,   31 ,   82 ,    7 ,    0 ,    0 ,    0 ,    0 ,    0 ,   24 ,    0 ,    0 ,    1 ,   69 ,  129 ,  118 ,  115 ,   17 ,  128 ,    0 ,    0 ,    0 ,    0 ,  128 ,    0 ,    0 ,    0 ,  128 ,    0 ,    0 ,    0 ,    0 ,  128 ,    0 ,    0 ,    0 ,  128 ,    0 ,    0 ,    0 ,    0 ,  128 ,    0 
E: 000000.061363 64 01 81 7b 7a 7d 08 00 e8 00 00 0b 0c 04 f2 ff ff ff e6 ff f1 ff 30 1f 52 07 00 00 00 00 00 18 00 00 01 45 81 76 73 11 80 00 00 00 00 80 00 00 00 80 00 00 00 00 80 00 00 00 80 00 00 00 00 80 00
# ReportID: 1 / X:  129 | Y:  124 | Z:  122 | Rz:  125 | Hat switch:   8 | Button: 0  0  0  0  0  0  0  0  0  0  0  0  0  0 | 0xff000020:  59 | Rx:    0 | Ry:    0 | 0xff000021:  248 ,   14 ,    4 ,  242 ,  255 ,  254 ,  255 ,  231 ,  255 ,  239 ,  255 ,   19 ,   31 ,   70 ,    7 ,    0 ,    0 ,    0 ,    0 ,    0 ,   24 ,    0 ,    0 ,    1 ,   69 ,  129 ,  118 ,  115 ,   17 ,  128 ,    0 ,    0 ,    0 ,    0 ,  128 ,    0 ,    0 ,    0 ,  128 ,    0 ,    0 ,    0 ,    0 ,  128 ,    0 ,    0 ,    0 ,  128 ,    0 ,    0 ,    0 ,    0 ,  128 ,    0 
E: 000000.065370 64 01 81 7c 7a 7d 08 00 ec 00 00 f8 0e 04 f2 ff fe ff e7 ff ef ff 13 1f 46 07 00 00 00 00 00 18 00 00 01 45 81 76 73 11 80 00 00 00 00 80 00 00 00 80 00 00 00 00 80 00 00 00 80 00 00 00 00 80 00
# ReportID: 1 / X:  129 | Y:  124 | Z:  122 | Rz:  125 | Hat switch:   8 | Button: 0  0  0  0  0  0  0  0  0  0  0  0  0  0 | 0xff000020:  60 | Rx:    0 | Ry:    0 | 0xff000021:  229 ,   17 ,    4 ,  243 ,  255 ,  254 ,  255 ,  231 ,  255 ,  234 ,  255 ,   70 ,   31 ,   58 ,    7 ,    0 ,    0 ,    0 ,    0 ,    0 ,   24 ,    0 ,    0 ,    1 ,   69 ,  129 ,  118 ,  115 ,   17 ,  128 ,    0 ,    0 ,    0 ,    0 ,  128 ,    0 ,    0 ,    0 ,  128 ,    0 ,    0 ,    0 ,    0 ,  128 ,    0 ,    0 ,    0 ,  128 ,    0 ,    0 ,    0 ,    0 ,  128 ,    0 
E: 000000.069366 64 01 81 7c 7a 7d 08 00 f0 00 00 e5 11 04 f3 ff fe ff e7 ff ea ff 46 1f 3a 07 00 00 00 00 00 18 00 00 01 45 81 76 73 11 80 00 00 00 00 80 00 00 00 80 00 00 00 00 80 00 00 00 80 00 00 00 00 80 00
# ReportID: 1 / X:  129 | Y:  124 | Z:  121 | Rz:  125 | Hat switch:   8 | Button: 0  0  0  0  0  0  0  0  0  0  0  0  0  0 | 0xff000020:  61 | Rx:    0 | Ry:    0 | 0xff000021:  210 ,   20 ,    4 ,  242 ,  255 ,  253 ,  255 ,  231 ,  255 ,  230 ,  255 ,   59 ,   31 ,   97 ,    7 ,    0 ,    0 ,    0 ,    0 ,    0 ,   24 ,    0 ,    0 ,    1 ,   69 ,  129 ,  118 ,  115 ,   17 ,  128 ,    0 ,    0 ,    0 ,    0 ,  128 ,    0 ,    0 ,    0 ,  128 ,    0 ,    0 ,    0 ,    0 ,  128 ,    0 ,    0 ,    0 ,  128 ,    0 ,    0 ,    0 ,    0 ,  128 ,    0 
E: 000000.073370 64 01 81 7c 79 7d 08 00 f4 00 00 d2 14 04 f2 ff fd ff e7 ff e6 ff 3b 1f 61 07 00 00 00 00 00 18 00 00 01 45 81 76 73 11 80 00 00 00 00 80 00 00 00 80 00 00 00 00 80 00 00 00 80 00 00 00 00 80 00
# ReportID: 1 / X:  129 | Y:  124 | Z:  121 | Rz:  125 | Hat switch:   8 | Button: 0  0  0  0  0  0  0  0  0  0  0  0  0  0 | 0xff000020:  62 | Rx:    0 | Ry:    0 | 0xff000021:  191 ,   23 ,    4 ,  243 ,  255 ,  254 ,  255 ,  230 ,  255 ,  246 ,  255 ,   14 ,   31 ,   44 ,    7 ,    0 ,    0 ,    0 ,    0 ,    0 ,   24 ,    0 ,    0 ,    1 ,   69 ,  129 ,  118 ,  115 ,   17 ,  128 ,    0 ,    0 ,    0 ,    0 ,  128 ,    0 ,    0 ,    0 ,  128 ,    0 ,    0 ,    0 ,    0 ,  128 ,    0 ,    0 ,    0 ,  128 ,    0 ,    0 ,    0 ,    0 ,  128 ,    0 
E: 000000.077366 64 01 81 7c 79 7d 08 00 f8 00 00 bf 17 04 f3 ff fe ff e6 ff f6 ff 0e 1f 2c 07 00 00 00 00 00 18 00 00 01 45 81 76 73 11 80 00 00 00 00 80 00 00 00 80 00 00 00 00 80 00 00 00 80 00 00 00 00 80 00
# ReportID: 1 / X:  129 | Y:  124 | Z:  121 | Rz:  125 | Hat switch:   8 | Button: 0  0  0  0  0  0  0  0  0  0  0  0  0  0 | 0xff000020:  63 | Rx:    0 | Ry:    0 | 0xff000021:  172 ,   26 ,    4 ,  242 ,  255 ,  254 ,  255 ,  229 ,  255 ,  236 ,  255 ,   15 ,   31 ,   44 ,    7 ,    0 ,    0 ,    0 ,    0 ,    0 ,   24 ,    0 ,    0 ,    1 ,   69 ,  129 ,  118 ,  115 ,   17 ,  128 ,    0 ,    0 ,    0 ,    0 ,  128 ,    0 ,    0 ,    0 ,  128 ,    0 ,    0 ,    0 ,    0 ,  128 ,    0 ,    0 ,    0 ,  128 ,    0 ,    0 ,    0 ,    0 ,  128 ,    0 
E: 000000.081171 64 01 81 7c 79 7d 08 00 fc 00 00 ac 1a 04 f2 ff fe ff e5 ff ec ff 0f 1f 2c 07 00 00 00 00 00 18 00 00 01 45 81 76 73 11 80 00 00 00 00 80 00 00 00 80 00 00 00 00 80 00 00 00 80 00 00 00 00 80 00
# ReportID: 1 / X:  129 | Y:  123 | Z:  121 | Rz:  126 | Hat switch:   8 | Button: 0  0  0  0  0  0  0  0  0  0  0  0  0  0 | 0xff000020:   0 | Rx:    0 | Ry:    0 | 0xff000021:  153 ,   29 ,    4 ,  241 ,  255 ,  254 ,  255 ,  229 ,  255 ,  233 ,  255 ,   54 ,   31 ,   67 ,    7 ,    0 ,    0 ,    0 ,    0 ,    0 ,   24 ,    0 ,    0 ,    1 ,   69 ,  129 ,  118 ,  115 ,   17 ,  128 ,    0 ,    0 ,    0 ,    0 ,  128 ,    0 ,    0 ,    0 ,  128 ,    0 ,    0 ,    0 ,    0 ,  128 ,    0 ,    0 ,    0 ,  128 ,    0 ,    0 ,    0 ,    0 ,  128 ,    0 
E: 000000.085188 64 01 81 7b 79 7e 08 00 00 00 00 99 1d 04 f1 ff fe ff e5 ff e9 ff 36 1f 43 07 00 00 00 00 00 18 00 00 01 45 81 76 73 11 80 00 00 00 00 80 00 00 00 80 00 00 00 00 80 00 00 00 80 00 00 00 00 80 00
# ReportID: 1 / X:  129 | Y:  124 | Z:  122 | Rz:  125 | Hat switch:   8 | Button: 0  0  0  0  0  0  0  0  0  0  0  0  0  0 | 0xff000020:   1 | Rx:    0 | Ry:    0 | 0xff000021:  134 ,   32 ,    4 ,  242 ,  255 ,  255 ,  255 ,  231 ,  255 ,  226 ,  255 ,   48 ,   31 ,   33 ,    7 ,    0 ,    0 ,    0 ,    0 ,    0 ,   24 ,    0 ,    0 ,    1 ,   69 ,  129 ,  118 ,  115 ,   17 ,  128 ,    0 ,    0 ,    0 ,    0 ,  128 ,    0 ,    0 ,    0 ,  128 ,    0 ,    0 ,    0 ,    0 ,  128 ,    0 ,    0 ,    0 ,  128 ,    0 ,    0 ,    0 ,    0 ,  128 ,    0 
E: 000000.089186 64 01 81 7c 7a 7d 08 00 04 00 00 86 20 04 f2 ff ff ff e7 ff e2 ff 30 1f 21 07 00 00 00 00 00 18 00 00 01 45 81 76 73 11 80 00 00 00 00 80 00 00 00 80 00 00 00 00 80 00 00 00 80 00 00 00 00 80 00
# ReportID: 1 / X:  129 | Y:  124 | Z:  122 | Rz:  126 | Hat switch:   8 | Button: 0  0  0  0  0  0  0  0  0  0  0  0  0  0 | 0xff000020:   2 | Rx:    0 | Ry:    0 | 0xff000021:  115 ,   35 ,    4 ,  241 ,  255 ,  253 ,  255 ,  231 ,  255 ,  226 ,  255 ,   84 ,   31 ,   84 ,    7 ,    0 ,    0 ,    0 ,    0 ,    0 ,   24 ,    0 ,    0 ,    1 ,   69 ,  129 ,  118 ,  115 ,   17 ,  128 ,    0 ,    0 ,    0 ,    0 ,  128 ,    0 ,    0 ,    0 ,  128 ,    0 ,    0 ,    0 ,    0 ,  128 ,    0 ,    0 ,    0 ,  128 ,    0 ,    0 ,    0 ,    0 ,  128 ,    0 
E: 000000.093385 64 01 81 7c 7a 7e 08 00 08 00 00 73 23 04 f1 ff fd ff e7 ff e2 ff 54 1f 54 07 00 00 00 00 00 18 00 00 01 45 81 76 73 11 80 00 00 00 00 80 00 00 00 80 00 00 00 00 80 00 00 00 80 00 00 00 00 80 00
# ReportID: 1 / X:  129 | Y:  123 | Z:  121 | Rz:  126 | Hat switch:   8 | Button: 0  0  0  0  0  0  0  0  0  0  0  0  0  0 | 0xff000020:   3 | Rx:    0 | Ry:    0 | 0xff000021:   96 ,   38 ,    4 ,  242 ,  255 ,  253 ,  255 ,  232 ,  255 ,  228 ,  255 ,    8 ,   31 ,   19 ,    7 ,    0 ,    0 ,    0 ,    0 ,    0 ,   24 ,    0 ,    0 ,    1 ,   69 ,  129 ,  118 ,  115 ,   17 ,  128 ,    0 ,    0 ,    0 ,    0 ,  128 ,    0 ,    0 ,    0 ,  128 ,    0 ,    0 ,    0 ,    0 ,  128 ,    0 ,    0 ,    0 ,  128 ,    0 ,    0 ,    0 ,    0 ,  128 ,    0 
E: 000000.097373 64 01 81 7b 79 7e 08 00 0c 00 00 60 26 04 f2 ff fd ff e8 ff e4 ff 08 1f 13 07 00 00 00 00 00 18 00 00 01 45 81 76 73 11 80 00 00 00 00 80 00 00 00 80 00 00 00 00 80 00 00 00 80 00 00 00 00 80 00
# ReportID: 1 / X:  129 | Y:  123 | Z:  121 | Rz:  126 | Hat switch:   8 | Button: 0  0  0  0  0  0  0  0  0  0  0  0  0  0 | 0xff000020:   4 | Rx:    0 | Ry:    0 | 0xff000021:   77 ,   41 ,    4 ,  242 ,  255 ,  254 ,  255 ,  230 ,  255 ,  222 ,  255 ,   37 ,   31 ,   51 ,    7 ,    0 ,    0 ,    0 ,    0 ,    0 ,   24 ,    0 ,    0 ,    1 ,   69 ,  129 ,  118 ,  115 ,   17 ,  128 ,    0 ,    0 ,    0 ,    0 ,  128 ,    0 ,    0 ,    0 ,  128 ,    0 ,    0 ,    0 ,    0 ,  128 ,    0 ,    0 ,    0 ,  128 ,    0 ,    0 ,    0 ,    0 ,  128 ,    0 
E: 000000.101367 64 01 81 7b 79 7e 08 00 10 00 00 4d 29 04 f2 ff fe ff e6 ff de ff 25 1f 33 07 00 00 00 00 00 18 00 00 01 45 81 76 73 11 80 00 00 00 00 80 00 00 00 80 00 00 00 00 80 00 00 00 80 00 00 00 00 80 00
# ReportID: 1 / X:  129 | Y:  124 | Z:  122 | Rz:  125 | Hat switch:   8 | Button: 0  0  0  0  0  0  0  0  0  0  0  0  0  0 | 0xff000020:   5 | Rx:    0 | Ry:    0 | 0xff000021:   58 ,   44 ,    4 ,  242 ,  255 ,  254 ,  255 ,  230 ,  255 ,  226 ,  255 ,   48 ,   31 ,   21 ,    7 ,    0 ,    0 ,    0 ,    0 ,    0 ,   24 ,    0 ,    0 ,    1 ,   69 ,  129 ,  118 ,  115 ,   17 ,  128 ,    0 ,    0 ,    0 ,    0 ,  128 ,    0 ,    0 ,    0 ,  128 ,    0 ,    0 ,    0 ,    0 ,  128 ,    0 ,    0 ,    0 ,  128 ,    0 ,    0 ,    0 ,    0 ,  128 ,    0 
E: 000000.105364 64 01 81 7c 7a 7d 08 00 14 00 00 3a 2c 04 f2 ff fe ff e6 ff e2 ff 30 1f 15 07 00 00 00 00 00 18 00 00 01 45 81 76 73 11 80 00 00 00 00 80 00 00 00 80 00 00 00 00 80 00 00 00 80 00 00 00 00 80 00
# ReportID: 1 / X:  129 | Y:  123 | Z:  121 | Rz:  126 | Hat switch:   8 | Button: 0  0  0  0  0  0  0  0  0  0  0  0  0  0 | 0xff000020:   6 | Rx:    0 | Ry:    0 | 0xff000021:   39 ,   47 ,    4 ,  242 ,  255 ,  254 ,  255 ,  229 ,  255 ,  236 ,  255 ,   42 ,   31 ,   52 ,    7 ,    0 ,    0 ,    0 ,    0 ,    0 ,   24 ,    0 ,    0 ,    1 ,   69 ,  129 ,  118 ,  115 ,   17 ,  128 ,    0 ,    0 ,    0 ,    0 ,  128 ,    0 ,    0 ,    0 ,  128 ,    0 ,    0 ,    0 ,    0 ,  128 ,    0 ,    0 ,    0 ,  128 ,    0 ,    0 ,    0 ,    0 ,  128 ,    0 
E: 000000.109357 64 01 81 7b 79 7e 08 00 18 00 00 27 2f 04 f2 ff fe ff e5 ff ec ff 2a 1f 34 07 00 00 00 00 00 18 00 00 01 45 81 76 73 11 80 00 00 00 00 80 00 00 00 80 00 00 00 00 80 00 00 00 80 00 00 00 00 80 00
# ReportID: 1 / X:  129 | Y:  123 | Z:  121 | Rz:  126 | Hat switch:   8 | Button: 0  0  0  0  0  0  0  0  0  0  0  0  0  0 | 0xff000020:   7 | Rx:    0 | Ry:    0 | 0xff000021:   20 ,   50 ,    4 ,  241 ,  255 ,  254 ,  255 ,  230 ,  255 ,  242 ,  255 ,   53 ,   31 ,   66 ,    7 ,    0 ,    0 ,    0 ,    0 ,    0 ,   24 ,    0 ,    0 ,    1 ,   69 ,  129 ,  118 ,  115 ,   17 ,  128 ,    0 ,    0 ,    0 ,    0 ,  128 ,    0 ,    0 ,    0 ,  128 ,    0 ,    0 ,    0 ,    0 ,  128 ,    0 ,    0 ,    0 ,  128 ,    0 ,    0 ,    0 ,    0 ,  128 ,    0 
E: 000000.113381 64 01 81 7b 79 7e 08 00 1c 00 00 14 32 04 f1 ff fe ff e6 ff f2 ff 35 1f 42 07 00 00 00 00 00 18 00 00 01 45 81 76 73 11 80 00 00 00 00 80 00 00 00 80 00 00 00 00 80 00 00 00 80 00 00 00 00 80 00
# ReportID: 1 / X:  129 | Y:  123 | Z:  121 | Rz:  126 | Hat switch:   8 | Button: 0  0  0  0  0  0  0  0  0  0  0  0  0  0 | 0xff000020:   8 | Rx:    0 | Ry:    0 | 0xff000021:    1 ,   53 ,    4 ,  241 ,  255 ,  253 ,  255 ,  231 ,  255 ,  229 ,  255 ,   42 ,   31 ,   59 ,    7 ,    0 ,    0 ,    0 ,    0 ,    0 ,   24 ,    0 ,    0 ,    1 ,   69 ,  129 ,  118 ,  115 ,   17 ,  128 ,    0 ,    0 ,    0 ,    0 ,  128 ,    0 ,    0 ,    0 ,  128 ,    0 ,    0 ,    0 ,    0 ,  128 ,    0 ,    0 ,    0 ,  128 ,    0 ,    0 ,    0 ,    0 ,  128 ,    0 
E: 000000.117183 64 01 81 7b 79 7e 08 00 20 00 00 01 35 04 f1 ff fd ff e7 ff e5 ff 2a 1f 3b 07 00 00 00 00 00 18 00 00 01 45 81 76 73 11 80 00 00 00 00 80 00 00 00 80 00 00 00 00 80 00 00 00 80 00 00 00 00 80 00
# ReportID: 1 / X:  129 | Y:  123 | Z:  121 | Rz:  126 | Hat switch:   8 | Button: 0  0  0  0  0  0  0  0  0  0  0  0  0  0 | 0xff000020:   9 | Rx:    0 | Ry:    0 | 0xff000021:  238 ,   55 ,    4 ,  244 ,  255 ,  254 ,  255 ,  231 ,  255 ,  219 ,  255 ,   39 ,   31 ,   72 ,    7 ,    0 ,    0 ,    0 ,    0 ,    0 ,   24 ,    0 ,    0 ,    1 ,   69 ,  129 ,  118 ,  115 ,   17 ,  128 ,    0 ,    0 ,    0 ,    0 ,  128 ,    0 ,    0 ,    0 ,  128 ,    0 ,    0 ,    0 ,    0 ,  128 ,    0 ,    0 ,    0 ,  128 ,    0 ,    0 ,    0 ,    0 ,  128 ,    0 
E: 000000.121174 64 01 81 7b 79 7e 08 00 24 00 00 ee 37 04 f4 ff fe ff e7 ff db ff 27 1f 48 07 00 00 00 00 00 18 00 00 01 45 81 76 73 11 80 00 00 00 00 80 00 00 00 80 00 00 00 00 80 00 00 00 80 00 00 00 00 80 00
# ReportID: 1 / X:  129 | Y:  124 | Z:  122 | Rz:  125 | Hat switch:   8 | Button: 0  0  0  0  0  0  0  0  0  0  0  0  0  0 | 0xff000020:  10 | Rx:    0 | Ry:    0 | 0xff000021:  220 ,   58 ,    4 ,  243 ,  255 ,  253 ,  255 ,  232 ,  255 ,  232 ,  255 ,   48 ,   31 ,   64 ,    7 ,    0 ,    0 ,    0 ,    0 ,    0 ,   24 ,    0 ,    0 ,    1 ,   69 ,  129 ,  118 ,  115 ,   17 ,  128 ,    0 ,    0 ,    0 ,    0 ,  128 ,    0 ,    0 ,    0 ,  128 ,    0 ,    0 ,    0 ,    0 ,  128 ,    0 ,    0 ,    0 ,  128 ,    0 ,    0 ,    0 ,    0 ,  128 ,    0 
E: 000000.125187 64 01 81 7c 7a 7d 08 00 28 00 00 dc 3a 04 f3 ff fd ff e8 ff e8 ff 30 1f 40 07 00 00 00 00 00 18 00 00 01 45 81 76 73 11 80 00 00 00 00 80 00 00 00 80 00 00 00 00 80 00 00 00 80 00 00 00 00 80 00
# ReportID: 1 / X:  129 | Y:  123 | Z:  121 | Rz:  126 | Hat switch:   8 | Button: 0  0  0  0  0  0  0  0  0  0  0  0  0  0 | 0xff000020:  11 | Rx:    0 | Ry:    0 | 0xff000021:  201 ,   61 ,    4 ,  241 ,  255 ,  253 ,  255 ,  229 ,  255 ,  246 ,  255 ,   36 ,   31 ,   64 ,    7 ,    0 ,    0 ,    0 ,    0 ,    0 ,   24 ,    0 ,    0 ,    1 ,   69 ,  129 ,  118 ,  115 ,   17 ,  128 ,    0 ,    0 ,    0 ,    0 ,  128 ,    0 ,    0 ,    0 ,  128 ,    0 ,    0 ,    0 ,    0 ,  128 ,    0 ,    0 ,    0 ,  128 ,    0 ,    0 ,    0 ,    0 ,  128 ,    0 
E: 000000.129381 64 01 81 7b 79 7e 08 00 2c 00 00 c9 3d 04 f1 ff fd ff e5 ff f6 ff 24 1f 40 07 00 00 00 00 00 18 00 00 01 45 81 76 73 11 80 00 00 00 00 80 00 00 00 80 00 00 00 00 80 00 00 00 80 00 00 00 00 80 00
# ReportID: 1 / X:  129 | Y:  124 | Z:  121 | Rz:  126 | Hat switch:   8 | Button: 0  0  0  0  0  0  0  0  0  0  0  0  0  0 | 0xff000020:  12 | Rx:    0 | Ry:    0 | 0xff000021:  182 ,   64 ,    4 ,  243 ,  255 ,  253 ,  255 ,  231 ,  255 ,  236 ,  255 ,   32 ,   31 ,   38 ,    7 ,    0 ,    0 ,    0 ,    0 ,    0 ,   24 ,    0 ,    0 ,    1 ,   69 ,  129 ,  118 ,  115 ,   17 ,  128 ,    0 ,    0 ,    0 ,    0 ,  128 ,    0 ,    0 ,    0 ,  128 ,    0 ,    0 ,    0 ,    0 ,  128 ,    0 ,    0 ,    0 ,  128 ,    0 ,    0 ,    0 ,    0 ,  128 ,    0 
E: 000000.133359 64 01 81 7c 79 7e 08 00 30 00 00 b6 40 04 f3 ff fd ff e7 ff ec ff 20 1f 26 07 00 00 00 00 00 18 00 00 01 45 81 76 73 11 80 00 00 00 00 80 00 00 00 80 00 00 00 00 80 00 00 00 80 00 00 00 00 80 00
# ReportID: 1 / X:  129 | Y:  123 | Z:  121 | Rz:  125 | Hat switch:   8 | Button: 0  0  0  0  0  0  0  0  0  0  0  0  0  0 | 0xff000020:  13 | Rx:    0 | Ry:    0 | 0xff000021:  163 ,   67 ,    4 ,  241 ,  255 ,  255 ,  255 ,  230 ,  255 ,  234 ,  255 ,   34 ,   31 ,   68 ,    7 ,    0 ,    0 ,    0 ,    0 ,    0 ,   24 ,    0 ,    0 ,    1 ,   69 ,  129 ,  118 ,  115 ,   17 ,  128 ,    0 ,    0 ,    0 ,    0 ,  128 ,    0 ,    0 ,    0 ,  128 ,    0 ,    0 ,    0 ,    0 ,  128 ,    0 ,    0 ,    0 ,  128 ,    0 ,    0 ,    0 ,    0 ,  128 ,    0 
E: 000000.137364 64 01 81 7b 79 7d 08 00 34 00 00 a3 43 04 f1 ff ff ff e6 ff ea ff 22 1f 44 07 00 00 00 00 00 18 00 00 01 45 81 76 73 11 80 00 00 00 00 80 00 00 00 80 00 00 00 00 80 00 00 00 80 00 00 00 00 80 00
# ReportID: 1 / X:  129 | Y:  124 | Z:  122 | Rz:  125 | Hat switch:   8 | Button: 0  0  0  0  0  0  0  0  0  0  0  0  0  0 | 0xff000020:  14 | Rx:    0 | Ry:    0 | 0xff000021:  144 ,   70 ,    4 ,  241 ,  255 ,  253 ,  255 ,  231 ,  255 ,  223 ,  255 ,   37 ,   31 ,   45 ,    7 ,    0 ,    0 ,    0 ,    0 ,    0 ,   24 ,    0 ,    0 ,    1 ,   69 ,  129 ,  118 ,  115 ,   17 ,  128 ,    0 ,    0 ,    0 ,    0 ,  128 ,    0 ,    0 ,    0 ,  128 ,    0 ,    0 ,    0 ,    0 ,  128 ,    0 ,    0 ,    0 ,  128 ,    0 ,    0 ,    0 ,    0 ,  128 ,    0 
E: 000000.141367 64 01 81 7c 7a 7d 08 00 38 00 00 90 46 04 f1 ff fd ff e7 ff df ff 25 1f 2d 07 00 00 00 00 00 18 00 00 01 45 81 76 73 11 80 00 00 00 00 80 00 00 00 80 00 00 00 00 80 00 00 00 80 00 00 00 00 80 00
# ReportID: 1 / X:  129 | Y:  124 | Z:  122 | Rz:  125 | Hat switch:   8 | Button: 0  0  0  0  0  0  0  0  0  0  0  0  0  0 | 0xff000020:  15 | Rx:    0 | Ry:    0 | 0xff000021:  125 ,   73 ,    4 ,  242 ,  255 ,  255 ,  255 ,  230 ,  255 ,  231 ,  255 ,   60 ,   31 ,   63 ,    7 ,    0 ,    0 ,    0 ,    0 ,    0 ,   24 ,    0 ,    0 ,    1 ,   69 ,  129 ,  118 ,  115 ,   17 ,  128 ,    0 ,    0 ,    0 ,    0 ,  128 ,    0 ,    0 ,    0 ,  128 ,    0 ,    0 ,    0 ,    0 ,  128 ,    0 ,    0 ,    0 ,  128 ,    0 ,    0 ,    0 ,    0 ,  128 ,    0 
E: 000000.145366 64 01 81 7c 7a 7d 08 00 3c 00 00 7d 49 04 f2 ff ff ff e6 ff e7 ff 3c 1f 3f 07 00 00 00 00 00 18 00 00 01 45 81 76 73 11 80 00 00 00 00 80 00 00 00 80 00 00 00 00 80 00 00 00 80 00 00 00 00 80 00
# ReportID: 1 / X:  129 | Y:  123 | Z:  121 | Rz:  125 | Hat switch:   8 | Button: 0  0  0  0  0  0  0  0  0  0  0  0  0  0 | 0xff000020:  16 | Rx:    0 | Ry:    0 | 0xff000021:  106 ,   76 ,    4 ,  242 ,  255 ,  255 ,  255 ,  230 ,  255 ,  242 ,  255 ,   45 ,   31 ,   64 ,    7 ,    0 ,    0 ,    0 ,    0 ,    0 ,   24 ,    0 ,    0 ,    1 ,   69 ,  129 ,  118 ,  115 ,   17 ,  128 ,    0 ,    0 ,    0 ,    0 ,  128 ,    0 ,    0 ,    0 ,  128 ,    0 ,    0 ,    0 ,    0 ,  128 ,    0 ,    0 ,    0 ,  128 ,    0 ,    0 ,    0 ,    0 ,  128 ,    0 
E: 000000.149367 64 01 81 7b 79 7d 08 00 40 00 00 6a 4c 04 f2 ff ff ff e6 ff f2 ff 2d 1f 40 07 00 00 00 00 00 18 00 00 01 45 81 76 73 11 80 00 00 00 00 80 00 00 00 80 00 00 00 00 80 00 00 00 80 00 00 00 00 80 00
# ReportID: 1 / X:  129 | Y:  124 | Z:  122 | Rz:  125 | Hat switch:   8 | Button: 0  0  0  0  0  0  0  0  0  0  0  0  0  0 | 0xff000020:  17 | Rx:    0 | Ry:    0 | 0xff000021:   87 ,   79 ,    4 ,  242 ,  255 ,  253 ,  255 ,  230 ,  255 ,  250 ,  255 ,   38 ,   31 ,   45 ,    7 ,    0 ,    0 ,    0 ,    0 ,    0 ,   24 ,    0 ,    0 ,    1 ,   69 ,  129 ,  118 ,  115 ,   17 ,  128 ,    0 ,    0 ,    0 ,    0 ,  128 ,    0 ,    0 ,    0 ,  128 ,    0 ,    0 ,    0 ,    0 ,  128 ,    0 ,    0 ,    0 ,  128 ,    0 ,    0 ,    0 ,    0 ,  128 ,    0 
E: 000000.153172 64 01 81 7c 7a 7d 08 00 44 00 00 57 4f 04 f2 ff fd ff e6 ff fa ff 26 1f 2d 07 00 00 00 00 00 18 00 00 01 45 81 76 73 11 80 00 00 00 00 80 00 00 00 80 00 00 00 00 80 00 00 00 80 00 00 00 00 80 00
# ReportID: 1 / X:  129 | Y:  124 | Z:  122 | Rz:  125 | Hat switch:   8 | Button: 0  0  0  0  0  0  0  0  0  0  0  0  0  0 | 0xff000020:  18 | Rx:    0 | Ry:    0 | 0xff000021:   68 ,   82 ,    4 ,  241 ,  255 ,  254 ,  255 ,  229 ,  255 ,  236 ,  255 ,   41 ,   31 ,   55 ,    7 ,    0 ,    0 ,    0 ,    0 ,    0 ,   24 ,    0 ,    0 ,    1 ,   69 ,  129 ,  118 ,  115 ,   17 ,  128 ,    0 ,    0 ,    0 ,    0 ,  128 ,    0 ,    0 ,    0 ,  128 ,    0 ,    0 ,    0 ,    0 ,  128 ,    0 ,    0 ,    0 ,  128 ,    0 ,    0 ,    0 ,    0 ,  128 ,    0 
E: 000000.157182 64 01 81 7c 7a 7d 08 00 48 00 00 44 52 04 f1 ff fe ff e5 ff ec ff 29 1f 37 07 00 00 00 00 00 18 00 00 01 45 81 76 73 11 80 00 00 00 00 80 00 00 00 80 00 00 00 00 80 00 00 00 80 00 00 00 00 80 00
# ReportID: 1 / X:  129 | Y:  124 | Z:  122 | Rz:  125 | Hat switch:   8 | Button: 0  0  0  0  0  0  0  0  0  0  0  0  0  0 | 0xff000020:  19 | Rx:    0 | Ry:    0 | 0xff000021:   49 ,   85 ,    4 ,  241 ,  255 ,  253 ,  255 ,  230 ,  255 ,  226 ,  255 ,   45 ,   31 ,   53 ,    7 ,    0 ,    0 ,    0 ,    0 ,    0 ,   24 ,    0 ,    0 ,    1 ,   69 ,  129 ,  118 ,  115 ,   17 ,  128 ,    0 ,    0 ,    0 ,    0 ,  128 ,    0 ,    0 ,    0 ,  128 ,    0 ,    0 ,    0 ,    0 ,  128 ,    0 ,    0 ,    0 ,  128 ,    0 ,    0 ,    0 ,    0 ,  128 ,    0 
E: 000000.161187 64 01 81 7c 7a 7d 08 00 4c 00 00 31 55 04 f1 ff fd ff e6 ff e2 ff 2d 1f 35 07 00 00 00 00 00 18 00 00 01 45 81 76 73 11 80 00 00 00 00 80 00 00 00 80 00 00 00 00 80 00 00 00 80 00 00 00 00 80 00
# ReportID: 1 / X:  129 | Y:  123 | Z:  121 | Rz:  126 | Hat switch:   8 | Button: 0  0  0  0  0  0  0  0  0  0  0  0  0  0 | 0xff000020:  20 | Rx:    0 | Ry:    0 | 0xff000021:   30 ,   88 ,    4 ,  241 ,  255 ,  253 ,  255 ,  229 ,  255 ,  221 ,  255 ,   61 ,   31 ,   54 ,    7 ,    0 ,    0 ,    0 ,    0 ,    0 ,   24 ,    0 ,    0 ,    1 ,   69 ,  129 ,  118 ,  115 ,   17 ,  128 ,    0 ,    0 ,    0 ,    0 ,  128 ,    0 ,    0 ,    0 ,  128 ,    0 ,    0 ,    0 ,    0 ,  128 ,    0 ,    0 ,    0 ,  128 ,    0 ,    0 ,    0 ,    0 ,  128 ,    0 
E: 000000.165391 64 01 81 7b 79 7e 08 00 50 00 00 1e 58 04 f1 ff fd ff e5 ff dd ff 3d 1f 36 07 00 00 00 00 00 18 00 00 01 45 81 76 73 11 80 00 00 00 00 80 00 00 00 80 00 00 00 00 80 00 00 00 80 00 00 00 00 80 00
# ReportID: 1 / X:  129 | Y:  124 | Z:  122 | Rz:  126 | Hat switch:   8 | Button: 0  0  0  0  0  0  0  0  0  0  0  0  0  0 | 0xff000020:  21 | Rx:    0 | Ry:    0 | 0xff000021:   11 ,   91 ,    4 ,  241 ,  255 ,  255 ,  255 ,  229 ,  255 ,  213 ,  255 ,   46 ,   31 ,   57 ,    7 ,    0 ,    0 ,    0 ,    0 ,    0 ,   24 ,    0 ,    0 ,    1 ,   69 ,  129 ,  118 ,  115 ,   17 ,  128 ,    0 ,    0 ,    0 ,    0 ,  128 ,    0 ,    0 ,    0 ,  128 ,    0 ,    0 ,    0 ,    0 ,  128 ,    0 ,    0 ,    0 ,  128 ,    0 ,    0 ,    0 ,    0 ,  128 ,    0 
E: 000000.169365 64 01 81 7c 7a 7e 08 00 54 00 00 0b 5b 04 f1 ff ff ff e5 ff d5 ff 2e 1f 39 07 00 00 00 00 00 18 00 00 01 45 81 76 73 11 80 00 00 00 00 80 00 00 00 80 00 00 00 00 80 00 00 00 80 00 00 00 00 80 00
# ReportID: 1 / X:  129 | Y:  124 | Z:  121 | Rz:  125 | Hat switch:   8 | Button: 0  0  0  0  0  0  0  0  0  0  0  0  0  0 | 0xff000020:  22 | Rx:    0 | Ry:    0 | 0xff000021:  248 ,   93 ,    4 ,  240 ,  255 ,  253 ,  255 ,  229 ,  255 ,  211 ,  255 ,   50 ,   31 ,   49 ,    7 ,    0 ,    0 ,    0 ,    0 ,    0 ,   24 ,    0 ,    0 ,    1 ,   69 ,  129 ,  118 ,  115 ,   17 ,  128 ,    0 ,    0 ,    0 ,    0 ,  128 ,    0 ,    0 ,    0 ,  128 ,    0 ,    0 ,    0 ,    0 ,  128 ,    0 ,    0 ,    0 ,  128 ,    0 ,    0 ,    0 ,    0 ,  128 ,    0 
E: 000000.173356 64 01 81 7c 79 7d 08 00 58 00 00 f8 5d 04 f0 ff fd ff e5 ff d3 ff 32 1f 31 07 00 00 00 00 00 18 00 00 01 45 81 76 73 11 80 00 00 00 00 80 00 00 00 80 00 00 00 00 80 00 00 00 80 00 00 00 00 80 00
# ReportID: 1 / X:  129 | Y:  123 | Z:  122 | Rz:  125 | Hat switch:   8 | Button: 0  0  0  0  0  0  0  0  0  0  0  0  0  0 | 0xff000020:  23 | Rx:    0 | Ry:    0 | 0xff000021:  229 ,   96 ,    4 ,  242 ,  255 ,  254 ,  255 ,  230 ,  255 ,  227 ,  255 ,   48 ,   31 ,   64 ,    7 ,    0 ,    0 ,    0 ,    0 ,    0 ,   24 ,    0 ,    0 ,    1 ,   69 ,  129 ,  118 ,  115 ,   17 ,  128 ,    0 ,    0 ,    0 ,    0 ,  128 ,    0 ,    0 ,    0 ,  128 ,    0 ,    0 ,    0 ,    0 ,  128 ,    0 ,    0 ,    0 ,  128 ,    0 ,    0 ,    0 ,    0 ,  128 ,    0 
E: 000000.177211 64 01 81 7b 7a 7d 08 00 5c 00 00 e5 60 04 f2 ff fe ff e6 ff e3 ff 30 1f 40 07 00 00 00 00 00 18 00 00 01 45 81 76 73 11 80 00 00 00 00 80 00 00 00 80 00 00 00 00 80 00 00 00 80 00 00 00 00 80 00
# ReportID: 1 / X:  129 | Y:  124 | Z:  122 | Rz:  126 | Hat switch:   8 | Button: 0  0  0  0  0  0  0  0  0  0  0  0  0  0 | 0xff000020:  24 | Rx:    0 | Ry:    0 | 0xff000021:  210 ,   99 ,    4 ,  241 ,  255 ,  252 ,  255 ,  231 ,  255 ,  222 ,  255 ,   38 ,   31 ,   61 ,    7 ,    0 ,    0 ,    0 ,    0 ,    0 ,   24 ,    0 ,    0 ,    1 ,   69 ,  129 ,  118 ,  115 ,   17 ,  128 ,    0 ,    0 ,    0 ,    0 ,  128 ,    0 ,    0 ,    0 ,  128 ,    0 ,    0 ,    0 ,    0 ,  128 ,    0 ,    0 ,    0 ,  128 ,    0 ,    0 ,    0 ,    0 ,  128 ,    0 
E: 000000.181176 64 01 81 7c 7a 7e 08 00 60 00 00 d2 63 04 f1 ff fc ff e7 ff de ff 26 1f 3d 07 00 00 00 00 00 18 00 00 01 45 81 76 73 11 80 00 00 00 00 80 00 00 00 80 00 00 00 00 80 00 00 00 80 00 00 00 00 80 00
# ReportID: 1 / X:  129 | Y:  124 | Z:  122 | Rz:  126 | Hat switch:   8 | Button: 0  0  0  0  0  0  0  0  0  0  0  0  0  0 | 0xff000020:  25 | Rx:    0 | Ry:    0 | 0xff000021:  191 ,  102 ,    4 ,  241 ,  255 ,  254 ,  255 ,  230 ,  255 ,  227 ,  255 ,   46 ,   31 ,   79 ,    7 ,    0 ,    0 ,    0 ,    0 ,    0 ,   24 ,    0 ,    0 ,    1 ,   69 ,  129 ,  118 ,  115 ,   17 ,  128 ,    0 ,    0 ,    0 ,    0 ,  128 ,    0 ,    0 ,    0 ,  128 ,    0 ,    0 ,    0 ,    0 ,  128 ,    0 ,    0 ,    0 ,  128 ,    0 ,    0 ,    0 ,    0 ,  128 ,    0 
E: 000000.185172 64 01 81 7c 7a 7e 08 00 64 00 00 bf 66 04 f1 ff fe ff e6 ff e3 ff 2e 1f 4f 07 00 00 00 00 00 18 00 00 01 45 81 76 73 11 80 00 00 00 00 80 00 00 00 80 00 00 00 00 80 00 00 00 80 00 00 00 00 80 00
# ReportID: 1 / X:  129 | Y:  124 | Z:  122 | Rz:  126 | Hat switch:   8 | Button: 0  0  0  0  0  0  0  0  0  0  0  0  0  0 | 0xff000020:  26 | Rx:    0 | Ry:    0 | 0xff000021:  172 ,  105 ,    4 ,  241 ,  255 ,  254 ,  255 ,  231 ,  255 ,  240 ,  255 ,   30 ,   31 ,   74 ,    7 ,    0 ,    0 ,    0 ,    0 ,    0 ,   24 ,    0 ,    0 ,    1 ,   69 ,  129 ,  118 ,  115 ,   17 ,  128 ,    0 ,    0 ,    0 ,    0 ,  128 ,    0 ,    0 ,    0 ,  128 ,    0 ,    0 ,    0 ,    0 ,  128 ,    0 ,    0 ,    0 ,  128 ,    0 ,    0 ,    0 ,    0 ,  128 ,    0 
E: 000000.189382 64 01 81 7c 7a 7e 08 00 68 00 00 ac 69 04 f1 ff fe ff e7 ff f0 ff 1e 1f 4a 07 00 00 00 00 00 18 00 00 01 45 81 76 73 11 80 00 00 00 00 80 00 00 00 80 00 00 00 00 80 00 00 00 80 00 00 00 00 80 00
# ReportID: 1 / X:  129 | Y:  124 | Z:  122 | Rz:  126 | Hat switch:   8 | Button: 0  0  0  0  0  0  0  0  0  0  0  0  0  0 | 0xff000020:  27 | Rx:    0 | Ry:    0 | 0xff000021:  153 ,  108 ,    4 ,  242 ,  255 ,  254 ,  255 ,  230 ,  255 ,  243 ,  255 ,   41 ,   31 ,   75 ,    7 ,    0 ,    0 ,    0 ,    0 ,    0 ,   24 ,    0 ,    0 ,    1 ,   69 ,  129 ,  118 ,  115 ,   17 ,  128 ,    0 ,    0 ,    0 ,    0 ,  128 ,    0 ,    0 ,    0 ,  128 ,    0 ,    0 ,    0 ,    0 ,  128 ,    0 ,    0 ,    0 ,  128 ,    0 ,    0 ,    0 ,    0 ,  128 ,    0 
E: 000000.193373 64 01 81 7c 7a 7e 08 00 6c 00 00 99 6c 04 f2 ff fe ff e6 ff f3 ff 29 1f 4b 07 00 00 00 00 00 18 00 00 01 45 81 76 73 11 80 00 00 00 00 80 00 00 00 80 00 00 00 00 80 00 00 00 80 00 00 00 00 80 00
# ReportID: 1 / X:  129 | Y:  124 | Z:  122 | Rz:  126 | Hat switch:   8 | Button: 0  0  0  0  0  0  0  0  0  0  0  0  0  0 | 0xff000020:  28 | Rx:    0 | Ry:    0 | 0xff000021:  134 ,  111 ,    4 ,  241 ,  255 ,  252 ,  255 ,  229 ,  255 ,  237 ,  255 ,   28 ,   31 ,   84 ,    7 ,    0 ,    0 ,    0 ,    0 ,    0 ,   24 ,    0 ,    0 ,    1 ,   69 ,  129 ,  118 ,  115 ,   17 ,  128 ,    0 ,    0 ,    0 ,    0 ,  128 ,    0 ,    0 ,    0 ,  128 ,    0 ,    0 ,    0 ,    0 ,  128 ,    0 ,    0 ,    0 ,  128 ,    0 ,    0 ,    0 ,    0 ,  128 ,    0 
E: 000000.197182 64 01 81 7c 7a 7e 08 00 70 00 00 86 6f 04 f1 ff fc ff e5 ff ed ff 1c 1f 54 07 00 00 00 00 00 18 00 00 01 45 81 76 73 11 80 00 00 00 00 80 00 00 00 80 00 00 00 00 80 00 00 00 80 00 00 00 00 80 00
# ReportID: 1 / X:  129 | Y:  123 | Z:  122 | Rz:  126 | Hat switch:   8 | Button: 0  0  0  0  0  0  0  0  0  0  0  0  0  0 | 0xff000020:  29 | Rx:    0 | Ry:    0 | 0xff000021:  115 ,  114 ,    4 ,  242 ,  255 ,  254 ,  255 ,  231 ,  255 ,    2 ,    0 ,   36 ,   31 ,   79 ,    7 ,    0 ,    0 ,    0 ,    0 ,    0 ,   24 ,    0 ,    0 ,    1 ,   69 ,  129 ,  118 ,  115 ,   17 ,  128 ,    0 ,    0 ,    0 ,    0 ,  128 ,    0 ,    0 ,    0 ,  128 ,    0 ,    0 ,    0 ,    0 ,  128 ,    0 ,    0 ,    0 ,  128 ,    0 ,    0 ,    0 ,    0 ,  128 ,    0 
E: 000000.201171 64 01 81 7b 7a 7e 08 00 74 00 00 73 72 04 f2 ff fe ff e7 ff 02 00 24 1f 4f 07 00 00 00 00 00 18 00 00 01 45 81 76 73 11 80 00 00 00 00 80 00 00 00 80 00 00 00 00 80 00 00 00 80 00 00 00 00 80 00
# ReportID: 1 / X:  129 | Y:  124 | Z:  122 | Rz:  126 | Hat switch:   8 | Button: 0  0  0  0  0  0  0  0  0  0  0  0  0  0 | 0xff000020:  30 | Rx:    0 | Ry:    0 | 0xff000021:   96 ,  117 ,    4 ,  242 ,  255 ,  254 ,  255 ,  231 ,  255 ,  251 ,  255 ,   35 ,   31 ,   81 ,    7 ,    0 ,    0 ,    0 ,    0 ,    0 ,   24 ,    0 ,    0 ,    1 ,   69 ,  129 ,  118 ,  115 ,   17 ,  128 ,    0 ,    0 ,    0 ,    0 ,  128 ,    0 ,    0 ,    0 ,  128 ,    0 ,    0 ,    0 ,    0 ,  128 ,    0 ,    0 ,    0 ,  128 ,    0 ,    0 ,    0 ,    0 ,  128 ,    0 
E: 000000.205382 64 01 81 7c 7a 7e 08 00 78 00 00 60 75 04 f2 ff fe ff e7 ff fb ff 23 1f 51 07 00 00 00 00 00 18 00 00 01 45 81 76 73 11 80 00 00 00 00 80 00 00 00 80 00 00 00 00 80 00 00 00 80 00 00 00 00 80 00
# ReportID: 1 / X:  129 | Y:  124 | Z:  122 | Rz:  126 | Hat switch:   8 | Button: 0  0  0  0  0  0  0  0  0  0  0  0  0  0 | 0xff000020:  31 | Rx:    0 | Ry:    0 | 0xff000021:   77 ,  120 ,    4 ,  243 ,  255 ,  253 ,  255 ,  231 ,  255 ,  248 ,  255 ,   29 ,   31 ,   72 ,    7 ,    0 ,    0 ,    0 ,    0 ,    0 ,   24 ,    0 ,    0 ,    1 ,   69 ,  129 ,  118 ,  115 ,   17 ,  128 ,    0 ,    0 ,    0 ,    0 ,  128 ,    0 ,    0 ,    0 ,  128 ,    0 ,    0 ,    0 ,    0 ,  128 ,    0 ,    0 ,    0 ,  128 ,    0 ,    0 ,    0 ,    0 ,  128 ,    0 
E: 000000.209380 64 01 81 7c 7a 7e 08 00 7c 00 00 4d 78 04 f3 ff fd ff e7 ff f8 ff 1d 1f 48 07 00 00 00 00 00 18 00 00 01 45 81 76 73 11 80 00 00 00 00 80 00 00 00 80 00 00 00 00 80 00 00 00 80 00 00 00 00 80 00
# ReportID: 1 / X:  129 | Y:  124 | Z:  122 | Rz:  126 | Hat switch:   8 | Button: 0  0  0  0  0  0  0  0  0  0  0  0  0  0 | 0xff000020:  32 | Rx:    0 | Ry:    0 | 0xff000021:   58 ,  123 ,    4 ,  242 ,  255 ,  254 ,  255 ,  230 ,  255 ,  229 ,  255 ,   31 ,   31 ,   75 ,    7 ,    0 ,    0 ,    0 ,    0 ,    0 ,   24 ,    0 ,    0 ,    1 ,   69 ,  129 ,  118 ,  115 ,   17 ,  128 ,    0 ,    0 ,    0 ,    0 ,  128 ,    0 ,    0 ,    0 ,  128 ,    0 ,    0 ,    0 ,    0 ,  128 ,    0 ,    0 ,    0 ,  128 ,    0 ,    0 ,    0 ,    0 ,  128 ,    0 
E: 000000.213371 64 01 81 7c 7a 7e 08 00 80 00 00 3a 7b 04 f2 ff fe ff e6 ff e5 ff 1f 1f 4b 07 00 00 00 00 00 18 00 00 01 45 81 76 73 11 80 00 00 00 00 80 00 00 00 80 00 00 00 00 80 00 00 00 80 00 00 00 00 80 00
# ReportID: 1 / X:  129 | Y:  124 | Z:  122 | Rz:  125 | Hat switch:   8 | Button: 0  0  0  0  0  0  0  0  0  0  0  0  0  0 | 0xff000020:  33 | Rx:    0 | Ry:    0 | 0xff000021:   39 ,  126 ,    4 ,  242 ,  255 ,  254 ,  255 ,  231 ,  255 ,  240 ,  255 ,   35 ,   31 ,   78 ,    7 ,    0 ,    0 ,    0 ,    0 ,    0 ,   24 ,    0 ,    0 ,    1 ,   69 ,  129 ,  118 ,  115 ,   17 ,  128 ,    0 ,    0 ,    0 ,    0 ,  128 ,    0 ,    0 ,    0 ,  128 ,    0 ,    0 ,    0 ,    0 ,  128 ,    0 ,    0 ,    0 ,  128 ,    0 ,    0 ,    0 ,    0 ,  128 ,    0 
E: 000000.217368 64 01 81 7c 7a 7d 08 00 84 00 00 27 7e 04 f2 ff fe ff e7 ff f0 ff 23 1f 4e 07 00 00 00 00 00 18 00 00 01 45 81 76 73 11 80 00 00 00 00 80 00 00 00 80 00 00 00 00 80 00 00 00 80 00 00 00 00 80 00
# ReportID: 1 / X:  129 | Y:  124 | Z:  122 | Rz:  126 | Hat switch:   8 | Button: 0  0  0  0  0  0  0  0  0  0  0  0  0  0 | 0xff000020:  34 | Rx:    0 | Ry:    0 | 0xff000021:   20 ,  129 ,    4 ,  242 ,  255 ,  254 ,  255 ,  230 ,  255 ,  238 ,  255 ,   48 ,   31 ,   92 ,    7 ,    0 ,    0 ,    0 ,    0 ,    0 ,   24 ,    0 ,    0 ,    1 ,   69 ,  129 ,  118 ,  115 ,   17 ,  128 ,    0 ,    0 ,    0 ,    0 ,  128 ,    0 ,    0 ,    0 ,  128 ,    0 ,    0 ,    0 ,    0 ,  128 ,    0 ,    0 ,    0 ,  128 ,    0 ,    0 ,    0 ,    0 ,  128 ,    0 
E: 000000.221380 64 01 81 7c 7a 7e 08 00 88 00 00 14 81 04 f2 ff fe ff e6 ff ee ff 30 1f 5c 07 00 00 00 00 00 18 00 00 01 45 81 76 73 11 80 00 00 00 00 80 00 00 00 80 00 00 00 00 80 00 00 00 80 00 00 00 00 80 00
# ReportID: 1 / X:  129 | Y:  124 | Z:  122 | Rz:  126 | Hat switch:   8 | Button: 0  0  0  0  0  0  0  0  0  0  0  0  0  0 | 0xff000020:  35 | Rx:    0 | Ry:    0 | 0xff000021:    1 ,  132 ,    4 ,  241 ,  255 ,  254 ,  255 ,  229 ,  255 ,  246 ,  255 ,   44 ,   31 ,   75 ,    7 ,    0 ,    0 ,    0 ,    0 ,    0 ,   24 ,    0 ,    0 ,    1 ,   69 ,  129 ,  118 ,  115 ,   17 ,  128 ,    0 ,    0 ,    0 ,    0 ,  128 ,    0 ,    0 ,    0 ,  128 ,    0 ,    0 ,    0 ,    0 ,  128 ,    0 ,    0 ,    0 ,  128 ,    0 ,    0 ,    0 ,    0 ,  128 ,    0 
E: 000000.225185 64 01 81 7c 7a 7e 08 00 8c 00 00 01 84 04 f1 ff fe ff e5 ff f6 ff 2c 1f 4b 07 00 00 00 00 00 18 00 00 01 45 81 76 73 11 80 00 00 00 00 80 00 00 00 80 00 00 00 00 80 00 00 00 80 00 00 00 00 80 00
# ReportID: 1 / X:  129 | Y:  124 | Z:  122 | Rz:  125 | Hat switch:   8 | Button: 0  0  0  0  0  0  0  0  0  0  0  0  0  0 | 0xff000020:  36 | Rx:    0 | Ry:    0 | 0xff000021:  239 ,  134 ,    4 ,  242 ,  255 ,  253 ,  255 ,  230 ,  255 ,  232 ,  255 ,   40 ,   31 ,   66 ,    7 ,    0 ,    0 ,    0 ,    0 ,    0 ,   24 ,    0 ,    0 ,    1 ,   69 ,  129 ,  118 ,  115 ,   17 ,  128 ,    0 ,    0 ,    0 ,    0 ,  128 ,    0 ,    0 ,    0 ,  128 ,    0 ,    0 ,    0 ,    0 ,  128 ,    0 ,    0 ,    0 ,  128 ,    0 ,    0 ,    0 ,    0 ,  128 ,    0 
E: 000000.229387 64 01 81 7c 7a 7d 08 00 90 00 00 ef 86 04 f2 ff fd ff e6 ff e8 ff 28 1f 42 07 00 00 00 00 00 18 00 00 01 45 81 76 73 11 80 00 00 00 00 80 00 00 00 80 00 00 00 00 80 00 00 00 80 00 00 00 00 80 00
# ReportID: 1 / X:  129 | Y:  124 | Z:  122 | Rz:  125 | Hat switch:   8 | Button: 0  0  0  0  0  0  0  0  0  0  0  0  0  0 | 0xff000020:  37 | Rx:    0 | Ry:    0 | 0xff000021:  219 ,  137 ,    4 ,  243 ,  255 ,  254 ,  255 ,  230 ,  255 ,  231 ,  255 ,   31 ,   31 ,   72 ,    7 ,    0 ,    0 ,    0 ,    0 ,    0 ,   24 ,    0 ,    0 ,    1 ,   69 ,  129 ,  118 ,  115 ,   17 ,  128 ,    0 ,    0 ,    0 ,    0 ,  128 ,    0 ,    0 ,    0 ,  128 ,    0 ,    0 ,    0 ,    0 ,  128 ,    0 ,    0 ,    0 ,  128 ,    0 ,    0 ,    0 ,    0 ,  128 ,    0 
E: 000000.233363 64 01 81 7c 7a 7d 08 00 94 00 00 db 89 04 f3 ff fe ff e6 ff e7 ff 1f 1f 48 07 00 00 00 00 00 18 00 00 01 45 81 76 73 11 80 00 00 00 00 80 00 00 00 80 00 00 00 00 80 00 00 00 80 00 00 00 00 80 00
# ReportID: 1 / X:  129 | Y:  124 | Z:  122 | Rz:  125 | Hat switch:   8 | Button: 0  0  0  0  0  0  0  0  0  0  0  0  0  0 | 0xff000020:  38 | Rx:    0 | Ry:    0 | 0xff000021:  201 ,  140 ,    4 ,  241 ,  255 ,  255 ,  255 ,  230 ,  255 ,  228 ,  255 ,   44 ,   31 ,   90 ,    7 ,    0 ,    0 ,    0 ,    0 ,    0 ,   24 ,    0 ,    0 ,    1 ,   69 ,  129 ,  118 ,  115 ,   17 ,  128 ,    0 ,    0 ,    0 ,    0 ,  128 ,    0 ,    0 ,    0 ,  128 ,    0 ,    0 ,    0 ,    0 ,  128 ,    0 ,    0 ,    0 ,  128 ,    0 ,    0 ,    0 ,    0 ,  128 ,    0 
E: 000000.237387 64 01 81 7c 7a 7d 08 00 98 00 00 c9 8c 04 f1 ff ff ff e6 ff e4 ff 2c 1f 5a 07 00 00 00 00 00 18 00 00 01 45 81 76 73 11 80 00 00 00 00 80 00 00 00 80 00 00 00 00 80 00 00 00 80 00 00 00 00 80 00
# ReportID: 1 / X:  129 | Y:  123 | Z:  122 | Rz:  125 | Hat switch:   8 | Button: 0  0  0  0  0  0  0  0  0  0  0  0  0  0 | 0xff000020:  39 | Rx:    0 | Ry:    0 | 0xff000021:  183 ,  143 ,    4 ,  242 ,  255 ,  254 ,  255 ,  230 ,  255 ,  233 ,  255 ,   39 ,   31 ,   67 ,    7 ,    0 ,    0 ,    0 ,    0 ,    0 ,   24 ,    0 ,    0 ,    1 ,   69 ,  129 ,  118 ,  115 ,   17 ,  128 ,    0 ,    0 ,    0 ,    0 ,  128 ,    0 ,    0 ,    0 ,  128 ,    0 ,    0 ,    0 ,    0 ,  128 ,    0 ,    0 ,    0 ,  128 ,    0 ,    0 ,    0 ,    0 ,  128 ,    0 
E: 000000.241360 64 01 81 7b 7a 7d 08 00 9c 00 00 b7 8f 04 f2 ff fe ff e6 ff e9 ff 27 1f 43 07 00 00 00 00 00 18 00 00 01 45 81 76 73 11 80 00 00 00 00 80 00 00 00 80 00 00 00 00 80 00 00 00 80 00 00 00 00 80 00
# ReportID: 1 / X:  129 | Y:  124 | Z:  122 | Rz:  125 | Hat switch:   8 | Button: 0  0  0  0  0  0  0  0  0  0  0  0  0  0 | 0xff000020:  40 | Rx:    0 | Ry:    0 | 0xff000021:  165 ,  146 ,    4 ,  241 ,  255 ,  254 ,  255 ,  230 ,  255 ,  228 ,  255 ,   51 ,   31 ,   61 ,    7 ,    0 ,    0 ,    0 ,    0 ,    0 ,   24 ,    0 ,    0 ,    1 ,   69 ,  129 ,  118 ,  115 ,   17 ,  128 ,    0 ,    0 ,    0 ,    0 ,  128 ,    0 ,    0 ,    0 ,  128 ,    0 ,    0 ,    0 ,    0 ,  128 ,    0 ,    0 ,    0 ,  128 ,    0 ,    0 ,    0 ,    0 ,  128 ,    0 
E: 000000.245181 64 01 81 7c 7a 7d 08 00 a0 00 00 a5 92 04 f1 ff fe ff e6 ff e4 ff 33 1f 3d 07 00 00 00 00 00 18 00 00 01 45 81 76 73 11 80 00 00 00 00 80 00 00 00 80 00 00 00 00 80 00 00 00 80 00 00 00 00 80 00
# ReportID: 1 / X:  129 | Y:  124 | Z:  122 | Rz:  125 | Hat switch:   8 | Button: 0  0  0  0  0  0  0  0  0  0  0  0  0  0 | 0xff000020:  41 | Rx:    0 | Ry:    0 | 0xff000021:  146 ,  149 ,    4 ,  241 ,  255 ,  255 ,  255 ,  230 ,  255 ,  241 ,  255 ,   39 ,   31 ,   67 ,    7 ,    0 ,    0 ,    0 ,    0 ,    0 ,   24 ,    0 ,    0 ,    1 ,   69 ,  129 ,  118 ,  115 ,   17 ,  128 ,    0 ,    0 ,    0 ,    0 ,  128 ,    0 ,    0 ,    0 ,  128 ,    0 ,    0 ,    0 ,    0 ,  128 ,    0 ,    0 ,    0 ,  128 ,    0 ,    0 ,    0 ,    0 ,  128 ,    0 
E: 000000.249171 64 01 81 7c 7a 7d 08 00 a4 00 00 92 95 04 f1 ff ff ff e6 ff f1 ff 27 1f 43 07 00 00 00 00 00 18 00 00 01 45 81 76 73 11 80 00 00 00 00 80 00 00 00 80 00 00 00 00 80 00 00 00 80 00 00 00 00 80 00
# ReportID: 1 / X:  129 | Y:  124 | Z:  122 | Rz:  125 | Hat switch:   8 | Button: 0  0  0  0  0  0  0  0  0  0  0  0  0  0 | 0xff000020:  42 | Rx:    0 | Ry:    0 | 0xff000021:  126 ,  152 ,    4 ,  241 ,  255 ,  254 ,  255 ,  230 ,  255 ,  239 ,  255 ,   46 ,   31 ,   87 ,    7 ,    0 ,    0 ,    0 ,    0 ,    0 ,   24 ,    0 ,    0 ,    1 ,   69 ,  129 ,  118 ,  115 ,   17 ,  128 ,    0 ,    0 ,    0 ,    0 ,  128 ,    0 ,    0 ,    0 ,  128 ,    0 ,    0 ,    0 ,    0 ,  128 ,    0 ,    0 ,    0 ,  128 ,    0 ,    0 ,    0 ,    0 ,  128 ,    0 
E: 000000.253188 64 01 81 7c 7a 7d 08 00 a8 00 00 7e 98 04 f1 ff fe ff e6 ff ef ff 2e 1f 57 07 00 00 00 00 00 18 00 00 01 45 81 76 73 11 80 00 00 00 00 80 00 00 00 80 00 00 00 00 80 00 00 00 80 00 00 00 00 80 00
# ReportID: 1 / X:  129 | Y:  124 | Z:  122 | Rz:  125 | Hat switch:   8 | Button: 0  0  0  0  0  0  0  0  0  0  0  0  0  0 | 0xff000020:  43 | Rx:    0 | Ry:    0 | 0xff000021:  107 ,  155 ,    4 ,  243 ,  255 ,  253 ,  255 ,  230 ,  255 ,  229 ,  255 ,   42 ,   31 ,   73 ,    7 ,    0 ,    0 ,    0 ,    0 ,    0 ,   24 ,    0 ,    0 ,    1 ,   69 ,  129 ,  118 ,  115 ,   17 ,  128 ,    0 ,    0 ,    0 ,    0 ,  128 ,    0 ,    0 ,    0 ,  128 ,    0 ,    0 ,    0 ,    0 ,  128 ,    0 ,    0 ,    0 ,  128 ,    0 ,    0 ,    0 ,    0 ,  128 ,    0 
E: 000000.257397 64 01 81 7c 7a 7d 08 00 ac 00 00 6b 9b 04 f3 ff fd ff e6 ff e5 ff 2a 1f 49 07 00 00 00 00 00 18 00 00 01 45 81 76 73 11 80 00 00 00 00 80 00 00 00 80 00 00 00 00 80 00 00 00 80 00 00 00 00 80 00
# ReportID: 1 / X:  129 | Y:  124 | Z:  122 | Rz:  125 | Hat switch:   8 | Button: 0  0  0  0  0  0  0  0  0  0  0  0  0  0 | 0xff000020:  44 | Rx:    0 | Ry:    0 | 0xff000021:   86 ,  158 ,    4 ,  241 ,  255 ,  254 ,  255 ,  230 ,  255 ,  250 ,  255 ,   31 ,   31 ,   81 ,    7 ,    0 ,    0 ,    0 ,    0 ,    0 ,   24 ,    0 ,    0 ,    1 ,   69 ,  129 ,  118 ,  115 ,   17 ,  128 ,    0 ,    0 ,    0 ,    0 ,  128 ,    0 ,    0 ,    0 ,  128 ,    0 ,    0 ,    0 ,    0 ,  128 ,    0 ,    0 ,    0 ,  128 ,    0 ,    0 ,    0 ,    0 ,  128 ,    0 
E: 000000.261185 64 01 81 7c 7a 7d 08 00 b0 00 00 56 9e 04 f1 ff fe ff e6 ff fa ff 1f 1f 51 07 00 00 00 00 00 18 00 00 01 45 81 76 73 11 80 00 00 00 00 80 00 00 00 80 00 00 00 00 80 00 00 00 80 00 00 00 00 80 00
# ReportID: 1 / X:  129 | Y:  124 | Z:  122 | Rz:  125 | Hat switch:   8 | Button: 0  0  0  0  0  0  0  0  0  0  0  0  0  0 | 0xff000020:  45 | Rx:    0 | Ry:    0 | 0xff000021:   67 ,  161 ,    4 ,  242 ,  255 ,  254 ,  255 ,  231 ,  255 ,  244 ,  255 ,   44 ,   31 ,   60 ,    7 ,    0 ,    0 ,    0 ,    0 ,    0 ,   24 ,    0 ,    0 ,    1 ,   69 ,  129 ,  118 ,  115 ,   17 ,  128 ,    0 ,    0 ,    0 ,    0 ,  128 ,    0 ,    0 ,    0 ,  128 ,    0 ,    0 ,    0 ,    0 ,  128 ,    0 ,    0 ,    0 ,  128 ,    0 ,    0 ,    0 ,    0 ,  128 ,    0 
E: 000000.265374 64 01 81 7c 7a 7d 08 00 b4 00 00 43 a1 04 f2 ff fe ff e7 ff f4 ff 2c 1f 3c 07 00 00 00 00 00 18 00 00 01 45 81 76 73 11 80 00 00 00 00 80 00 00 00 80 00 00 00 00 80 00 00 00 80 00 00 00 00 80 00
# ReportID: 1 / X:  129 | Y:  124 | Z:  122 | Rz:  125 | Hat switch:   8 | Button: 0  0  0  0  0  0  0  0  0  0  0  0  0  0 | 0xff000020:  46 | Rx:    0 | Ry:    0 | 0xff000021:   48 ,  164 ,    4 ,  241 ,  255 ,  255 ,  255 ,  229 ,  255 ,  237 ,  255 ,   50 ,   31 ,   62 ,    7 ,    0 ,    0 ,    0 ,    0 ,    0 ,   24 ,    0 ,    0 ,    1 ,   69 ,  129 ,  118 ,  115 ,   17 ,  128 ,    0 ,    0 ,    0 ,    0 ,  128 ,    0 ,    0 ,    0 ,  128 ,    0 ,    0 ,    0 ,    0 ,  128 ,    0 ,    0 ,    0 ,  128 ,    0 ,    0 ,    0 ,    0 ,  128 ,    0 
E: 000000.269386 64 01 81 7c 7a 7d 08 00 b8 00 00 30 a4 04 f1 ff ff ff e5 ff ed ff 32 1f 3e 07 00 00 00 00 00 18 00 00 01 45 81 76 73 11 80 00 00 00 00 80 00 00 00 80 00 00 00 00 80 00 00 00 80 00 00 00 00 80 00
# ReportID: 1 / X:  129 | Y:  124 | Z:  122 | Rz:  126 | Hat switch:   8 | Button: 0  0  0  0  0  0  0  0  0  0  0  0  0  0 | 0xff000020:  47 | Rx:    0 | Ry:    0 | 0xff000021:   29 ,  167 ,    4 ,  242 ,  255 ,  253 ,  255 ,  230 ,  255 ,  249 ,  255 ,   51 ,   31 ,   59 ,    7 ,    0 ,    0 ,    0 ,    0 ,    0 ,   24 ,    0 ,    0 ,    1 ,   69 ,  129 ,  118 ,  115 ,   17 ,  128 ,    0 ,    0 ,    0 ,    0 ,  128 ,    0 ,    0 ,    0 ,  128 ,    0 ,    0 ,    0 ,    0 ,  128 ,    0 ,    0 ,    0 ,  128 ,    0 ,    0 ,    0 ,    0 ,  128 ,    0 
E: 000000.273363 64 01 81 7c 7a 7e 08 00 bc 00 00 1d a7 04 f2 ff fd ff e6 ff f9 ff 33 1f 3b 07 00 00 00 00 00 18 00 00 01 45 81 76 73 11 80 00 00 00 00 80 00 00 00 80 00 00 00 00 80 00 00 00 80 00 00 00 00 80 00
# ReportID: 1 / X:  129 | Y:  124 | Z:  122 | Rz:  126 | Hat switch:   8 | Button: 0  0  0  0  0  0  0  0  0  0  0  0  0  0 | 0xff000020:  48 | Rx:    0 | Ry:    0 | 0xff000021:   10 ,  170 ,    4 ,  242 ,  255 ,  255 ,  255 ,  230 ,  255 ,  234 ,  255 ,   49 ,   31 ,   62 ,    7 ,    0 ,    0 ,    0 ,    0 ,    0 ,   24 ,    0 ,    0 ,    1 ,   69 ,  129 ,  118 ,  115 ,   17 ,  128 ,    0 ,    0 ,    0 ,    0 ,  128 ,    0 ,    0 ,    0 ,  128 ,    0 ,    0 ,    0 ,    0 ,  128 ,    0 ,    0 ,    0 ,  128 ,    0 ,    0 ,    0 ,    0 ,  128 ,    0 
E: 000000.277185 64 01 81 7c 7a 7e 08 00 c0 00 00 0a aa 04 f2 ff ff ff e6 ff ea ff 31 1f 3e 07 00 00 00 00 00 18 00 00 01 45 81 76 73 11 80 00 00 00 00 80 00 00 00 80 00 00 00 00 80 00 00 00 80 00 00 00 00 80 00
# ReportID: 1 / X:  129 | Y:  124 | Z:  122 | Rz:  126 | Hat switch:   8 | Button: 0  0  0  0  0  0  0  0  0  0  0  0  0  0 | 0xff000020:  49 | Rx:    0 | Ry:    0 | 0xff000021:  247 ,  172 ,    4 ,  242 ,  255 ,  254 ,  255 ,  232 ,  255 ,  237 ,  255 ,   39 ,   31 ,   54 ,    7 ,    0 ,    0 ,    0 ,    0 ,    0 ,   24 ,    0 ,    0 ,    1 ,   69 ,  129 ,  118 ,  115 ,   17 ,  128 ,    0 ,    0 ,    0 ,    0 ,  128 ,    0 ,    0 ,    0 ,  128 ,    0 ,    0 ,    0 ,    0 ,  128 ,    0 ,    0 ,    0 ,  128 ,    0 ,    0 ,    0 ,    0 ,  128 ,    0 
E: 000000.281183 64 01 81 7c 7a 7e 08 00 c4 00 00 f7 ac 04 f2 ff fe ff e8 ff ed ff 27 1f 36 07 00 00 00 00 00 18 00 00 01 45 81 76 73 11 80 00 00 00 00 80 00 00 00 80 00 00 00 00 80 00 00 00 80 00 00 00 00 80 00
# ReportID: 1 / X:  130 | Y:  124 | Z:  122 | Rz:  125 | Hat switch:   8 | Button: 0  0  0  0  0  0  0  0  0  0  0  0  0  0 | 0xff000020:  50 | Rx:    0 | Ry:    0 | 0xff000021:  228 ,  175 ,    4 ,  242 ,  255 ,  254 ,  255 ,  230 ,  255 ,  227 ,  255 ,   34 ,   31 ,   43 ,    7 ,    0 ,    0 ,    0 ,    0 ,    0 ,   24 ,    0 ,    0 ,    1 ,   69 ,  129 ,  118 ,  115 ,   17 ,  128 ,    0 ,    0 ,    0 ,    0 ,  128 ,    0 ,    0 ,    0 ,  128 ,    0 ,    0 ,    0 ,    0 ,  128 ,    0 ,    0 ,    0 ,  128 ,    0 ,    0 ,    0 ,    0 ,  128 ,    0 
E: 000000.285182 64 01 82 7c 7a 7d 08 00 c8 00 00 e4 af 04 f2 ff fe ff e6 ff e3 ff 22 1f 2b 07 00 00 00 00 00 18 00 00 01 45 81 76 73 11 80 00 00 00 00 80 00 00 00 80 00 00 00 00 80 00 00 00 80 00 00 00 00 80 00
# ReportID: 1 / X:  129 | Y:  124 | Z:  122 | Rz:  126 | Hat switch:   8 | Button: 0  0  0  0  0  0  0  0  0  0  0  0  0  0 | 0xff000020:  51 | Rx:    0 | Ry:    0 | 0xff000021:  209 ,  178 ,    4 ,  241 ,  255 ,  255 ,  255 ,  231 ,  255 ,  226 ,  255 ,   46 ,   31 ,   49 ,    7 ,    0 ,    0 ,    0 ,    0 ,    0 ,   24 ,    0 ,    0 ,    1 ,   69 ,  129 ,  118 ,  115 ,   17 ,  128 ,    0 ,    0 ,    0 ,    0 ,  128 ,    0 ,    0 ,    0 ,  128 ,    0 ,    0 ,    0 ,    0 ,  128 ,    0 ,    0 ,    0 ,  128 ,    0 ,    0 ,    0 ,    0 ,  128 ,    0 
E: 000000.289179 64 01 81 7c 7a 7e 08 00 cc 00 00 d1 b2 04 f1 ff ff ff e7 ff e2 ff 2e 1f 31 07 00 00 00 00 00 18 00 00 01 45 81 76 73 11 80 00 00 00 00 80 00 00 00 80 00 00 00 00 80 00 00 00 80 00 00 00 00 80 00
# ReportID: 1 / X:  129 | Y:  124 | Z:  123 | Rz:  125 | Hat switch:   8 | Button: 0  0  0  0  0  0  0  0  0  0  0  0  0  0 | 0xff000020:  52 | Rx:    0 | Ry:    0 | 0xff000021:  190 ,  181 ,    4 ,  243 ,  255 ,  254 ,  255 ,  230 ,  255 ,  231 ,  255 ,   49 ,   31 ,   47 ,    7 ,    0 ,    0 ,    0 ,    0 ,    0 ,   24 ,    0 ,    0 ,    1 ,   69 ,  129 ,  118 ,  115 ,   17 ,  128 ,    0 ,    0 ,    0 ,    0 ,  128 ,    0 ,    0 ,    0 ,  128 ,    0 ,    0 ,    0 ,    0 ,  128 ,    0 ,    0 ,    0 ,  128 ,    0 ,    0 ,    0 ,    0 ,  128 ,    0 
E: 000000.293185 64 01 81 7c 7b 7d 08 00 d0 00 00 be b5 04 f3 ff fe ff e6 ff e7 ff 31 1f 2f 07 00 00 00 00 00 18 00 00 01 45 81 76 73 11 80 00 00 00 00 80 00 00 00 80 00 00 00 00 80 00 00 00 80 00 00 00 00 80 00
# ReportID: 1 / X:  129 | Y:  124 | Z:  122 | Rz:  125 | Hat switch:   8 | Button: 0  0  0  0  0  0  0  0  0  0  0  0  0  0 | 0xff000020:  53 | Rx:    0 | Ry:    0 | 0xff000021:  103 ,  185 ,    4 ,  241 ,  255 ,  254 ,  255 ,  230 ,  255 ,  231 ,  255 ,   62 ,   31 ,   39 ,    7 ,    0 ,    0 ,    0 ,    0 ,    0 ,   24 ,    0 ,    0 ,    1 ,   69 ,  129 ,  118 ,  115 ,   17 ,  128 ,    0 ,    0 ,    0 ,    0 ,  128 ,    0 ,    0 ,    0 ,  128 ,    0 ,    0 ,    0 ,    0 ,  128 ,    0 ,    0 ,    0 ,  128 ,    0 ,    0 ,    0 ,    0 ,  128 ,    0 
E: 000000.297180 64 01 81 7c 7a 7d 08 00 d4 00 00 67 b9 04 f1 ff fe ff e6 ff e7 ff 3e 1f 27 07 00 00 00 00 00 18 00 00 01 45 81 76 73 11 80 00 00 00 00 80 00 00 00 80 00 00 00 00 80 00 00 00 80 00 00 00 00 80 00
# ReportID: 1 / X:  129 | Y:  124 | Z:  122 | Rz:  126 | Hat switch:   8 | Button: 0  0  0  0  0  0  0  0  0  0  0  0  0  0 | 0xff000020:  54 | Rx:    0 | Ry:    0 | 0xff000021:   83 ,  188 ,    4 ,  243 ,  255 ,  255 ,  255 ,  229 ,  255 ,  236 ,  255 ,   45 ,   31 ,   47 ,    7 ,    0 ,    0 ,    0 ,    0 ,    0 ,   24 ,    0 ,    0 ,    1 ,   69 ,  129 ,  118 ,  115 ,   17 ,  128 ,    0 ,    0 ,    0 ,    0 ,  128 ,    0 ,    0 ,    0 ,  128 ,    0 ,    0 ,    0 ,    0 ,  128 ,    0 ,    0 ,    0 ,  128 ,    0 ,    0 ,    0 ,    0 ,  128 ,    0 
E: 000000.301186 64 01 81 7c 7a 7e 08 00 d8 00 00 53 bc 04 f3 ff ff ff e5 ff ec ff 2d 1f 2f 07 00 00 00 00 00 18 00 00 01 45 81 76 73 11 80 00 00 00 00 80 00 00 00 80 00 00 00 00 80 00 00 00 80 00 00 00 00 80 00
# ReportID: 1 / X:  129 | Y:  123 | Z:  122 | Rz:  126 | Hat switch:   8 | Button: 0  0  0  0  0  0  0  0  0  0  0  0  0  0 | 0xff000020:  55 | Rx:    0 | Ry:    0 | 0xff000021:   64 ,  191 ,    4 ,  242 ,  255 ,  254 ,  255 ,  231 ,  255 ,  247 ,  255 ,   43 ,   31 ,   61 ,    7 ,    0 ,    0 ,    0 ,    0 ,    0 ,   24 ,    0 ,    0 ,    1 ,   69 ,  129 ,  118 ,  115 ,   17 ,  128 ,    0 ,    0 ,    0 ,    0 ,  128 ,    0 ,    0 ,    0 ,  128 ,    0 ,    0 ,    0 ,    0 ,  128 ,    0 ,    0 ,    0 ,  128 ,    0 ,    0 ,    0 ,    0 ,  128 ,    0 
E: 000000.305182 64 01 81 7b 7a 7e 08 00 dc 00 00 40 bf 04 f2 ff fe ff e7 ff f7 ff 2b 1f 3d 07 00 00 00 00 00 18 00 00 01 45 81 76 73 11 80 00 00 00 00 80 00 00 00 80 00 00 00 00 80 00 00 00 80 00 00 00 00 80 00
# ReportID: 1 / X:  129 | Y:  124 | Z:  122 | Rz:  126 | Hat switch:   8 | Button: 0  0  0  0  0  0  0  0  0  0  0  0  0  0 | 0xff000020:  56 | Rx:    0 | Ry:    0 | 0xff000021:   46 ,  194 ,    4 ,  242 ,  255 ,  254 ,  255 ,  231 ,  255 ,  236 ,  255 ,   34 ,   31 ,   44 ,    7 ,    0 ,    0 ,    0 ,    0 ,    0 ,   24 ,    0 ,    0 ,    1 ,   69 ,  129 ,  118 ,  115 ,   17 ,  128 ,    0 ,    0 ,    0 ,    0 ,  128 ,    0 ,    0 ,    0 ,  128 ,    0 ,    0 ,    0 ,    0 ,  128 ,    0 ,    0 ,    0 ,  128 ,    0 ,    0 ,    0 ,    0 ,  128 ,    0 
E: 000000.309186 64 01 81 7c 7a 7e 08 00 e0 00 00 2e c2 04 f2 ff fe ff e7 ff ec ff 22 1f 2c 07 00 00 00 00 00 18 00 00 01 45 81 76 73 11 80 00 00 00 00 80 00 00 00 80 00 00 00 00 80 00 00 00 80 00 00 00 00 80 00
# ReportID: 1 / X:  129 | Y:  124 | Z:  122 | Rz:  125 | Hat switch:   8 | Button: 0  0  0  0  0  0  0  0  0  0  0  0  0  0 | 0xff000020:  57 | Rx:    0 | Ry:    0 | 0xff000021:   28 ,  197 ,    4 ,  241 ,  255 ,  253 ,  255 ,  230 ,  255 ,  226 ,  255 ,   51 ,   31 ,   49 ,    7 ,    0 ,    0 ,    0 ,    0 ,    0 ,   24 ,    0 ,    0 ,    1 ,   69 ,  129 ,  118 ,  115 ,   17 ,  128 ,    0 ,    0 ,    0 ,    0 ,  128 ,    0 ,    0 ,    0 ,  128 ,    0 ,    0 ,    0 ,    0 ,  128 ,    0 ,    0 ,    0 ,  128 ,    0 ,    0 ,    0 ,    0 ,  128 ,    0 
E: 000000.313198 64 01 81 7c 7a 7d 08 00 e4 00 00 1c c5 04 f1 ff fd ff e6 ff e2 ff 33 1f 31 07 00 00 00 00 00 18 00 00 01 45 81 76 73 11 80 00 00 00 00 80 00 00 00 80 00 00 00 00 80 00 00 00 80 00 00 00 00 80 00
# ReportID: 1 / X:  129 | Y:  124 | Z:  122 | Rz:  125 | Hat switch:   8 | Button: 0  0  0  0  0  0  0  0  0  0  0  0  0  0 | 0xff000020:  58 | Rx:    0 | Ry:    0 | 0xff000021:   10 ,  200 ,    4 ,  241 ,  255 ,  254 ,  255 ,  230 ,  255 ,  228 ,  255 ,   49 ,   31 ,   41 ,    7 ,    0 ,    0 ,    0 ,    0 ,    0 ,   24 ,    0 ,    0 ,    1 ,   69 ,  129 ,  118 ,  115 ,   17 ,  128 ,    0 ,    0 ,    0 ,    0 ,  128 ,    0 ,    0 ,    0 ,  128 ,    0 ,    0 ,    0 ,    0 ,  128 ,    0 ,    0 ,    0 ,  128 ,    0 ,    0 ,    0 ,    0 ,  128 ,    0 
E: 000000.317185 64 01 81 7c 7a 7d 08 00 e8 00 00 0a c8 04 f1 ff fe ff e6 ff e4 ff 31 1f 29 07 00 00 00 00 00 18 00 00 01 45 81 76 73 11 80 00 00 00 00 80 00 00 00 80 00 00 00 00 80 00 00 00 80 00 00 00 00 80 00
# ReportID: 1 / X:  129 | Y:  124 | Z:  122 | Rz:  125 | Hat switch:   8 | Button: 0  0  0  0  0  0  0  0  0  0  0  0  0  0 | 0xff000020:  59 | Rx:    0 | Ry:    0 | 0xff000021:  248 ,  202 ,    4 ,  242 ,  255 ,  253 ,  255 ,  230 ,  255 ,  229 ,  255 ,   46 ,   31 ,   52 ,    7 ,    0 ,    0 ,    0 ,    0 ,    0 ,   24 ,    0 ,    0 ,    1 ,   69 ,  129 ,  118 ,  115 ,   17 ,  128 ,    0 ,    0 ,    0 ,    0 ,  128 ,    0 ,    0 ,    0 ,  128 ,    0 ,    0 ,    0 ,    0 ,  128 ,    0 ,    0 ,    0 ,  128 ,    0 ,    0 ,    0 ,    0 ,  128 ,    0 
E: 000000.321179 64 01 81 7c 7a 7d 08 00 ec 00 00 f8 ca 04 f2 ff fd ff e6 ff e5 ff 2e 1f 34 07 00 00 00 00 00 18 00 00 01 45 81 76 73 11 80 00 00 00 00 80 00 00 00 80 00 00 00 00 80 00 00 00 80 00 00 00 00 80 00
# ReportID: 1 / X:  129 | Y:  124 | Z:  122 | Rz:  125 | Hat switch:   8 | Button: 0  0  0  0  0  0  0  0  0  0  0  0  0  0 | 0xff000020:  60 | Rx:    0 | Ry:    0 | 0xff000021:  230 ,  205 ,    4 ,  242 ,  255 ,  254 ,  255 ,  229 ,  255 ,  231 ,  255 ,   49 ,   31 ,   64 ,    7 ,    0 ,    0 ,    0 ,    0 ,    0 ,   24 ,    0 ,    0 ,    1 ,   69 ,  129 ,  118 ,  115 ,   17 ,  128 ,    0 ,    0 ,    0 ,    0 ,  128 ,    0 ,    0 ,    0 ,  128 ,    0 ,    0 ,    0 ,    0 ,  128 ,    0 ,    0 ,    0 ,  128 ,    0 ,    0 ,    0 ,    0 ,  128 ,    0 
E: 000000.325378 64 01 81 7c 7a 7d 08 00 f0 00 00 e6 cd 04 f2 ff fe ff e5 ff e7 ff 31 1f 40 07 00 00 00 00 00 18 00 00 01 45 81 76 73 11 80 00 00 00 00 80 00 00 00 80 00 00 00 00 80 00 00 00 80 00 00 00 00 80 00
# ReportID: 1 / X:  129 | Y:  124 | Z:  122 | Rz:  125 | Hat switch:   8 | Button: 0  0  0  0  0  0  0  0  0  0  0  0  0  0 | 0xff000020:  61 | Rx:    0 | Ry:    0 | 0xff000021:  210 ,  208 ,    4 ,  242 ,  255 ,  254 ,  255 ,  230 ,  255 ,  230 ,  255 ,   40 ,   31 ,   64 ,    7 ,    0 ,    0 ,    0 ,    0 ,    0 ,   24 ,    0 ,    0 ,    1 ,   69 ,  129 ,  118 ,  115 ,   17 ,  128 ,    0 ,    0 ,    0 ,    0 ,  128 ,    0 ,    0 ,    0 ,  128 ,    0 ,    0 ,    0 ,    0 ,  128 ,    0 ,    0 ,    0 ,  128 ,    0 ,    0 ,    0 ,    0 ,  128 ,    0 
E: 000000.329384 64 01 81 7c 7a 7d 08 00 f4 00 00 d2 d0 04 f2 ff fe ff e6 ff e6 ff 28 1f 40 07 00 00 00 00 00 18 00 00 01 45 81 76 73 11 80 00 00 00 00 80 00 00 00 80 00 00 00 00 80 00 00 00 80 00 00 00 00 80 00
# ReportID: 1 / X:  129 | Y:  124 | Z:  122 | Rz:  125 | Hat switch:   8 | Button: 0  0  0  0  0  0  0  0  0  0  0  0  0  0 | 0xff000020:  62 | Rx:    0 | Ry:    0 | 0xff000021:  192 ,  211 ,    4 ,  240 ,  255 ,  254 ,  255 ,  229 ,  255 ,  233 ,  255 ,   49 ,   31 ,   50 ,    7 ,    0 ,    0 ,    0 ,    0 ,    0 ,   24 ,    0 ,    0 ,    1 ,   69 ,  129 ,  118 ,  115 ,   17 ,  128 ,    0 ,    0 ,    0 ,    0 ,  128 ,    0 ,    0 ,    0 ,  128 ,    0 ,    0 ,    0 ,    0 ,  128 ,    0 ,    0 ,    0 ,  128 ,    0 ,    0 ,    0 ,    0 ,  128 ,    0 
E: 000000.333357 64 01 81 7c 7a 7d 08 00 f8 00 00 c0 d3 04 f0 ff fe ff e5 ff e9 ff 31 1f 32 07 00 00 00 00 00 18 00 00 01 45 81 76 73 11 80 00 00 00 00 80 00 00 00 80 00 00 00 00 80 00 00 00 80 00 00 00 00 80 00
# ReportID: 1 / X:  129 | Y:  124 | Z:  122 | Rz:  125 | Hat switch:   8 | Button: 0  0  0  0  0  0  0  0  0  0  0  0  0  0 | 0xff000020:  63 | Rx:    0 | Ry:    0 | 0xff000021:  174 ,  214 ,    4 ,  242 ,  255 ,  254 ,  255 ,  229 ,  255 ,  236 ,  255 ,   21 ,   31 ,   67 ,    7 ,    0 ,    0 ,    0 ,    0 ,    0 ,   24 ,    0 ,    0 ,    1 ,   69 ,  129 ,  118 ,  115 ,   17 ,  128 ,    0 ,    0 ,    0 ,    0 ,  128 ,    0 ,    0 ,    0 ,  128 ,    0 ,    0 ,    0 ,    0 ,  128 ,    0 ,    0 ,    0 ,  128 ,    0 ,    0 ,    0 ,    0 ,  128 ,    0 
E: 000000.337346 64 01 81 7c 7a 7d 08 00 fc 00 00 ae d6 04 f2 ff fe ff e5 ff ec ff 15 1f 43 07 00 00 00 00 00 18 00 00 01 45 81 76 73 11 80 00 00 00 00 80 00 00 00 80 00 00 00 00 80 00 00 00 80 00 00 00 00 80 00
# ReportID: 1 / X:  129 | Y:  124 | Z:  122 | Rz:  125 | Hat switch:   8 | Button: 0  0  0  0  0  0  0  0  0  0  0  0  0  0 | 0xff000020:   0 | Rx:    0 | Ry:    0 | 0xff000021:  156 ,  217 ,    4 ,  242 ,  255 ,  253 ,  255 ,  232 ,  255 ,  229 ,  255 ,   43 ,   31 ,   53 ,    7 ,    0 ,    0 ,    0 ,    0 ,    0 ,   24 ,    0 ,    0 ,    1 ,   69 ,  129 ,  118 ,  115 ,   17 ,  128 ,    0 ,    0 ,    0 ,    0 ,  128 ,    0 ,    0 ,    0 ,  128 ,    0 ,    0 ,    0 ,    0 ,  128 ,    0 ,    0 ,    0 ,  128 ,    0 ,    0 ,    0 ,    0 ,  128 ,    0 
E: 000000.341355 64 01 81 7c 7a 7d 08 00 00 00 00 9c d9 04 f2 ff fd ff e8 ff e5 ff 2b 1f 35 07 00 00 00 00 00 18 00 00 01 45 81 76 73 11 80 00 00 00 00 80 00 00 00 80 00 00 00 00 80 00 00 00 80 00 00 00 00 80 00
# ReportID: 1 / X:  129 | Y:  124 | Z:  122 | Rz:  125 | Hat switch:   8 | Button: 0  0  0  0  0  0  0  0  0  0  0  0  0  0 | 0xff000020:   1 | Rx:    0 | Ry:    0 | 0xff000021:  138 ,  220 ,    4 ,  243 ,  255 ,  254 ,  255 ,  230 ,  255 ,  238 ,  255 ,   47 ,   31 ,   59 ,    7 ,    0 ,    0 ,    0 ,    0 ,    0 ,   24 ,    0 ,    0 ,    1 ,   69 ,  129 ,  118 ,  115 ,   17 ,  128 ,    0 ,    0 ,    0 ,    0 ,  128 ,    0 ,    0 ,    0 ,  128 ,    0 ,    0 ,    0 ,    0 ,  128 ,    0 ,    0 ,    0 ,  128 ,    0 ,    0 ,    0 ,    0 ,  128 ,    0 
E: 000000.345188 64 01 81 7c 7a 7d 08 00 04 00 00 8a dc 04 f3 ff fe ff e6 ff ee ff 2f 1f 3b 07 00 00 00 00 00 18 00 00 01 45 81 76 73 11 80 00 00 00 00 80 00 00 00 80 00 00 00 00 80 00 00 00 80 00 00 00 00 80 00
# ReportID: 1 / X:  129 | Y:  124 | Z:  121 | Rz:  125 | Hat switch:   8 | Button: 0  0  0  0  0  0  0  0  0  0  0  0  0  0 | 0xff000020:   2 | Rx:    0 | Ry:    0 | 0xff000021:  120 ,  223 ,    4 ,  243 ,  255 ,  254 ,  255 ,  229 ,  255 ,  236 ,  255 ,   47 ,   31 ,   65 ,    7 ,    0 ,    0 ,    0 ,    0 ,    0 ,   24 ,    0 ,    0 ,    1 ,   69 ,  129 ,  118 ,  115 ,   17 ,  128 ,    0 ,    0 ,    0 ,    0 ,  128 ,    0 ,    0 ,    0 ,  128 ,    0 ,    0 ,    0 ,    0 ,  128 ,    0 ,    0 ,    0 ,  128 ,    0 ,    0 ,    0 ,    0 ,  128 ,    0 
E: 000000.349205 64 01 81 7c 79 7d 08 00 08 00 00 78 df 04 f3 ff fe ff e5 ff ec ff 2f 1f 41 07 00 00 00 00 00 18 00 00 01 45 81 76 73 11 80 00 00 00 00 80 00 00 00 80 00 00 00 00 80 00 00 00 80 00 00 00 00 80 00
# ReportID: 1 / X:  129 | Y:  124 | Z:  122 | Rz:  126 | Hat switch:   8 | Button: 0  0  0  0  0  0  0  0  0  0  0  0  0  0 | 0xff000020:   3 | Rx:    0 | Ry:    0 | 0xff000021:   92 ,  226 ,    4 ,  241 ,  255 ,  254 ,  255 ,  230 ,  255 ,  246 ,  255 ,   57 ,   31 ,   68 ,    7 ,    0 ,    0 ,    0 ,    0 ,    0 ,   24 ,    0 ,    0 ,    1 ,   69 ,  129 ,  118 ,  115 ,   17 ,  128 ,    0 ,    0 ,    0 ,    0 ,  128 ,    0 ,    0 ,    0 ,  128 ,    0 ,    0 ,    0 ,    0 ,  128 ,    0 ,    0 ,    0 ,  128 ,    0 ,    0 ,    0 ,    0 ,  128 ,    0 
E: 000000.353174 64 01 81 7c 7a 7e 08 00 0c 00 00 5c e2 04 f1 ff fe ff e6 ff f6 ff 39 1f 44 07 00 00 00 00 00 18 00 00 01 45 81 76 73 11 80 00 00 00 00 80 00 00 00 80 00 00 00 00 80 00 00 00 80 00 00 00 00 80 00
# ReportID: 1 / X:  129 | Y:  124 | Z:  122 | Rz:  125 | Hat switch:   8 | Button: 0  0  0  0  0  0  0  0  0  0  0  0  0  0 | 0xff000020:   4 | Rx:    0 | Ry:    0 | 0xff000021:   73 ,  229 ,    4 ,  240 ,  255 ,  253 ,  255 ,  231 ,  255 ,  217 ,  255 ,   43 ,   31 ,   51 ,    7 ,    0 ,    0 ,    0 ,    0 ,    0 ,   24 ,    0 ,    0 ,    1 ,   69 ,  129 ,  118 ,  115 ,   17 ,  128 ,    0 ,    0 ,    0 ,    0 ,  128 ,    0 ,    0 ,    0 ,  128 ,    0 ,    0 ,    0 ,    0 ,  128 ,    0 ,    0 ,    0 ,  128 ,    0 ,    0 ,    0 ,    0 ,  128 ,    0 
E: 000000.357182 64 01 81 7c 7a 7d 08 00 10 00 00 49 e5 04 f0 ff fd ff e7 ff d9 ff 2b 1f 33 07 00 00 00 00 00 18 00 00 01 45 81 76 73 11 80 00 00 00 00 80 00 00 00 80 00 00 00 00 80 00 00 00 80 00 00 00 00 80 00
# ReportID: 1 / X:  129 | Y:  124 | Z:  122 | Rz:  126 | Hat switch:   8 | Button: 0  0  0  0  0  0  0  0  0  0  0  0  0  0 | 0xff000020:   5 | Rx:    0 | Ry:    0 | 0xff000021:   54 ,  232 ,    4 ,  241 ,  255 ,  253 ,  255 ,  232 ,  255 ,  240 ,  255 ,   39 ,   31 ,   71 ,    7 ,    0 ,    0 ,    0 ,    0 ,    0 ,   24 ,    0 ,    0 ,    1 ,   69 ,  129 ,  118 ,  115 ,   17 ,  128 ,    0 ,    0 ,    0 ,    0 ,  128 ,    0 ,    0 ,    0 ,  128 ,    0 ,    0 ,    0 ,    0 ,  128 ,    0 ,    0 ,    0 ,  128 ,    0 ,    0 ,    0 ,    0 ,  128 ,    0 
E: 000000.361192 64 01 81 7c 7a 7e 08 00 14 00 00 36 e8 04 f1 ff fd ff e8 ff f0 ff 27 1f 47 07 00 00 00 00 00 18 00 00 01 45 81 76 73 11 80 00 00 00 00 80 00 00 00 80 00 00 00 00 80 00 00 00 80 00 00 00 00 80 00
# ReportID: 1 / X:  129 | Y:  123 | Z:  122 | Rz:  126 | Hat switch:   8 | Button: 0  0  0  0  0  0  0  0  0  0  0  0  0  0 | 0xff000020:   6 | Rx:    0 | Ry:    0 | 0xff000021:   35 ,  235 ,    4 ,  241 ,  255 ,  253 ,  255 ,  229 ,  255 ,  227 ,  255 ,   62 ,   31 ,   79 ,    7 ,    0 ,    0 ,    0 ,    0 ,    0 ,   24 ,    0 ,    0 ,    1 ,   69 ,  129 ,  118 ,  115 ,   17 ,  128 ,    0 ,    0 ,    0 ,    0 ,  128 ,    0 ,    0 ,    0 ,  128 ,    0 ,    0 ,    0 ,    0 ,  128 ,    0 ,    0 ,    0 ,  128 ,    0 ,    0 ,    0 ,    0 ,  128 ,    0 
E: 000000.365409 64 01 81 7b 7a 7e 08 00 18 00 00 23 eb 04 f1 ff fd ff e5 ff e3 ff 3e 1f 4f 07 00 00 00 00 00 18 00 00 01 45 81 76 73 11 80 00 00 00 00 80 00 00 00 80 00 00 00 00 80 00 00 00 80 00 00 00 00 80 00
# ReportID: 1 / X:  129 | Y:  124 | Z:  121 | Rz:  125 | Hat switch:   8 | Button: 0  0  0  0  0  0  0  0  0  0  0  0  0  0 | 0xff000020:   7 | Rx:    0 | Ry:    0 | 0xff000021:   16 ,  238 ,    4 ,  241 ,  255 ,  253 ,  255 ,  230 ,  255 ,  214 ,  255 ,   45 ,   31 ,   62 ,    7 ,    0 ,    0 ,    0 ,    0 ,    0 ,   24 ,    0 ,    0 ,    1 ,   69 ,  129 ,  118 ,  115 ,   17 ,  128 ,    0 ,    0 ,    0 ,    0 ,  128 ,    0 ,    0 ,    0 ,  128 ,    0 ,    0 ,    0 ,    0 ,  128 ,    0 ,    0 ,    0 ,  128 ,    0 ,    0 ,    0 ,    0 ,  128 ,    0 
E: 000000.369354 64 01 81 7c 79 7d 08 00 1c 00 00 10 ee 04 f1 ff fd ff e6 ff d6 ff 2d 1f 3e 07 00 00 00 00 00 18 00 00 01 45 81 76 73 11 80 00 00 00 00 80 00 00 00 80 00 00 00 00 80 00 00 00 80 00 00 00 00 80 00
# ReportID: 1 / X:  129 | Y:  124 | Z:  122 | Rz:  126 | Hat switch:   8 | Button: 0  0  0  0  0  0  0  0  0  0  0  0  0  0 | 0xff000020:   8 | Rx:    0 | Ry:    0 | 0xff000021:  253 ,  240 ,    4 ,  242 ,  255 ,  253 ,  255 ,  229 ,  255 ,  221 ,  255 ,   23 ,   31 ,   63 ,    7 ,    0 ,    0 ,    0 ,    0 ,    0 ,   24 ,    0 ,    0 ,    1 ,   69 ,  129 ,  118 ,  115 ,   17 ,  128 ,    0 ,    0 ,    0 ,    0 ,  128 ,    0 ,    0 ,    0 ,  128 ,    0 ,    0 ,    0 ,    0 ,  128 ,    0 ,    0 ,    0 ,  128 ,    0 ,    0 ,    0 ,    0 ,  128 ,    0 
E: 000000.373366 64 01 81 7c 7a 7e 08 00 20 00 00 fd f0 04 f2 ff fd ff e5 ff dd ff 17 1f 3f 07 00 00 00 00 00 18 00 00 01 45 81 76 73 11 80 00 00 00 00 80 00 00 00 80 00 00 00 00 80 00 00 00 80 00 00 00 00 80 00
# ReportID: 1 / X:  129 | Y:  124 | Z:  121 | Rz:  125 | Hat switch:   8 | Button: 0  0  0  0  0  0  0  0  0  0  0  0  0  0 | 0xff000020:   9 | Rx:    0 | Ry:    0 | 0xff000021:  234 ,  243 ,    4 ,  242 ,  255 ,  253 ,  255 ,  230 ,  255 ,  239 ,  255 ,   33 ,   31 ,   55 ,    7 ,    0 ,    0 ,    0 ,    0 ,    0 ,   24 ,    0 ,    0 ,    1 ,   69 ,  129 ,  118 ,  115 ,   17 ,  128 ,    0 ,    0 ,    0 ,    0 ,  128 ,    0 ,    0 ,    0 ,  128 ,    0 ,    0 ,    0 ,    0 ,  128 ,    0 ,    0 ,    0 ,  128 ,    0 ,    0 ,    0 ,    0 ,  128 ,    0 
E: 000000.377366 64 01 81 7c 79 7d 08 00 24 00 00 ea f3 04 f2 ff fd ff e6 ff ef ff 21 1f 37 07 00 00 00 00 00 18 00 00 01 45 81 76 73 11 80 00 00 00 00 80 00 00 00 80 00 00 00 00 80 00 00 00 80 00 00 00 00 80 00
# ReportID: 1 / X:  129 | Y:  124 | Z:  122 | Rz:  126 | Hat switch:   8 | Button: 0  0  0  0  0  0  0  0  0  0  0  0  0  0 | 0xff000020:  10 | Rx:    0 | Ry:    0 | 0xff000021:  215 ,  246 ,    4 ,  242 ,  255 ,  254 ,  255 ,  230 ,  255 ,  210 ,  255 ,   36 ,   31 ,   74 ,    7 ,    0 ,    0 ,    0 ,    0 ,    0 ,   24 ,    0 ,    0 ,    1 ,   69 ,  129 ,  118 ,  115 ,   17 ,  128 ,    0 ,    0 ,    0 ,    0 ,  128 ,    0 ,    0 ,    0 ,  128 ,    0 ,    0 ,    0 ,    0 ,  128 ,    0 ,    0 ,    0 ,  128 ,    0 ,    0 ,    0 ,    0 ,  128 ,    0 
E: 000000.381379 64 01 81 7c 7a 7e 08 00 28 00 00 d7 f6 04 f2 ff fe ff e6 ff d2 ff 24 1f 4a 07 00 00 00 00 00 18 00 00 01 45 81 76 73 11 80 00 00 00 00 80 00 00 00 80 00 00 00 00 80 00 00 00 80 00 00 00 00 80 00
# ReportID: 1 / X:  129 | Y:  124 | Z:  122 | Rz:  126 | Hat switch:   8 | Button: 0  0  0  0  0  0  0  0  0  0  0  0  0  0 | 0xff000020:  11 | Rx:    0 | Ry:    0 | 0xff000021:  196 ,  249 ,    4 ,  242 ,  255 ,  253 ,  255 ,  229 ,  255 ,  238 ,  255 ,   23 ,   31 ,   82 ,    7 ,    0 ,    0 ,    0 ,    0 ,    0 ,   24 ,    0 ,    0 ,    1 ,   69 ,  129 ,  118 ,  115 ,   17 ,  128 ,    0 ,    0 ,    0 ,    0 ,  128 ,    0 ,    0 ,    0 ,  128 ,    0 ,    0 ,    0 ,    0 ,  128 ,    0 ,    0 ,    0 ,  128 ,    0 ,    0 ,    0 ,    0 ,  128 ,    0 
E: 000000.385365 64 01 81 7c 7a 7e 08 00 2c 00 00 c4 f9 04 f2 ff fd ff e5 ff ee ff 17 1f 52 07 00 00 00 00 00 18 00 00 01 45 81 76 73 11 80 00 00 00 00 80 00 00 00 80 00 00 00 00 80 00 00 00 80 00 00 00 00 80 00
# ReportID: 1 / X:  129 | Y:  124 | Z:  121 | Rz:  125 | Hat switch:   8 | Button: 0  0  0  0  0  0  0  0  0  0  0  0  0  0 | 0xff000020:  12 | Rx:    0 | Ry:    0 | 0xff000021:  177 ,  252 ,    4 ,  243 ,  255 ,  253 ,  255 ,  231 ,  255 ,  243 ,  255 ,   20 ,   31 ,   74 ,    7 ,    0 ,    0 ,    0 ,    0 ,    0 ,   24 ,    0 ,    0 ,    1 ,   69 ,  129 ,  118 ,  115 ,   17 ,  128 ,    0 ,    0 ,    0 ,    0 ,  128 ,    0 ,    0 ,    0 ,  128 ,    0 ,    0 ,    0 ,    0 ,  128 ,    0 ,    0 ,    0 ,  128 ,    0 ,    0 ,    0 ,    0 ,  128 ,    0 
E: 000000.389185 64 01 81 7c 79 7d 08 00 30 00 00 b1 fc 04 f3 ff fd ff e7 ff f3 ff 14 1f 4a 07 00 00 00 00 00 18 00 00 01 45 81 76 73 11 80 00 00 00 00 80 00 00 00 80 00 00 00 00 80 00 00 00 80 00 00 00 00 80 00
