# Pro Controller
# 0x05, 0x01,                    // Usage Page (Generic Desktop)        0
# 0x09, 0x05,                    // Usage (Game Pad)                    2
# 0xa1, 0x01,                    // Collection (Application)            4
# 0x06, 0x01, 0xff,              //  Usage Page (Vendor Usage Page 0xff01) 6
# 0x85, 0x21,                    //  Report ID (33)                     9
# 0x09, 0x21,                    //  Usage (Vendor Usage 0x21)          11
# 0x75, 0x08,                    //  Report Size (8)                    13
# 0x95, 0x30,                    //  Report Count (48)                  15
# 0x81, 0x02,                    //  Input (Data,Var,Abs)               17
# 0x85, 0x30,                    //  Report ID (48)                     19
# 0x09, 0x30,                    //  Usage (Vendor Usage 0x30)          21
# 0x75, 0x08,                    //  Report Size (8)                    23
# 0x95, 0x30,                    //  Report Count (48)                  25
# 0x81, 0x02,                    //  Input (Data,Var,Abs)               27
# 0x85, 0x31,                    //  Report ID (49)                     29
# 0x09, 0x31,                    //  Usage (Vendor Usage 0x31)          31
# 0x75, 0x08,                    //  Report Size (8)                    33
# 0x96, 0x69, 0x01,              //  Report Count (361)                 35
# 0x81, 0x02,                    //  Input (Data,Var,Abs)               38
# 0x85, 0x32,                    //  Report ID (50)                     40
# 0x09, 0x32,                    //  Usage (Vendor Usage 0x32)          42
# 0x75, 0x08,                    //  Report Size (8)                    44
# 0x96, 0x69, 0x01,              //  Report Count (361)                 46
# 0x81, 0x02,                    //  Input (Data,Var,Abs)               49
# 0x85, 0x33,                    //  Report ID (51)                     51
# 0x09, 0x33,                    //  Usage (Vendor Usage 0x33)          53
# 0x75, 0x08,                    //  Report Size (8)                    55
# 0x96, 0x69, 0x01,              //  Report Count (361)                 57
# 0x81, 0x02,                    //  Input (Data,Var,Abs)               60
# 0x85, 0x3f,                    //  Report ID (63)                     62
# 0x05, 0x09,                    //  Usage Page (Button)                64
# 0x19, 0x01,                    //  Usage Minimum (1)                  66
# 0x29, 0x10,                    //  Usage Maximum (16)                 68
# 0x15, 0x00,                    //  Logical Minimum (0)                70
# 0x25, 0x01,                    //  Logical Maximum (1)                72
# 0x75, 0x01,                    //  Report Size (1)                    74
# 0x95, 0x10,                    //  Report Count (16)                  76
# 0x81, 0x02,                    //  Input (Data,Var,Abs)               78
# 0x05, 0x01,                    //  Usage Page (Generic Desktop)       80
# 0x09, 0x39,                    //  Usage (Hat switch)                 82
# 0x15, 0x00,                    //  Logical Minimum (0)                84
# 0x25, 0x07,                    //  Logical Maximum (7)                86
# 0x75, 0x04,                    //  Report Size (4)                    88
# 0x95, 0x01,                    //  Report Count (1)                   90
# 0x81, 0x42,                    //  Input (Data,Var,Abs,Null)          92
# 0x05, 0x09,                    //  Usage Page (Button)                94
# 0x75, 0x04,                    //  Report Size (4)                    96
# 0x95, 0x01,                    //  Report Count (1)                   98
# 0x81, 0x01,                    //  Input (Cnst,Arr,Abs)               100
# 0x05, 0x01,                    //  Usage Page (Generic Desktop)       102
# 0x09, 0x30,                    //  Usage (X)                          104
# 0x09, 0x31,                    //  Usage (Y)                          106
# 0x09, 0x33,                    //  Usage (Rx)                         108
# 0x09, 0x34,                    //  Usage (Ry)                         110
# 0x16, 0x00, 0x00,              //  Logical Minimum (0)                112
# 0x27, 0xff, 0xff, 0x00, 0x00,  //  Logical Maximum (65535)            115
# 0x75, 0x10,                    //  Report Size (16)                   120
# 0x95, 0x04,                    //  Report Count (4)                   122
# 0x81, 0x02,                    //  Input (Data,Var,Abs)               124
# 0x06, 0x01, 0xff,              //  Usage Page (Vendor Usage Page 0xff01) 126
# 0x85, 0x01,                    //  Report ID (1)                      129
# 0x09, 0x01,                    //  Usage (Vendor Usage 0x01)          131
# 0x75, 0x08,                    //  Report Size (8)                    133
# 0x95, 0x30,                    //  Report Count (48)                  135
# 0x91, 0x02,                    //  Output (Data,Var,Abs)              137
# 0x85, 0x10,                    //  Report ID (16)                     139
# 0x09, 0x10,                    //  Usage (Vendor Usage 0x10)          141
# 0x75, 0x08,                    //  Report Size (8)                    143
# 0x95, 0x30,                    //  Report Count (48)                  145
# 0x91, 0x02,                    //  Output (Data,Var,Abs)              147
# 0x85, 0x11,                    //  Report ID (17)                     149
# 0x09, 0x11,                    //  Usage (Vendor Usage 0x11)          151
# 0x75, 0x08,                    //  Report Size (8)                    153
# 0x95, 0x30,                    //  Report Count (48)                  155
# 0x91, 0x02,                    //  Output (Data,Var,Abs)              157
# 0x85, 0x12,                    //  Report ID (18)                     159
# 0x09, 0x12,                    //  Usage (Vendor Usage 0x12)          161
# 0x75, 0x08,                    //  Report Size (8)                    163
# 0x95, 0x30,                    //  Report Count (48)                  165
# 0x91, 0x02,                    //  Output (Data,Var,Abs)              167
# 0xc0,                          // End Collection                      169
# 
R: 170 05 01 09 05 a1 01 06 01 ff 85 21 09 21 75 08 95 30 81 02 85 30 09 30 75 08 95 30 81 02 85 31 09 31 75 08 96 69 01 81 02 85 32 09 32 75 08 96 69 01 81 02 85 33 09 33 75 08 96 69 01 81 02 85 3f 05 09 19 01 29 10 15 00 25 01 75 01 95 10 81 02 05 01 09 39 15 00 25 07 75 04 95 01 81 42 05 09 75 04 95 01 81 01 05 01 09 30 09 31 09 33 09 34 16 00 00 27 ff ff 00 00 75 10 95 04 81 02 06 01 ff 85 01 09 01 75 08 95 30 91 02 85 10 09 10 75 08 95 30 91 02 85 11 09 11 75 08 95 30 91 02 85 12 09 12 75 08 95 30 91 02 c0
N: Pro Controller
I: 5 057e 2009
# ReportID: 48 / 0xff010030:  109 ,   64 ,    0 ,    0 ,    0 ,  174 ,   55 ,  113 ,  254 ,  246 ,  108 ,    9 ,    0 ,    0 ,    0 ,    0 ,    0 ,    0 ,    0 ,    0 ,    0 ,    0 ,    0 ,    0 ,    0 ,    0 ,    0 ,    0 ,    0 ,    0 ,    0 ,    0 ,    0 ,    0 ,    0 ,    0 ,    0 ,    0 ,    0 ,    0 ,    0 ,    0 ,    0 ,    0 ,    0 ,    0 ,    0 ,    0 
E: 000000.000000 49 30 6d 40 00 00 00 ae 37 71 fe f6 6c 09 00 00 00 00 00 00 00 00 00 00 00 00 00 00 00 00 00 00 00 00 00 00 00 00 00 00 00 00 00 00 00 00 00 00 00 00
# ReportID: 48 / 0xff010030:  112 ,   64 ,    0 ,    0 ,    0 ,  173 ,   55 ,  113 ,  255 ,   22 ,  109 ,    9 ,    0 ,    0 ,    0 ,    0 ,    0 ,    0 ,    0 ,    0 ,    0 ,    0 ,    0 ,    0 ,    0 ,    0 ,    0 ,    0 ,    0 ,    0 ,    0 ,    0 ,    0 ,    0 ,    0 ,    0 ,    0 ,    0 ,    0 ,    0 ,    0 ,    0 ,    0 ,    0 ,    0 ,    0 ,    0 ,    0 
E: 000000.014882 49 30 70 40 00 00 00 ad 37 71 ff 16 6d 09 00 00 00 00 00 00 00 00 00 00 00 00 00 00 00 00 00 00 00 00 00 00 00 00 00 00 00 00 00 00 00 00 00 00 00 00
# ReportID: 48 / 0xff010030:  115 ,   64 ,    0 ,    0 ,    0 ,  174 ,   55 ,  113 ,  254 ,    6 ,  109 ,    9 ,    0 ,    0 ,    0 ,    0 ,    0 ,    0 ,    0 ,    0 ,    0 ,    0 ,    0 ,    0 ,    0 ,    0 ,    0 ,    0 ,    0 ,    0 ,    0 ,    0 ,    0 ,    0 ,    0 ,    0 ,    0 ,    0 ,    0 ,    0 ,    0 ,    0 ,    0 ,    0 ,    0 ,    0 ,    0 ,    0 
E: 000000.029883 49 30 73 40 00 00 00 ae 37 71 fe 06 6d 09 00 00 00 00 00 00 00 00 00 00 00 00 00 00 00 00 00 00 00 00 00 00 00 00 00 00 00 00 00 00 00 00 00 00 00 00
# ReportID: 48 / 0xff010030:  118 ,   64 ,    0 ,    0 ,    0 ,  173 ,   55 ,  113 ,    0 ,   23 ,  109 ,    9 ,    0 ,    0 ,    0 ,    0 ,    0 ,    0 ,    0 ,    0 ,    0 ,    0 ,    0 ,    0 ,    0 ,    0 ,    0 ,    0 ,    0 ,    0 ,    0 ,    0 ,    0 ,    0 ,    0 ,    0 ,    0 ,    0 ,    0 ,    0 ,    0 ,    0 ,    0 ,    0 ,    0 ,    0 ,    0 ,    0 
E: 000000.044882 49 30 76 40 00 00 00 ad 37 71 00 17 6d 09 00 00 00 00 00 00 00 00 00 00 00 00 00 00 00 00 00 00 00 00 00 00 00 00 00 00 00 00 00 00 00 00 00 00 00 00
# ReportID: 48 / 0xff010030:  121 ,   64 ,    0 ,    0 ,    0 ,  174 ,   55 ,  113 ,  255 ,  246 ,  108 ,    9 ,    0 ,    0 ,    0 ,    0 ,    0 ,    0 ,    0 ,    0 ,    0 ,    0 ,    0 ,    0 ,    0 ,    0 ,    0 ,    0 ,    0 ,    0 ,    0 ,    0 ,    0 ,    0 ,    0 ,    0 ,    0 ,    0 ,    0 ,    0 ,    0 ,    0 ,    0 ,    0 ,    0 ,    0 ,    0 ,    0 
E: 000000.059880 49 30 79 40 00 00 00 ae 37 71 ff f6 6c 09 00 00 00 00 00 00 00 00 00 00 00 00 00 00 00 00 00 00 00 00 00 00 00 00 00 00 00 00 00 00 00 00 00 00 00 00
# ReportID: 48 / 0xff010030:  124 ,   64 ,    0 ,    0 ,    0 ,  175 ,   55 ,  113 ,  255 ,    6 ,  109 ,    9 ,    0 ,    0 ,    0 ,    0 ,    0 ,    0 ,    0 ,    0 ,    0 ,    0 ,    0 ,    0 ,    0 ,    0 ,    0 ,    0 ,    0 ,    0 ,    0 ,    0 ,    0 ,    0 ,    0 ,    0 ,    0 ,    0 ,    0 ,    0 ,    0 ,    0 ,    0 ,    0 ,    0 ,    0 ,    0 ,    0 
E: 000000.074886 49 30 7c 40 00 00 00 af 37 71 ff 06 6d 09 00 00 00 00 00 00 00 00 00 00 00 00 00 00 00 00 00 00 00 00 00 00 00 00 00 00 00 00 00 00 00 00 00 00 00 00
# ReportID: 48 / 0xff010030:  127 ,   64 ,    0 ,    0 ,    0 ,  175 ,   39 ,  113 ,  255 ,    6 ,  109 ,    9 ,    0 ,    0 ,    0 ,    0 ,    0 ,    0 ,    0 ,    0 ,    0 ,    0 ,    0 ,    0 ,    0 ,    0 ,    0 ,    0 ,    0 ,    0 ,    0 ,    0 ,    0 ,    0 ,    0 ,    0 ,    0 ,    0 ,    0 ,    0 ,    0 ,    0 ,    0 ,    0 ,    0 ,    0 ,    0 ,    0 
E: 000000.089856 49 30 7f 40 00 00 00 af 27 71 ff 06 6d 09 00 00 00 00 00 00 00 00 00 00 00 00 00 00 00 00 00 00 00 00 00 00 00 00 00 00 00 00 00 00 00 00 00 00 00 00
# ReportID: 48 / 0xff010030:  130 ,   64 ,    0 ,    0 ,    0 ,  174 ,   39 ,  113 ,    1 ,    7 ,  109 ,    9 ,    0 ,    0 ,    0 ,    0 ,    0 ,    0 ,    0 ,    0 ,    0 ,    0 ,    0 ,    0 ,    0 ,    0 ,    0 ,    0 ,    0 ,    0 ,    0 ,    0 ,    0 ,    0 ,    0 ,    0 ,    0 ,    0 ,    0 ,    0 ,    0 ,    0 ,    0 ,    0 ,    0 ,    0 ,    0 ,    0 
E: 000000.104852 49 30 82 40 00 00 00 ae 27 71 01 07 6d 09 00 00 00 00 00 00 00 00 00 00 00 00 00 00 00 00 00 00 00 00 00 00 00 00 00 00 00 00 00 00 00 00 00 00 00 00
# ReportID: 48 / 0xff010030:  133 ,   64 ,    0 ,    0 ,    0 ,  173 ,   39 ,  113 ,  255 ,  246 ,  108 ,    9 ,    0 ,    0 ,    0 ,    0 ,    0 ,    0 ,    0 ,    0 ,    0 ,    0 ,    0 ,    0 ,    0 ,    0 ,    0 ,    0 ,    0 ,    0 ,    0 ,    0 ,    0 ,    0 ,    0 ,    0 ,    0 ,    0 ,    0 ,    0 ,    0 ,    0 ,    0 ,    0 ,    0 ,    0 ,    0 ,    0 
E: 000000.119862 49 30 85 40 00 00 00 ad 27 71 ff f6 6c 09 00 00 00 00 00 00 00 00 00 00 00 00 00 00 00 00 00 00 00 00 00 00 00 00 00 00 00 00 00 00 00 00 00 00 00 00
# ReportID: 48 / 0xff010030:  136 ,   64 ,    0 ,    0 ,    0 ,  174 ,   55 ,  113 ,  255 ,   22 ,  109 ,    9 ,    0 ,    0 ,    0 ,    0 ,    0 ,    0 ,    0 ,    0 ,    0 ,    0 ,    0 ,    0 ,    0 ,    0 ,    0 ,    0 ,    0 ,    0 ,    0 ,    0 ,    0 ,    0 ,    0 ,    0 ,    0 ,    0 ,    0 ,    0 ,    0 ,    0 ,    0 ,    0 ,    0 ,    0 ,    0 ,    0 
E: 000000.134851 49 30 88 40 00 00 00 ae 37 71 ff 16 6d 09 00 00 00 00 00 00 00 00 00 00 00 00 00 00 00 00 00 00 00 00 00 00 00 00 00 00 00 00 00 00 00 00 00 00 00 00
# ReportID: 48 / 0xff010030:  139 ,   64 ,    0 ,    0 ,    0 ,  175 ,   55 ,  113 ,  255 ,    6 ,  109 ,    9 ,    0 ,    0 ,    0 ,    0 ,    0 ,    0 ,    0 ,    0 ,    0 ,    0 ,    0 ,    0 ,    0 ,    0 ,    0 ,    0 ,    0 ,    0 ,    0 ,    0 ,    0 ,    0 ,    0 ,    0 ,    0 ,    0 ,    0 ,    0 ,    0 ,    0 ,    0 ,    0 ,    0 ,    0 ,    0 ,    0 
E: 000000.149878 49 30 8b 40 00 00 00 af 37 71 ff 06 6d 09 00 00 00 00 00 00 00 00 00 00 00 00 00 00 00 00 00 00 00 00 00 00 00 00 00 00 00 00 00 00 00 00 00 00 00 00
# ReportID: 48 / 0xff010030:  142 ,   64 ,    0 ,    0 ,    0 ,  174 ,   71 ,  113 ,  254 ,    6 ,  109 ,    9 ,    0 ,    0 ,    0 ,    0 ,    0 ,    0 ,    0 ,    0 ,    0 ,    0 ,    0 ,    0 ,    0 ,    0 ,    0 ,    0 ,    0 ,    0 ,    0 ,    0 ,    0 ,    0 ,    0 ,    0 ,    0 ,    0 ,    0 ,    0 ,    0 ,    0 ,    0 ,    0 ,    0 ,    0 ,    0 ,    0 
E: 000000.164878 49 30 8e 40 00 00 00 ae 47 71 fe 06 6d 09 00 00 00 00 00 00 00 00 00 00 00 00 00 00 00 00 00 00 00 00 00 00 00 00 00 00 00 00 00 00 00 00 00 00 00 00
# ReportID: 48 / 0xff010030:  145 ,   64 ,    0 ,    0 ,    0 ,  174 ,   55 ,  113 ,  255 ,    6 ,  109 ,    9 ,    0 ,    0 ,    0 ,    0 ,    0 ,    0 ,    0 ,    0 ,    0 ,    0 ,    0 ,    0 ,    0 ,    0 ,    0 ,    0 ,    0 ,    0 ,    0 ,    0 ,    0 ,    0 ,    0 ,    0 ,    0 ,    0 ,    0 ,    0 ,    0 ,    0 ,    0 ,    0 ,    0 ,    0 ,    0 ,    0 
E: 000000.179899 49 30 91 40 00 00 00 ae 37 71 ff 06 6d 09 00 00 00 00 00 00 00 00 00 00 00 00 00 00 00 00 00 00 00 00 00 00 00 00 00 00 00 00 00 00 00 00 00 00 00 00
# ReportID: 48 / 0xff010030:  148 ,   64 ,    0 ,    0 ,    0 ,  175 ,   55 ,  113 ,  255 ,    6 ,  109 ,    9 ,    0 ,    0 ,    0 ,    0 ,    0 ,    0 ,    0 ,    0 ,    0 ,    0 ,    0 ,    0 ,    0 ,    0 ,    0 ,    0 ,    0 ,    0 ,    0 ,    0 ,    0 ,    0 ,    0 ,    0 ,    0 ,    0 ,    0 ,    0 ,    0 ,    0 ,    0 ,    0 ,    0 ,    0 ,    0 ,    0 
E: 000000.194878 49 30 94 40 00 00 00 af 37 71 ff 06 6d 09 00 00 00 00 00 00 00 00 00 00 00 00 00 00 00 00 00 00 00 00 00 00 00 00 00 00 00 00 00 00 00 00 00 00 00 00
# ReportID: 48 / 0xff010030:  151 ,   64 ,    0 ,    0 ,    0 ,  174 ,   55 ,  113 ,  255 ,    6 ,  109 ,    9 ,    0 ,    0 ,    0 ,    0 ,    0 ,    0 ,    0 ,    0 ,    0 ,    0 ,    0 ,    0 ,    0 ,    0 ,    0 ,    0 ,    0 ,    0 ,    0 ,    0 ,    0 ,    0 ,    0 ,    0 ,    0 ,    0 ,    0 ,    0 ,    0 ,    0 ,    0 ,    0 ,    0 ,    0 ,    0 ,    0 
E: 000000.209855 49 30 97 40 00 00 00 ae 37 71 ff 06 6d 09 00 00 00 00 00 00 00 00 00 00 00 00 00 00 00 00 00 00 00 00 00 00 00 00 00 00 00 00 00 00 00 00 00 00 00 00
# ReportID: 48 / 0xff010030:  154 ,   64 ,    0 ,    0 ,    0 ,  174 ,   71 ,  113 ,  254 ,   22 ,  109 ,    9 ,    0 ,    0 ,    0 ,    0 ,    0 ,    0 ,    0 ,    0 ,    0 ,    0 ,    0 ,    0 ,    0 ,    0 ,    0 ,    0 ,    0 ,    0 ,    0 ,    0 ,    0 ,    0 ,    0 ,    0 ,    0 ,    0 ,    0 ,    0 ,    0 ,    0 ,    0 ,    0 ,    0 ,    0 ,    0 ,    0 
E: 000000.224887 49 30 9a 40 00 00 00 ae 47 71 fe 16 6d 09 00 00 00 00 00 00 00 00 00 00 00 00 00 00 00 00 00 00 00 00 00 00 00 00 00 00 00 00 00 00 00 00 00 00 00 00
# ReportID: 48 / 0xff010030:  157 ,   64 ,    0 ,    0 ,    0 ,  174 ,   39 ,  113 ,    0 ,  247 ,  108 ,    9 ,    0 ,    0 ,    0 ,    0 ,    0 ,    0 ,    0 ,    0 ,    0 ,    0 ,    0 ,    0 ,    0 ,    0 ,    0 ,    0 ,    0 ,    0 ,    0 ,    0 ,    0 ,    0 ,    0 ,    0 ,    0 ,    0 ,    0 ,    0 ,    0 ,    0 ,    0 ,    0 ,    0 ,    0 ,    0 ,    0 
E: 000000.239855 49 30 9d 40 00 00 00 ae 27 71 00 f7 6c 09 00 00 00 00 00 00 00 00 00 00 00 00 00 00 00 00 00 00 00 00 00 00 00 00 00 00 00 00 00 00 00 00 00 00 00 00
# ReportID: 48 / 0xff010030:  160 ,   64 ,    0 ,    0 ,    0 ,  174 ,   71 ,  113 ,  255 ,    6 ,  109 ,    9 ,    0 ,    0 ,    0 ,    0 ,    0 ,    0 ,    0 ,    0 ,    0 ,    0 ,    0 ,    0 ,    0 ,    0 ,    0 ,    0 ,    0 ,    0 ,    0 ,    0 ,    0 ,    0 ,    0 ,    0 ,    0 ,    0 ,    0 ,    0 ,    0 ,    0 ,    0 ,    0 ,    0 ,    0 ,    0 ,    0 
E: 000000.254888 49 30 a0 40 00 00 00 ae 47 71 ff 06 6d 09 00 00 00 00 00 00 00 00 00 00 00 00 00 00 00 00 00 00 00 00 00 00 00 00 00 00 00 00 00 00 00 00 00 00 00 00
# ReportID: 48 / 0xff010030:  163 ,   64 ,    0 ,    0 ,    0 ,  173 ,   39 ,  113 ,  255 ,  246 ,  108 ,    9 ,    0 ,    0 ,    0 ,    0 ,    0 ,    0 ,    0 ,    0 ,    0 ,    0 ,    0 ,    0 ,    0 ,    0 ,    0 ,    0 ,    0 ,    0 ,    0 ,    0 ,    0 ,    0 ,    0 ,    0 ,    0 ,    0 ,    0 ,    0 ,    0 ,    0 ,    0 ,    0 ,    0 ,    0 ,    0 ,    0 
E: 000000.269888 49 30 a3 40 00 00 00 ad 27 71 ff f6 6c 09 00 00 00 00 00 00 00 00 00 00 00 00 00 00 00 00 00 00 00 00 00 00 00 00 00 00 00 00 00 00 00 00 00 00 00 00
# ReportID: 48 / 0xff010030:  166 ,   64 ,    0 ,    0 ,    0 ,  174 ,   71 ,  113 ,  255 ,    6 ,  109 ,    9 ,    0 ,    0 ,    0 ,    0 ,    0 ,    0 ,    0 ,    0 ,    0 ,    0 ,    0 ,    0 ,    0 ,    0 ,    0 ,    0 ,    0 ,    0 ,    0 ,    0 ,    0 ,    0 ,    0 ,    0 ,    0 ,    0 ,    0 ,    0 ,    0 ,    0 ,    0 ,    0 ,    0 ,    0 ,    0 ,    0 
E: 000000.284878 49 30 a6 40 00 00 00 ae 47 71 ff 06 6d 09 00 00 00 00 00 00 00 00 00 00 00 00 00 00 00 00 00 00 00 00 00 00 00 00 00 00 00 00 00 00 00 00 00 00 00 00
# ReportID: 48 / 0xff010030:  169 ,   64 ,    0 ,    0 ,    0 ,  173 ,   55 ,  113 ,    0 ,  247 ,  108 ,    9 ,    0 ,    0 ,    0 ,    0 ,    0 ,    0 ,    0 ,    0 ,    0 ,    0 ,    0 ,    0 ,    0 ,    0 ,    0 ,    0 ,    0 ,    0 ,    0 ,    0 ,    0 ,    0 ,    0 ,    0 ,    0 ,    0 ,    0 ,    0 ,    0 ,    0 ,    0 ,    0 ,    0 ,    0 ,    0 ,    0 
E: 000000.299851 49 30 a9 40 00 00 00 ad 37 71 00 f7 6c 09 00 00 00 00 00 00 00 00 00 00 00 00 00 00 00 00 00 00 00 00 00 00 00 00 00 00 00 00 00 00 00 00 00 00 00 00
# ReportID: 48 / 0xff010030:  172 ,   64 ,    0 ,    0 ,    0 ,  174 ,   55 ,  113 ,  255 ,    6 ,  109 ,    9 ,    0 ,    0 ,    0 ,    0 ,    0 ,    0 ,    0 ,    0 ,    0 ,    0 ,    0 ,    0 ,    0 ,    0 ,    0 ,    0 ,    0 ,    0 ,    0 ,    0 ,    0 ,    0 ,    0 ,    0 ,    0 ,    0 ,    0 ,    0 ,    0 ,    0 ,    0 ,    0 ,    0 ,    0 ,    0 ,    0 
E: 000000.314876 49 30 ac 40 00 00 00 ae 37 71 ff 06 6d 09 00 00 00 00 00 00 00 00 00 00 00 00 00 00 00 00 00 00 00 00 00 00 00 00 00 00 00 00 00 00 00 00 00 00 00 00
# ReportID: 48 / 0xff010030:  175 ,   64 ,    0 ,    0 ,    0 ,  174 ,   71 ,  113 ,  255 ,    6 ,  109 ,    9 ,    0 ,    0 ,    0 ,    0 ,    0 ,    0 ,    0 ,    0 ,    0 ,    0 ,    0 ,    0 ,    0 ,    0 ,    0 ,    0 ,    0 ,    0 ,    0 ,    0 ,    0 ,    0 ,    0 ,    0 ,    0 ,    0 ,    0 ,    0 ,    0 ,    0 ,    0 ,    0 ,    0 ,    0 ,    0 ,    0 
E: 000000.329876 49 30 af 40 00 00 00 ae 47 71 ff 06 6d 09 00 00 00 00 00 00 00 00 00 00 00 00 00 00 00 00 00 00 00 00 00 00 00 00 00 00 00 00 00 00 00 00 00 00 00 00
# ReportID: 48 / 0xff010030:  178 ,   64 ,    0 ,    0 ,    0 ,  174 ,   55 ,  113 ,  255 ,    6 ,  109 ,    9 ,    0 ,    0 ,    0 ,    0 ,    0 ,    0 ,    0 ,    0 ,    0 ,    0 ,    0 ,    0 ,    0 ,    0 ,    0 ,    0 ,    0 ,    0 ,    0 ,    0 ,    0 ,    0 ,    0 ,    0 ,    0 ,    0 ,    0 ,    0 ,    0 ,    0 ,    0 ,    0 ,    0 ,    0 ,    0 ,    0 
E: 000000.344875 49 30 b2 40 00 00 00 ae 37 71 ff 06 6d 09 00 00 00 00 00 00 00 00 00 00 00 00 00 00 00 00 00 00 00 00 00 00 00 00 00 00 00 00 00 00 00 00 00 00 00 00
# ReportID: 48 / 0xff010030:  181 ,   64 ,    0 ,    0 ,    0 ,  174 ,   39 ,  113 ,    0 ,  247 ,  108 ,    9 ,    0 ,    0 ,    0 ,    0 ,    0 ,    0 ,    0 ,    0 ,    0 ,    0 ,    0 ,    0 ,    0 ,    0 ,    0 ,    0 ,    0 ,    0 ,    0 ,    0 ,    0 ,    0 ,    0 ,    0 ,    0 ,    0 ,    0 ,    0 ,    0 ,    0 ,    0 ,    0 ,    0 ,    0 ,    0 ,    0 
E: 000000.359859 49 30 b5 40 00 00 00 ae 27 71 00 f7 6c 09 00 00 00 00 00 00 00 00 00 00 00 00 00 00 00 00 00 00 00 00 00 00 00 00 00 00 00 00 00 00 00 00 00 00 00 00
# ReportID: 48 / 0xff010030:  184 ,   64 ,    0 ,    0 ,    0 ,  174 ,   55 ,  113 ,  255 ,   22 ,  109 ,    9 ,    0 ,    0 ,    0 ,    0 ,    0 ,    0 ,    0 ,    0 ,    0 ,    0 ,    0 ,    0 ,    0 ,    0 ,    0 ,    0 ,    0 ,    0 ,    0 ,    0 ,    0 ,    0 ,    0 ,    0 ,    0 ,    0 ,    0 ,    0 ,    0 ,    0 ,    0 ,    0 ,    0 ,    0 ,    0 ,    0 
E: 000000.374875 49 30 b8 40 00 00 00 ae 37 71 ff 16 6d 09 00 00 00 00 00 00 00 00 00 00 00 00 00 00 00 00 00 00 00 00 00 00 00 00 00 00 00 00 00 00 00 00 00 00 00 00
# ReportID: 48 / 0xff010030:  187 ,   64 ,    0 ,    0 ,    0 ,  174 ,   39 ,  113 ,  254 ,  246 ,  108 ,    9 ,    0 ,    0 ,    0 ,    0 ,    0 ,    0 ,    0 ,    0 ,    0 ,    0 ,    0 ,    0 ,    0 ,    0 ,    0 ,    0 ,    0 ,    0 ,    0 ,    0 ,    0 ,    0 ,    0 ,    0 ,    0 ,    0 ,    0 ,    0 ,    0 ,    0 ,    0 ,    0 ,    0 ,    0 ,    0 ,    0 
E: 000000.389876 49 30 bb 40 00 00 00 ae 27 71 fe f6 6c 09 00 00 00 00 00 00 00 00 00 00 00 00 00 00 00 00 00 00 00 00 00 00 00 00 00 00 00 00 00 00 00 00 00 00 00 00
# ReportID: 48 / 0xff010030:  190 ,   64 ,    0 ,    0 ,    0 ,  174 ,   55 ,  113 ,    0 ,    7 ,  109 ,    9 ,    0 ,    0 ,    0 ,    0 ,    0 ,    0 ,    0 ,    0 ,    0 ,    0 ,    0 ,    0 ,    0 ,    0 ,    0 ,    0 ,    0 ,    0 ,    0 ,    0 ,    0 ,    0 ,    0 ,    0 ,    0 ,    0 ,    0 ,    0 ,    0 ,    0 ,    0 ,    0 ,    0 ,    0 ,    0 ,    0 
E: 000000.404874 49 30 be 40 00 00 00 ae 37 71 00 07 6d 09 00 00 00 00 00 00 00 00 00 00 00 00 00 00 00 00 00 00 00 00 00 00 00 00 00 00 00 00 00 00 00 00 00 00 00 00
# ReportID: 48 / 0xff010030:  193 ,   64 ,    0 ,    0 ,    0 ,  174 ,   39 ,  113 ,  255 ,   22 ,  109 ,    9 ,    0 ,    0 ,    0 ,    0 ,    0 ,    0 ,    0 ,    0 ,    0 ,    0 ,    0 ,    0 ,    0 ,    0 ,    0 ,    0 ,    0 ,    0 ,    0 ,    0 ,    0 ,    0 ,    0 ,    0 ,    0 ,    0 ,    0 ,    0 ,    0 ,    0 ,    0 ,    0 ,    0 ,    0 ,    0 ,    0 
E: 000000.419893 49 30 c1 40 00 00 00 ae 27 71 ff 16 6d 09 00 00 00 00 00 00 00 00 00 00 00 00 00 00 00 00 00 00 00 00 00 00 00 00 00 00 00 00 00 00 00 00 00 00 00 00
# ReportID: 48 / 0xff010030:  196 ,   64 ,    0 ,    0 ,    0 ,  175 ,   55 ,  113 ,  255 ,   22 ,  109 ,    9 ,    0 ,    0 ,    0 ,    0 ,    0 ,    0 ,    0 ,    0 ,    0 ,    0 ,    0 ,    0 ,    0 ,    0 ,    0 ,    0 ,    0 ,    0 ,    0 ,    0 ,    0 ,    0 ,    0 ,    0 ,    0 ,    0 ,    0 ,    0 ,    0 ,    0 ,    0 ,    0 ,    0 ,    0 ,    0 ,    0 
E: 000000.434876 49 30 c4 40 00 00 00 af 37 71 ff 16 6d 09 00 00 00 00 00 00 00 00 00 00 00 00 00 00 00 00 00 00 00 00 00 00 00 00 00 00 00 00 00 00 00 00 00 00 00 00
# ReportID: 48 / 0xff010030:  199 ,   64 ,    0 ,    0 ,    0 ,  175 ,   55 ,  113 ,    0 ,    7 ,  109 ,    9 ,    0 ,    0 ,    0 ,    0 ,    0 ,    0 ,    0 ,    0 ,    0 ,    0 ,    0 ,    0 ,    0 ,    0 ,    0 ,    0 ,    0 ,    0 ,    0 ,    0 ,    0 ,    0 ,    0 ,    0 ,    0 ,    0 ,    0 ,    0 ,    0 ,    0 ,    0 ,    0 ,    0 ,    0 ,    0 ,    0 
E: 000000.449894 49 30 c7 40 00 00 00 af 37 71 00 07 6d 09 00 00 00 00 00 00 00 00 00 00 00 00 00 00 00 00 00 00 00 00 00 00 00 00 00 00 00 00 00 00 00 00 00 00 00 00
# ReportID: 48 / 0xff010030:  202 ,   64 ,    0 ,    0 ,    0 ,  175 ,   71 ,  113 ,  255 ,   22 ,  109 ,    9 ,    0 ,    0 ,    0 ,    0 ,    0 ,    0 ,    0 ,    0 ,    0 ,    0 ,    0 ,    0 ,    0 ,    0 ,    0 ,    0 ,    0 ,    0 ,    0 ,    0 ,    0 ,    0 ,    0 ,    0 ,    0 ,    0 ,    0 ,    0 ,    0 ,    0 ,    0 ,    0 ,    0 ,    0 ,    0 ,    0 
E: 000000.464862 49 30 ca 40 00 00 00 af 47 71 ff 16 6d 09 00 00 00 00 00 00 00 00 00 00 00 00 00 00 00 00 00 00 00 00 00 00 00 00 00 00 00 00 00 00 00 00 00 00 00 00
# ReportID: 48 / 0xff010030:  205 ,   64 ,    0 ,    0 ,    0 ,  174 ,   87 ,  113 ,  254 ,  246 ,  108 ,    9 ,    0 ,    0 ,    0 ,    0 ,    0 ,    0 ,    0 ,    0 ,    0 ,    0 ,    0 ,    0 ,    0 ,    0 ,    0 ,    0 ,    0 ,    0 ,    0 ,    0 ,    0 ,    0 ,    0 ,    0 ,    0 ,    0 ,    0 ,    0 ,    0 ,    0 ,    0 ,    0 ,    0 ,    0 ,    0 ,    0 
E: 000000.479879 49 30 cd 40 00 00 00 ae 57 71 fe f6 6c 09 00 00 00 00 00 00 00 00 00 00 00 00 00 00 00 00 00 00 00 00 00 00 00 00 00 00 00 00 00 00 00 00 00 00 00 00
# ReportID: 48 / 0xff010030:  208 ,   64 ,    0 ,    0 ,    0 ,  174 ,   39 ,  113 ,    0 ,    7 ,  109 ,    9 ,    0 ,    0 ,    0 ,    0 ,    0 ,    0 ,    0 ,    0 ,    0 ,    0 ,    0 ,    0 ,    0 ,    0 ,    0 ,    0 ,    0 ,    0 ,    0 ,    0 ,    0 ,    0 ,    0 ,    0 ,    0 ,    0 ,    0 ,    0 ,    0 ,    0 ,    0 ,    0 ,    0 ,    0 ,    0 ,    0 
E: 000000.494879 49 30 d0 40 00 00 00 ae 27 71 00 07 6d 09 00 00 00 00 00 00 00 00 00 00 00 00 00 00 00 00 00 00 00 00 00 00 00 00 00 00 00 00 00 00 00 00 00 00 00 00
# ReportID: 48 / 0xff010030:  211 ,   64 ,    0 ,    0 ,    0 ,  174 ,   55 ,  113 ,  255 ,  246 ,  108 ,    9 ,    0 ,    0 ,    0 ,    0 ,    0 ,    0 ,    0 ,    0 ,    0 ,    0 ,    0 ,    0 ,    0 ,    0 ,    0 ,    0 ,    0 ,    0 ,    0 ,    0 ,    0 ,    0 ,    0 ,    0 ,    0 ,    0 ,    0 ,    0 ,    0 ,    0 ,    0 ,    0 ,    0 ,    0 ,    0 ,    0 
E: 000000.509875 49 30 d3 40 00 00 00 ae 37 71 ff f6 6c 09 00 00 00 00 00 00 00 00 00 00 00 00 00 00 00 00 00 00 00 00 00 00 00 00 00 00 00 00 00 00 00 00 00 00 00 00
# ReportID: 48 / 0xff010030:  214 ,   64 ,    0 ,    0 ,    0 ,  174 ,   71 ,  113 ,  255 ,  246 ,  108 ,    9 ,    0 ,    0 ,    0 ,    0 ,    0 ,    0 ,    0 ,    0 ,    0 ,    0 ,    0 ,    0 ,    0 ,    0 ,    0 ,    0 ,    0 ,    0 ,    0 ,    0 ,    0 ,    0 ,    0 ,    0 ,    0 ,    0 ,    0 ,    0 ,    0 ,    0 ,    0 ,    0 ,    0 ,    0 ,    0 ,    0 
E: 000000.524892 49 30 d6 40 00 00 00 ae 47 71 ff f6 6c 09 00 00 00 00 00 00 00 00 00 00 00 00 00 00 00 00 00 00 00 00 00 00 00 00 00 00 00 00 00 00 00 00 00 00 00 00
# ReportID: 48 / 0xff010030:  217 ,   64 ,    0 ,    0 ,    0 ,  174 ,   55 ,  113 ,    1 ,  247 ,  108 ,    9 ,    0 ,    0 ,    0 ,    0 ,    0 ,    0 ,    0 ,    0 ,    0 ,    0 ,    0 ,    0 ,    0 ,    0 ,    0 ,    0 ,    0 ,    0 ,    0 ,    0 ,    0 ,    0 ,    0 ,    0 ,    0 ,    0 ,    0 ,    0 ,    0 ,    0 ,    0 ,    0 ,    0 ,    0 ,    0 ,    0 
E: 000000.539876 49 30 d9 40 00 00 00 ae 37 71 01 f7 6c 09 00 00 00 00 00 00 00 00 00 00 00 00 00 00 00 00 00 00 00 00 00 00 00 00 00 00 00 00 00 00 00 00 00 00 00 00
# ReportID: 48 / 0xff010030:  220 ,   64 ,    0 ,    0 ,    0 ,  174 ,   71 ,  113 ,  255 ,   22 ,  109 ,    9 ,    0 ,    0 ,    0 ,    0 ,    0 ,    0 ,    0 ,    0 ,    0 ,    0 ,    0 ,    0 ,    0 ,    0 ,    0 ,    0 ,    0 ,    0 ,    0 ,    0 ,    0 ,    0 ,    0 ,    0 ,    0 ,    0 ,    0 ,    0 ,    0 ,    0 ,    0 ,    0 ,    0 ,    0 ,    0 ,    0 
E: 000000.554852 49 30 dc 40 00 00 00 ae 47 71 ff 16 6d 09 00 00 00 00 00 00 00 00 00 00 00 00 00 00 00 00 00 00 00 00 00 00 00 00 00 00 00 00 00 00 00 00 00 00 00 00
# ReportID: 48 / 0xff010030:  223 ,   64 ,    0 ,    0 ,    0 ,  174 ,   55 ,  113 ,  255 ,    6 ,  109 ,    9 ,    0 ,    0 ,    0 ,    0 ,    0 ,    0 ,    0 ,    0 ,    0 ,    0 ,    0 ,    0 ,    0 ,    0 ,    0 ,    0 ,    0 ,    0 ,    0 ,    0 ,    0 ,    0 ,    0 ,    0 ,    0 ,    0 ,    0 ,    0 ,    0 ,    0 ,    0 ,    0 ,    0 ,    0 ,    0 ,    0 
E: 000000.569914 49 30 df 40 00 00 00 ae 37 71 ff 06 6d 09 00 00 00 00 00 00 00 00 00 00 00 00 00 00 00 00 00 00 00 00 00 00 00 00 00 00 00 00 00 00 00 00 00 00 00 00
# ReportID: 48 / 0xff010030:  226 ,   64 ,    0 ,    0 ,    0 ,  174 ,   55 ,  113 ,    0 ,    7 ,  109 ,    9 ,    0 ,    0 ,    0 ,    0 ,    0 ,    0 ,    0 ,    0 ,    0 ,    0 ,    0 ,    0 ,    0 ,    0 ,    0 ,    0 ,    0 ,    0 ,    0 ,    0 ,    0 ,    0 ,    0 ,    0 ,    0 ,    0 ,    0 ,    0 ,    0 ,    0 ,    0 ,    0 ,    0 ,    0 ,    0 ,    0 
E: 000000.584883 49 30 e2 40 00 00 00 ae 37 71 00 07 6d 09 00 00 00 00 00 00 00 00 00 00 00 00 00 00 00 00 00 00 00 00 00 00 00 00 00 00 00 00 00 00 00 00 00 00 00 00
# ReportID: 48 / 0xff010030:  229 ,   64 ,    0 ,    0 ,    0 ,  174 ,   71 ,  113 ,  255 ,  246 ,  108 ,    9 ,    0 ,    0 ,    0 ,    0 ,    0 ,    0 ,    0 ,    0 ,    0 ,    0 ,    0 ,    0 ,    0 ,    0 ,    0 ,    0 ,    0 ,    0 ,    0 ,    0 ,    0 ,    0 ,    0 ,    0 ,    0 ,    0 ,    0 ,    0 ,    0 ,    0 ,    0 ,    0 ,    0 ,    0 ,    0 ,    0 
E: 000000.599872 49 30 e5 40 00 00 00 ae 47 71 ff f6 6c 09 00 00 00 00 00 00 00 00 00 00 00 00 00 00 00 00 00 00 00 00 00 00 00 00 00 00 00 00 00 00 00 00 00 00 00 00
# ReportID: 48 / 0xff010030:  232 ,   64 ,    0 ,    0 ,    0 ,  175 ,   39 ,  113 ,  255 ,    6 ,  109 ,    9 ,    0 ,    0 ,    0 ,    0 ,    0 ,    0 ,    0 ,    0 ,    0 ,    0 ,    0 ,    0 ,    0 ,    0 ,    0 ,    0 ,    0 ,    0 ,    0 ,    0 ,    0 ,    0 ,    0 ,    0 ,    0 ,    0 ,    0 ,    0 ,    0 ,    0 ,    0 ,    0 ,    0 ,    0 ,    0 ,    0 
E: 000000.614875 49 30 e8 40 00 00 00 af 27 71 ff 06 6d 09 00 00 00 00 00 00 00 00 00 00 00 00 00 00 00 00 00 00 00 00 00 00 00 00 00 00 00 00 00 00 00 00 00 00 00 00
# ReportID: 48 / 0xff010030:  235 ,   64 ,    0 ,    0 ,    0 ,  174 ,   71 ,  113 ,  254 ,    6 ,  109 ,    9 ,    0 ,    0 ,    0 ,    0 ,    0 ,    0 ,    0 ,    0 ,    0 ,    0 ,    0 ,    0 ,    0 ,    0 ,    0 ,    0 ,    0 ,    0 ,    0 ,    0 ,    0 ,    0 ,    0 ,    0 ,    0 ,    0 ,    0 ,    0 ,    0 ,    0 ,    0 ,    0 ,    0 ,    0 ,    0 ,    0 
E: 000000.629887 49 30 eb 40 00 00 00 ae 47 71 fe 06 6d 09 00 00 00 00 00 00 00 00 00 00 00 00 00 00 00 00 00 00 00 00 00 00 00 00 00 00 00 00 00 00 00 00 00 00 00 00
# ReportID: 48 / 0xff010030:  238 ,   64 ,    0 ,    0 ,    0 ,  174 ,   55 ,  113 ,    1 ,   23 ,  109 ,    9 ,    0 ,    0 ,    0 ,    0 ,    0 ,    0 ,    0 ,    0 ,    0 ,    0 ,    0 ,    0 ,    0 ,    0 ,    0 ,    0 ,    0 ,    0 ,    0 ,    0 ,    0 ,    0 ,    0 ,    0 ,    0 ,    0 ,    0 ,    0 ,    0 ,    0 ,    0 ,    0 ,    0 ,    0 ,    0 ,    0 
E: 000000.644877 49 30 ee 40 00 00 00 ae 37 71 01 17 6d 09 00 00 00 00 00 00 00 00 00 00 00 00 00 00 00 00 00 00 00 00 00 00 00 00 00 00 00 00 00 00 00 00 00 00 00 00
# ReportID: 48 / 0xff010030:  241 ,   64 ,    0 ,    0 ,    0 ,  173 ,   71 ,  113 ,    0 ,  247 ,  108 ,    9 ,    0 ,    0 ,    0 ,    0 ,    0 ,    0 ,    0 ,    0 ,    0 ,    0 ,    0 ,    0 ,    0 ,    0 ,    0 ,    0 ,    0 ,    0 ,    0 ,    0 ,    0 ,    0 ,    0 ,    0 ,    0 ,    0 ,    0 ,    0 ,    0 ,    0 ,    0 ,    0 ,    0 ,    0 ,    0 ,    0 
E: 000000.659883 49 30 f1 40 00 00 00 ad 47 71 00 f7 6c 09 00 00 00 00 00 00 00 00 00 00 00 00 00 00 00 00 00 00 00 00 00 00 00 00 00 00 00 00 00 00 00 00 00 00 00 00
# ReportID: 48 / 0xff010030:  244 ,   64 ,    0 ,    0 ,    0 ,  175 ,   39 ,  113 ,  255 ,   38 ,  109 ,    9 ,    0 ,    0 ,    0 ,    0 ,    0 ,    0 ,    0 ,    0 ,    0 ,    0 ,    0 ,    0 ,    0 ,    0 ,    0 ,    0 ,    0 ,    0 ,    0 ,    0 ,    0 ,    0 ,    0 ,    0 ,    0 ,    0 ,    0 ,    0 ,    0 ,    0 ,    0 ,    0 ,    0 ,    0 ,    0 ,    0 
E: 000000.674874 49 30 f4 40 00 00 00 af 27 71 ff 26 6d 09 00 00 00 00 00 00 00 00 00 00 00 00 00 00 00 00 00 00 00 00 00 00 00 00 00 00 00 00 00 00 00 00 00 00 00 00
# ReportID: 48 / 0xff010030:  247 ,   64 ,    0 ,    0 ,    0 ,  174 ,   39 ,  113 ,  255 ,   22 ,  109 ,    9 ,    0 ,    0 ,    0 ,    0 ,    0 ,    0 ,    0 ,    0 ,    0 ,    0 ,    0 ,    0 ,    0 ,    0 ,    0 ,    0 ,    0 ,    0 ,    0 ,    0 ,    0 ,    0 ,    0 ,    0 ,    0 ,    0 ,    0 ,    0 ,    0 ,    0 ,    0 ,    0 ,    0 ,    0 ,    0 ,    0 
E: 000000.689880 49 30 f7 40 00 00 00 ae 27 71 ff 16 6d 09 00 00 00 00 00 00 00 00 00 00 00 00 00 00 00 00 00 00 00 00 00 00 00 00 00 00 00 00 00 00 00 00 00 00 00 00
# ReportID: 48 / 0xff010030:  250 ,   64 ,    0 ,    0 ,    0 ,  174 ,   55 ,  113 ,  255 ,    6 ,  109 ,    9 ,    0 ,    0 ,    0 ,    0 ,    0 ,    0 ,    0 ,    0 ,    0 ,    0 ,    0 ,    0 ,    0 ,    0 ,    0 ,    0 ,    0 ,    0 ,    0 ,    0 ,    0 ,    0 ,    0 ,    0 ,    0 ,    0 ,    0 ,    0 ,    0 ,    0 ,    0 ,    0 ,    0 ,    0 ,    0 ,    0 
E: 000000.704874 49 30 fa 40 00 00 00 ae 37 71 ff 06 6d 09 00 00 00 00 00 00 00 00 00 00 00 00 00 00 00 00 00 00 00 00 00 00 00 00 00 00 00 00 00 00 00 00 00 00 00 00
# ReportID: 48 / 0xff010030:  253 ,   64 ,    0 ,    0 ,    0 ,  174 ,   71 ,  113 ,    0 ,    7 ,  109 ,    9 ,    0 ,    0 ,    0 ,    0 ,    0 ,    0 ,    0 ,    0 ,    0 ,    0 ,    0 ,    0 ,    0 ,    0 ,    0 ,    0 ,    0 ,    0 ,    0 ,    0 ,    0 ,    0 ,    0 ,    0 ,    0 ,    0 ,    0 ,    0 ,    0 ,    0 ,    0 ,    0 ,    0 ,    0 ,    0 ,    0 
E: 000000.719879 49 30 fd 40 00 00 00 ae 47 71 00 07 6d 09 00 00 00 00 00 00 00 00 00 00 00 00 00 00 00 00 00 00 00 00 00 00 00 00 00 00 00 00 00 00 00 00 00 00 00 00
# ReportID: 48 / 0xff010030:    0 ,   64 ,    0 ,    0 ,    0 ,  174 ,   55 ,  113 ,  255 ,  246 ,  108 ,    9 ,    0 ,    0 ,    0 ,    0 ,    0 ,    0 ,    0 ,    0 ,    0 ,    0 ,    0 ,    0 ,    0 ,    0 ,    0 ,    0 ,    0 ,    0 ,    0 ,    0 ,    0 ,    0 ,    0 ,    0 ,    0 ,    0 ,    0 ,    0 ,    0 ,    0 ,    0 ,    0 ,    0 ,    0 ,    0 ,    0 
E: 000000.734876 49 30 00 40 00 00 00 ae 37 71 ff f6 6c 09 00 00 00 00 00 00 00 00 00 00 00 00 00 00 00 00 00 00 00 00 00 00 00 00 00 00 00 00 00 00 00 00 00 00 00 00
# ReportID: 48 / 0xff010030:    3 ,   64 ,    0 ,    0 ,    0 ,  174 ,   71 ,  113 ,    0 ,    7 ,  109 ,    9 ,    0 ,    0 ,    0 ,    0 ,    0 ,    0 ,    0 ,    0 ,    0 ,    0 ,    0 ,    0 ,    0 ,    0 ,    0 ,    0 ,    0 ,    0 ,    0 ,    0 ,    0 ,    0 ,    0 ,    0 ,    0 ,    0 ,    0 ,    0 ,    0 ,    0 ,    0 ,    0 ,    0 ,    0 ,    0 ,    0 
E: 000000.749873 49 30 03 40 00 00 00 ae 47 71 00 07 6d 09 00 00 00 00 00 00 00 00 00 00 00 00 00 00 00 00 00 00 00 00 00 00 00 00 00 00 00 00 00 00 00 00 00 00 00 00
# ReportID: 48 / 0xff010030:    6 ,   64 ,    0 ,    0 ,    0 ,  175 ,   55 ,  113 ,  255 ,   38 ,  109 ,    9 ,    0 ,    0 ,    0 ,    0 ,    0 ,    0 ,    0 ,    0 ,    0 ,    0 ,    0 ,    0 ,    0 ,    0 ,    0 ,    0 ,    0 ,    0 ,    0 ,    0 ,    0 ,    0 ,    0 ,    0 ,    0 ,    0 ,    0 ,    0 ,    0 ,    0 ,    0 ,    0 ,    0 ,    0 ,    0 ,    0 
E: 000000.764848 49 30 06 40 00 00 00 af 37 71 ff 26 6d 09 00 00 00 00 00 00 00 00 00 00 00 00 00 00 00 00 00 00 00 00 00 00 00 00 00 00 00 00 00 00 00 00 00 00 00 00
# ReportID: 48 / 0xff010030:    9 ,   64 ,    0 ,    0 ,    0 ,  174 ,   55 ,  113 ,    0 ,    7 ,  109 ,    9 ,    0 ,    0 ,    0 ,    0 ,    0 ,    0 ,    0 ,    0 ,    0 ,    0 ,    0 ,    0 ,    0 ,    0 ,    0 ,    0 ,    0 ,    0 ,    0 ,    0 ,    0 ,    0 ,    0 ,    0 ,    0 ,    0 ,    0 ,    0 ,    0 ,    0 ,    0 ,    0 ,    0 ,    0 ,    0 ,    0 
E: 000000.779874 49 30 09 40 00 00 00 ae 37 71 00 07 6d 09 00 00 00 00 00 00 00 00 00 00 00 00 00 00 00 00 00 00 00 00 00 00 00 00 00 00 00 00 00 00 00 00 00 00 00 00
# ReportID: 48 / 0xff010030:   12 ,   64 ,    0 ,    0 ,    0 ,  174 ,   55 ,  113 ,  255 ,   22 ,  109 ,    9 ,    0 ,    0 ,    0 ,    0 ,    0 ,    0 ,    0 ,    0 ,    0 ,    0 ,    0 ,    0 ,    0 ,    0 ,    0 ,    0 ,    0 ,    0 ,    0 ,    0 ,    0 ,    0 ,    0 ,    0 ,    0 ,    0 ,    0 ,    0 ,    0 ,    0 ,    0 ,    0 ,    0 ,    0 ,    0 ,    0 
E: 000000.794878 49 30 0c 40 00 00 00 ae 37 71 ff 16 6d 09 00 00 00 00 00 00 00 00 00 00 00 00 00 00 00 00 00 00 00 00 00 00 00 00 00 00 00 00 00 00 00 00 00 00 00 00
# ReportID: 48 / 0xff010030:   15 ,   64 ,    0 ,    0 ,    0 ,  173 ,   55 ,  113 ,  255 ,    6 ,  109 ,    9 ,    0 ,    0 ,    0 ,    0 ,    0 ,    0 ,    0 ,    0 ,    0 ,    0 ,    0 ,    0 ,    0 ,    0 ,    0 ,    0 ,    0 ,    0 ,    0 ,    0 ,    0 ,    0 ,    0 ,    0 ,    0 ,    0 ,    0 ,    0 ,    0 ,    0 ,    0 ,    0 ,    0 ,    0 ,    0 ,    0 
E: 000000.809929 49 30 0f 40 00 00 00 ad 37 71 ff 06 6d 09 00 00 00 00 00 00 00 00 00 00 00 00 00 00 00 00 00 00 00 00 00 00 00 00 00 00 00 00 00 00 00 00 00 00 00 00
# ReportID: 48 / 0xff010030:   18 ,   64 ,    2 ,    0 ,    0 ,  174 ,   23 ,  113 ,  255 ,    6 ,  109 ,    9 ,    0 ,    0 ,    0 ,    0 ,    0 ,    0 ,    0 ,    0 ,    0 ,    0 ,    0 ,    0 ,    0 ,    0 ,    0 ,    0 ,    0 ,    0 ,    0 ,    0 ,    0 ,    0 ,    0 ,    0 ,    0 ,    0 ,    0 ,    0 ,    0 ,    0 ,    0 ,    0 ,    0 ,    0 ,    0 ,    0 
E: 000000.824927 49 30 12 40 02 00 00 ae 17 71 ff 06 6d 09 00 00 00 00 00 00 00 00 00 00 00 00 00 00 00 00 00 00 00 00 00 00 00 00 00 00 00 00 00 00 00 00 00 00 00 00
# ReportID: 48 / 0xff010030:   21 ,   64 ,    2 ,    0 ,    0 ,  173 ,   55 ,  113 ,  255 ,    6 ,  109 ,    9 ,    0 ,    0 ,    0 ,    0 ,    0 ,    0 ,    0 ,    0 ,    0 ,    0 ,    0 ,    0 ,    0 ,    0 ,    0 ,    0 ,    0 ,    0 ,    0 ,    0 ,    0 ,    0 ,    0 ,    0 ,    0 ,    0 ,    0 ,    0 ,    0 ,    0 ,    0 ,    0 ,    0 ,    0 ,    0 ,    0 
E: 000000.839911 49 30 15 40 02 00 00 ad 37 71 ff 06 6d 09 00 00 00 00 00 00 00 00 00 00 00 00 00 00 00 00 00 00 00 00 00 00 00 00 00 00 00 00 00 00 00 00 00 00 00 00
# ReportID: 48 / 0xff010030:   24 ,   64 ,    2 ,    0 ,    0 ,  174 ,   39 ,  113 ,  254 ,   38 ,  109 ,    9 ,    0 ,    0 ,    0 ,    0 ,    0 ,    0 ,    0 ,    0 ,    0 ,    0 ,    0 ,    0 ,    0 ,    0 ,    0 ,    0 ,    0 ,    0 ,    0 ,    0 ,    0 ,    0 ,    0 ,    0 ,    0 ,    0 ,    0 ,    0 ,    0 ,    0 ,    0 ,    0 ,    0 ,    0 ,    0 ,    0 
E: 000000.854880 49 30 18 40 02 00 00 ae 27 71 fe 26 6d 09 00 00 00 00 00 00 00 00 00 00 00 00 00 00 00 00 00 00 00 00 00 00 00 00 00 00 00 00 00 00 00 00 00 00 00 00
# ReportID: 48 / 0xff010030:   27 ,   64 ,    2 ,    0 ,    0 ,  174 ,   39 ,  113 ,  255 ,    6 ,  109 ,    9 ,    0 ,    0 ,    0 ,    0 ,    0 ,    0 ,    0 ,    0 ,    0 ,    0 ,    0 ,    0 ,    0 ,    0 ,    0 ,    0 ,    0 ,    0 ,    0 ,    0 ,    0 ,    0 ,    0 ,    0 ,    0 ,    0 ,    0 ,    0 ,    0 ,    0 ,    0 ,    0 ,    0 ,    0 ,    0 ,    0 
E: 000000.869876 49 30 1b 40 02 00 00 ae 27 71 ff 06 6d 09 00 00 00 00 00 00 00 00 00 00 00 00 00 00 00 00 00 00 00 00 00 00 00 00 00 00 00 00 00 00 00 00 00 00 00 00
# ReportID: 48 / 0xff010030:   30 ,   64 ,    2 ,    0 ,    0 ,  174 ,   39 ,  113 ,  255 ,    6 ,  109 ,    9 ,    0 ,    0 ,    0 ,    0 ,    0 ,    0 ,    0 ,    0 ,    0 ,    0 ,    0 ,    0 ,    0 ,    0 ,    0 ,    0 ,    0 ,    0 ,    0 ,    0 ,    0 ,    0 ,    0 ,    0 ,    0 ,    0 ,    0 ,    0 ,    0 ,    0 ,    0 ,    0 ,    0 ,    0 ,    0 ,    0 
E: 000000.884876 49 30 1e 40 02 00 00 ae 27 71 ff 06 6d 09 00 00 00 00 00 00 00 00 00 00 00 00 00 00 00 00 00 00 00 00 00 00 00 00 00 00 00 00 00 00 00 00 00 00 00 00
# ReportID: 48 / 0xff010030:   33 ,   64 ,    2 ,    0 ,    0 ,  174 ,   39 ,  113 ,    0 ,    7 ,  109 ,    9 ,    0 ,    0 ,    0 ,    0 ,    0 ,    0 ,    0 ,    0 ,    0 ,    0 ,    0 ,    0 ,    0 ,    0 ,    0 ,    0 ,    0 ,    0 ,    0 ,    0 ,    0 ,    0 ,    0 ,    0 ,    0 ,    0 ,    0 ,    0 ,    0 ,    0 ,    0 ,    0 ,    0 ,    0 ,    0 ,    0 
E: 000000.899875 49 30 21 40 02 00 00 ae 27 71 00 07 6d 09 00 00 00 00 00 00 00 00 00 00 00 00 00 00 00 00 00 00 00 00 00 00 00 00 00 00 00 00 00 00 00 00 00 00 00 00
# ReportID: 48 / 0xff010030:   36 ,   64 ,    2 ,    0 ,    0 ,  173 ,   39 ,  113 ,  255 ,   22 ,  109 ,    9 ,    0 ,    0 ,    0 ,    0 ,    0 ,    0 ,    0 ,    0 ,    0 ,    0 ,    0 ,    0 ,    0 ,    0 ,    0 ,    0 ,    0 ,    0 ,    0 ,    0 ,    0 ,    0 ,    0 ,    0 ,    0 ,    0 ,    0 ,    0 ,    0 ,    0 ,    0 ,    0 ,    0 ,    0 ,    0 ,    0 
E: 000000.914874 49 30 24 40 02 00 00 ad 27 71 ff 16 6d 09 00 00 00 00 00 00 00 00 00 00 00 00 00 00 00 00 00 00 00 00 00 00 00 00 00 00 00 00 00 00 00 00 00 00 00 00
# ReportID: 48 / 0xff010030:   39 ,   64 ,    2 ,    0 ,    0 ,  174 ,   55 ,  113 ,  255 ,   22 ,  109 ,    9 ,    0 ,    0 ,    0 ,    0 ,    0 ,    0 ,    0 ,    0 ,    0 ,    0 ,    0 ,    0 ,    0 ,    0 ,    0 ,    0 ,    0 ,    0 ,    0 ,    0 ,    0 ,    0 ,    0 ,    0 ,    0 ,    0 ,    0 ,    0 ,    0 ,    0 ,    0 ,    0 ,    0 ,    0 ,    0 ,    0 
E: 000000.929882 49 30 27 40 02 00 00 ae 37 71 ff 16 6d 09 00 00 00 00 00 00 00 00 00 00 00 00 00 00 00 00 00 00 00 00 00 00 00 00 00 00 00 00 00 00 00 00 00 00 00 00
# ReportID: 48 / 0xff010030:   42 ,   64 ,    2 ,    0 ,    0 ,  174 ,   55 ,  113 ,    0 ,    7 ,  109 ,    9 ,    0 ,    0 ,    0 ,    0 ,    0 ,    0 ,    0 ,    0 ,    0 ,    0 ,    0 ,    0 ,    0 ,    0 ,    0 ,    0 ,    0 ,    0 ,    0 ,    0 ,    0 ,    0 ,    0 ,    0 ,    0 ,    0 ,    0 ,    0 ,    0 ,    0 ,    0 ,    0 ,    0 ,    0 ,    0 ,    0 
E: 000000.944875 49 30 2a 40 02 00 00 ae 37 71 00 07 6d 09 00 00 00 00 00 00 00 00 00 00 00 00 00 00 00 00 00 00 00 00 00 00 00 00 00 00 00 00 00 00 00 00 00 00 00 00
# ReportID: 48 / 0xff010030:   45 ,   64 ,    2 ,    0 ,    0 ,  174 ,   55 ,  113 ,    0 ,    7 ,  109 ,    9 ,    0 ,    0 ,    0 ,    0 ,    0 ,    0 ,    0 ,    0 ,    0 ,    0 ,    0 ,    0 ,    0 ,    0 ,    0 ,    0 ,    0 ,    0 ,    0 ,    0 ,    0 ,    0 ,    0 ,    0 ,    0 ,    0 ,    0 ,    0 ,    0 ,    0 ,    0 ,    0 ,    0 ,    0 ,    0 ,    0 
E: 000000.959880 49 30 2d 40 02 00 00 ae 37 71 00 07 6d 09 00 00 00 00 00 00 00 00 00 00 00 00 00 00 00 00 00 00 00 00 00 00 00 00 00 00 00 00 00 00 00 00 00 00 00 00
# ReportID: 48 / 0xff010030:   48 ,   64 ,    0 ,    0 ,    0 ,  175 ,   71 ,  113 ,  255 ,   22 ,  109 ,    9 ,    0 ,    0 ,    0 ,    0 ,    0 ,    0 ,    0 ,    0 ,    0 ,    0 ,    0 ,    0 ,    0 ,    0 ,    0 ,    0 ,    0 ,    0 ,    0 ,    0 ,    0 ,    0 ,    0 ,    0 ,    0 ,    0 ,    0 ,    0 ,    0 ,    0 ,    0 ,    0 ,    0 ,    0 ,    0 ,    0 
E: 000000.974877 49 30 30 40 00 00 00 af 47 71 ff 16 6d 09 00 00 00 00 00 00 00 00 00 00 00 00 00 00 00 00 00 00 00 00 00 00 00 00 00 00 00 00 00 00 00 00 00 00 00 00
# ReportID: 48 / 0xff010030:   51 ,   64 ,    0 ,    0 ,    0 ,  174 ,   55 ,  113 ,  255 ,    6 ,  109 ,    9 ,    0 ,    0 ,    0 ,    0 ,    0 ,    0 ,    0 ,    0 ,    0 ,    0 ,    0 ,    0 ,    0 ,    0 ,    0 ,    0 ,    0 ,    0 ,    0 ,    0 ,    0 ,    0 ,    0 ,    0 ,    0 ,    0 ,    0 ,    0 ,    0 ,    0 ,    0 ,    0 ,    0 ,    0 ,    0 ,    0 
E: 000000.989874 49 30 33 40 00 00 00 ae 37 71 ff 06 6d 09 00 00 00 00 00 00 00 00 00 00 00 00 00 00 00 00 00 00 00 00 00 00 00 00 00 00 00 00 00 00 00 00 00 00 00 00
# ReportID: 48 / 0xff010030:   54 ,   64 ,    0 ,    0 ,    0 ,  175 ,   71 ,  113 ,    0 ,    7 ,  109 ,    9 ,    0 ,    0 ,    0 ,    0 ,    0 ,    0 ,    0 ,    0 ,    0 ,    0 ,    0 ,    0 ,    0 ,    0 ,    0 ,    0 ,    0 ,    0 ,    0 ,    0 ,    0 ,    0 ,    0 ,    0 ,    0 ,    0 ,    0 ,    0 ,    0 ,    0 ,    0 ,    0 ,    0 ,    0 ,    0 ,    0 
E: 000001.004895 49 30 36 40 00 00 00 af 47 71 00 07 6d 09 00 00 00 00 00 00 00 00 00 00 00 00 00 00 00 00 00 00 00 00 00 00 00 00 00 00 00 00 00 00 00 00 00 00 00 00
# ReportID: 48 / 0xff010030:   57 ,   64 ,    0 ,    0 ,    0 ,  174 ,   55 ,  113 ,    0 ,    7 ,  109 ,    9 ,    0 ,    0 ,    0 ,    0 ,    0 ,    0 ,    0 ,    0 ,    0 ,    0 ,    0 ,    0 ,    0 ,    0 ,    0 ,    0 ,    0 ,    0 ,    0 ,    0 ,    0 ,    0 ,    0 ,    0 ,    0 ,    0 ,    0 ,    0 ,    0 ,    0 ,    0 ,    0 ,    0 ,    0 ,    0 ,    0 
E: 000001.019860 49 30 39 40 00 00 00 ae 37 71 00 07 6d 09 00 00 00 00 00 00 00 00 00 00 00 00 00 00 00 00 00 00 00 00 00 00 00 00 00 00 00 00 00 00 00 00 00 00 00 00
# ReportID: 48 / 0xff010030:   60 ,   64 ,    0 ,    0 ,    0 ,  175 ,   55 ,  113 ,    1 ,   23 ,  109 ,    9 ,    0 ,    0 ,    0 ,    0 ,    0 ,    0 ,    0 ,    0 ,    0 ,    0 ,    0 ,    0 ,    0 ,    0 ,    0 ,    0 ,    0 ,    0 ,    0 ,    0 ,    0 ,    0 ,    0 ,    0 ,    0 ,    0 ,    0 ,    0 ,    0 ,    0 ,    0 ,    0 ,    0 ,    0 ,    0 ,    0 
E: 000001.034886 49 30 3c 40 00 00 00 af 37 71 01 17 6d 09 00 00 00 00 00 00 00 00 00 00 00 00 00 00 00 00 00 00 00 00 00 00 00 00 00 00 00 00 00 00 00 00 00 00 00 00
# ReportID: 48 / 0xff010030:   63 ,   64 ,    0 ,    0 ,    0 ,  176 ,   39 ,  113 ,    0 ,    7 ,  109 ,    9 ,    0 ,    0 ,    0 ,    0 ,    0 ,    0 ,    0 ,    0 ,    0 ,    0 ,    0 ,    0 ,    0 ,    0 ,    0 ,    0 ,    0 ,    0 ,    0 ,    0 ,    0 ,    0 ,    0 ,    0 ,    0 ,    0 ,    0 ,    0 ,    0 ,    0 ,    0 ,    0 ,    0 ,    0 ,    0 ,    0 
E: 000001.049877 49 30 3f 40 00 00 00 b0 27 71 00 07 6d 09 00 00 00 00 00 00 00 00 00 00 00 00 00 00 00 00 00 00 00 00 00 00 00 00 00 00 00 00 00 00 00 00 00 00 00 00
# ReportID: 48 / 0xff010030:   66 ,   64 ,    0 ,    0 ,    0 ,  176 ,   55 ,  113 ,  255 ,   22 ,  109 ,    9 ,    0 ,    0 ,    0 ,    0 ,    0 ,    0 ,    0 ,    0 ,    0 ,    0 ,    0 ,    0 ,    0 ,    0 ,    0 ,    0 ,    0 ,    0 ,    0 ,    0 ,    0 ,    0 ,    0 ,    0 ,    0 ,    0 ,    0 ,    0 ,    0 ,    0 ,    0 ,    0 ,    0 ,    0 ,    0 ,    0 
E: 000001.064876 49 30 42 40 00 00 00 b0 37 71 ff 16 6d 09 00 00 00 00 00 00 00 00 00 00 00 00 00 00 00 00 00 00 00 00 00 00 00 00 00 00 00 00 00 00 00 00 00 00 00 00
# ReportID: 48 / 0xff010030:   69 ,   64 ,    0 ,    0 ,    0 ,  175 ,   71 ,  113 ,  255 ,    6 ,  109 ,    9 ,    0 ,    0 ,    0 ,    0 ,    0 ,    0 ,    0 ,    0 ,    0 ,    0 ,    0 ,    0 ,    0 ,    0 ,    0 ,    0 ,    0 ,    0 ,    0 ,    0 ,    0 ,    0 ,    0 ,    0 ,    0 ,    0 ,    0 ,    0 ,    0 ,    0 ,    0 ,    0 ,    0 ,    0 ,    0 ,    0 
E: 000001.079877 49 30 45 40 00 00 00 af 47 71 ff 06 6d 09 00 00 00 00 00 00 00 00 00 00 00 00 00 00 00 00 00 00 00 00 00 00 00 00 00 00 00 00 00 00 00 00 00 00 00 00
# ReportID: 48 / 0xff010030:   72 ,   64 ,    0 ,    0 ,    0 ,  174 ,   55 ,  113 ,    1 ,    7 ,  109 ,    9 ,    0 ,    0 ,    0 ,    0 ,    0 ,    0 ,    0 ,    0 ,    0 ,    0 ,    0 ,    0 ,    0 ,    0 ,    0 ,    0 ,    0 ,    0 ,    0 ,    0 ,    0 ,    0 ,    0 ,    0 ,    0 ,    0 ,    0 ,    0 ,    0 ,    0 ,    0 ,    0 ,    0 ,    0 ,    0 ,    0 
E: 000001.094876 49 30 48 40 00 00 00 ae 37 71 01 07 6d 09 00 00 00 00 00 00 00 00 00 00 00 00 00 00 00 00 00 00 00 00 00 00 00 00 00 00 00 00 00 00 00 00 00 00 00 00
# ReportID: 48 / 0xff010030:   75 ,   64 ,    0 ,    0 ,    0 ,  174 ,   55 ,  113 ,  255 ,    6 ,  109 ,    9 ,    0 ,    0 ,    0 ,    0 ,    0 ,    0 ,    0 ,    0 ,    0 ,    0 ,    0 ,    0 ,    0 ,    0 ,    0 ,    0 ,    0 ,    0 ,    0 ,    0 ,    0 ,    0 ,    0 ,    0 ,    0 ,    0 ,    0 ,    0 ,    0 ,    0 ,    0 ,    0 ,    0 ,    0 ,    0 ,    0 
E: 000001.109875 49 30 4b 40 00 00 00 ae 37 71 ff 06 6d 09 00 00 00 00 00 00 00 00 00 00 00 00 00 00 00 00 00 00 00 00 00 00 00 00 00 00 00 00 00 00 00 00 00 00 00 00
# ReportID: 48 / 0xff010030:   78 ,   64 ,    0 ,    0 ,    0 ,  174 ,   55 ,  113 ,    0 ,    7 ,  109 ,    9 ,    0 ,    0 ,    0 ,    0 ,    0 ,    0 ,    0 ,    0 ,    0 ,    0 ,    0 ,    0 ,    0 ,    0 ,    0 ,    0 ,    0 ,    0 ,    0 ,    0 ,    0 ,    0 ,    0 ,    0 ,    0 ,    0 ,    0 ,    0 ,    0 ,    0 ,    0 ,    0 ,    0 ,    0 ,    0 ,    0 
E: 000001.124890 49 30 4e 40 00 00 00 ae 37 71 00 07 6d 09 00 00 00 00 00 00 00 00 00 00 00 00 00 00 00 00 00 00 00 00 00 00 00 00 00 00 00 00 00 00 00 00 00 00 00 00
# ReportID: 48 / 0xff010030:   81 ,   64 ,    8 ,    0 ,    0 ,  174 ,   87 ,  113 ,  255 ,    6 ,  109 ,    9 ,    0 ,    0 ,    0 ,    0 ,    0 ,    0 ,    0 ,    0 ,    0 ,    0 ,    0 ,    0 ,    0 ,    0 ,    0 ,    0 ,    0 ,    0 ,    0 ,    0 ,    0 ,    0 ,    0 ,    0 ,    0 ,    0 ,    0 ,    0 ,    0 ,    0 ,    0 ,    0 ,    0 ,    0 ,    0 ,    0 
E: 000001.139893 49 30 51 40 08 00 00 ae 57 71 ff 06 6d 09 00 00 00 00 00 00 00 00 00 00 00 00 00 00 00 00 00 00 00 00 00 00 00 00 00 00 00 00 00 00 00 00 00 00 00 00
# ReportID: 48 / 0xff010030:   84 ,   64 ,    8 ,    0 ,    0 ,  175 ,   55 ,  113 ,    0 ,  247 ,  108 ,    9 ,    0 ,    0 ,    0 ,    0 ,    0 ,    0 ,    0 ,    0 ,    0 ,    0 ,    0 ,    0 ,    0 ,    0 ,    0 ,    0 ,    0 ,    0 ,    0 ,    0 ,    0 ,    0 ,    0 ,    0 ,    0 ,    0 ,    0 ,    0 ,    0 ,    0 ,    0 ,    0 ,    0 ,    0 ,    0 ,    0 
E: 000001.154878 49 30 54 40 08 00 00 af 37 71 00 f7 6c 09 00 00 00 00 00 00 00 00 00 00 00 00 00 00 00 00 00 00 00 00 00 00 00 00 00 00 00 00 00 00 00 00 00 00 00 00
# ReportID: 48 / 0xff010030:   87 ,   64 ,    8 ,    0 ,    0 ,  174 ,   55 ,  113 ,    0 ,   39 ,  109 ,    9 ,    0 ,    0 ,    0 ,    0 ,    0 ,    0 ,    0 ,    0 ,    0 ,    0 ,    0 ,    0 ,    0 ,    0 ,    0 ,    0 ,    0 ,    0 ,    0 ,    0 ,    0 ,    0 ,    0 ,    0 ,    0 ,    0 ,    0 ,    0 ,    0 ,    0 ,    0 ,    0 ,    0 ,    0 ,    0 ,    0 
E: 000001.169873 49 30 57 40 08 00 00 ae 37 71 00 27 6d 09 00 00 00 00 00 00 00 00 00 00 00 00 00 00 00 00 00 00 00 00 00 00 00 00 00 00 00 00 00 00 00 00 00 00 00 00
# ReportID: 48 / 0xff010030:   90 ,   64 ,    8 ,    0 ,    0 ,  174 ,   39 ,  113 ,    0 ,    7 ,  109 ,    9 ,    0 ,    0 ,    0 ,    0 ,    0 ,    0 ,    0 ,    0 ,    0 ,    0 ,    0 ,    0 ,    0 ,    0 ,    0 ,    0 ,    0 ,    0 ,    0 ,    0 ,    0 ,    0 ,    0 ,    0 ,    0 ,    0 ,    0 ,    0 ,    0 ,    0 ,    0 ,    0 ,    0 ,    0 ,    0 ,    0 
E: 000001.199880 49 30 5a 40 08 00 00 ae 27 71 00 07 6d 09 00 00 00 00 00 00 00 00 00 00 00 00 00 00 00 00 00 00 00 00 00 00 00 00 00 00 00 00 00 00 00 00 00 00 00 00
# ReportID: 48 / 0xff010030:   93 ,   64 ,    8 ,    0 ,    0 ,  175 ,   87 ,  113 ,    0 ,    7 ,  109 ,    9 ,    0 ,    0 ,    0 ,    0 ,    0 ,    0 ,    0 ,    0 ,    0 ,    0 ,    0 ,    0 ,    0 ,    0 ,    0 ,    0 ,    0 ,    0 ,    0 ,    0 ,    0 ,    0 ,    0 ,    0 ,    0 ,    0 ,    0 ,    0 ,    0 ,    0 ,    0 ,    0 ,    0 ,    0 ,    0 ,    0 
E: 000001.202977 49 30 5d 40 08 00 00 af 57 71 00 07 6d 09 00 00 00 00 00 00 00 00 00 00 00 00 00 00 00 00 00 00 00 00 00 00 00 00 00 00 00 00 00 00 00 00 00 00 00 00
# ReportID: 48 / 0xff010030:   96 ,   64 ,    8 ,    0 ,    0 ,  175 ,   39 ,  113 ,  255 ,    6 ,  109 ,    9 ,    0 ,    0 ,    0 ,    0 ,    0 ,    0 ,    0 ,    0 ,    0 ,    0 ,    0 ,    0 ,    0 ,    0 ,    0 ,    0 ,    0 ,    0 ,    0 ,    0 ,    0 ,    0 ,    0 ,    0 ,    0 ,    0 ,    0 ,    0 ,    0 ,    0 ,    0 ,    0 ,    0 ,    0 ,    0 ,    0 
E: 000001.214841 49 30 60 40 08 00 00 af 27 71 ff 06 6d 09 00 00 00 00 00 00 00 00 00 00 00 00 00 00 00 00 00 00 00 00 00 00 00 00 00 00 00 00 00 00 00 00 00 00 00 00
# ReportID: 48 / 0xff010030:   99 ,   64 ,    8 ,    0 ,    0 ,  175 ,   71 ,  113 ,    0 ,   23 ,  109 ,    9 ,    0 ,    0 ,    0 ,    0 ,    0 ,    0 ,    0 ,    0 ,    0 ,    0 ,    0 ,    0 ,    0 ,    0 ,    0 ,    0 ,    0 ,    0 ,    0 ,    0 ,    0 ,    0 ,    0 ,    0 ,    0 ,    0 ,    0 ,    0 ,    0 ,    0 ,    0 ,    0 ,    0 ,    0 ,    0 ,    0 
E: 000001.229884 49 30 63 40 08 00 00 af 47 71 00 17 6d 09 00 00 00 00 00 00 00 00 00 00 00 00 00 00 00 00 00 00 00 00 00 00 00 00 00 00 00 00 00 00 00 00 00 00 00 00
# ReportID: 48 / 0xff010030:  102 ,   64 ,    8 ,    0 ,    0 ,  175 ,   55 ,  113 ,  255 ,  246 ,  108 ,    9 ,    0 ,    0 ,    0 ,    0 ,    0 ,    0 ,    0 ,    0 ,    0 ,    0 ,    0 ,    0 ,    0 ,    0 ,    0 ,    0 ,    0 ,    0 ,    0 ,    0 ,    0 ,    0 ,    0 ,    0 ,    0 ,    0 ,    0 ,    0 ,    0 ,    0 ,    0 ,    0 ,    0 ,    0 ,    0 ,    0 
E: 000001.244872 49 30 66 40 08 00 00 af 37 71 ff f6 6c 09 00 00 00 00 00 00 00 00 00 00 00 00 00 00 00 00 00 00 00 00 00 00 00 00 00 00 00 00 00 00 00 00 00 00 00 00
# ReportID: 48 / 0xff010030:  105 ,   64 ,    8 ,    0 ,    0 ,  174 ,   55 ,  113 ,    0 ,   23 ,  109 ,    9 ,    0 ,    0 ,    0 ,    0 ,    0 ,    0 ,    0 ,    0 ,    0 ,    0 ,    0 ,    0 ,    0 ,    0 ,    0 ,    0 ,    0 ,    0 ,    0 ,    0 ,    0 ,    0 ,    0 ,    0 ,    0 ,    0 ,    0 ,    0 ,    0 ,    0 ,    0 ,    0 ,    0 ,    0 ,    0 ,    0 
E: 000001.259874 49 30 69 40 08 00 00 ae 37 71 00 17 6d 09 00 00 00 00 00 00 00 00 00 00 00 00 00 00 00 00 00 00 00 00 00 00 00 00 00 00 00 00 00 00 00 00 00 00 00 00
# ReportID: 48 / 0xff010030:  108 ,   64 ,    0 ,    0 ,    0 ,  175 ,   55 ,  113 ,    0 ,    7 ,  109 ,    9 ,    0 ,    0 ,    0 ,    0 ,    0 ,    0 ,    0 ,    0 ,    0 ,    0 ,    0 ,    0 ,    0 ,    0 ,    0 ,    0 ,    0 ,    0 ,    0 ,    0 ,    0 ,    0 ,    0 ,    0 ,    0 ,    0 ,    0 ,    0 ,    0 ,    0 ,    0 ,    0 ,    0 ,    0 ,    0 ,    0 
E: 000001.274875 49 30 6c 40 00 00 00 af 37 71 00 07 6d 09 00 00 00 00 00 00 00 00 00 00 00 00 00 00 00 00 00 00 00 00 00 00 00 00 00 00 00 00 00 00 00 00 00 00 00 00
# ReportID: 48 / 0xff010030:  111 ,   64 ,    0 ,    0 ,    0 ,  174 ,   55 ,  113 ,  255 ,    6 ,  109 ,    9 ,    0 ,    0 ,    0 ,    0 ,    0 ,    0 ,    0 ,    0 ,    0 ,    0 ,    0 ,    0 ,    0 ,    0 ,    0 ,    0 ,    0 ,    0 ,    0 ,    0 ,    0 ,    0 ,    0 ,    0 ,    0 ,    0 ,    0 ,    0 ,    0 ,    0 ,    0 ,    0 ,    0 ,    0 ,    0 ,    0 
E: 000001.289872 49 30 6f 40 00 00 00 ae 37 71 ff 06 6d 09 00 00 00 00 00 00 00 00 00 00 00 00 00 00 00 00 00 00 00 00 00 00 00 00 00 00 00 00 00 00 00 00 00 00 00 00
# ReportID: 48 / 0xff010030:  114 ,   64 ,    0 ,    0 ,    0 ,  175 ,   39 ,  113 ,    0 ,    7 ,  109 ,    9 ,    0 ,    0 ,    0 ,    0 ,    0 ,    0 ,    0 ,    0 ,    0 ,    0 ,    0 ,    0 ,    0 ,    0 ,    0 ,    0 ,    0 ,    0 ,    0 ,    0 ,    0 ,    0 ,    0 ,    0 ,    0 ,    0 ,    0 ,    0 ,    0 ,    0 ,    0 ,    0 ,    0 ,    0 ,    0 ,    0 
E: 000001.304871 49 30 72 40 00 00 00 af 27 71 00 07 6d 09 00 00 00 00 00 00 00 00 00 00 00 00 00 00 00 00 00 00 00 00 00 00 00 00 00 00 00 00 00 00 00 00 00 00 00 00
# ReportID: 48 / 0xff010030:  117 ,   64 ,    0 ,    0 ,    0 ,  174 ,   55 ,  113 ,  255 ,   22 ,  109 ,    9 ,    0 ,    0 ,    0 ,    0 ,    0 ,    0 ,    0 ,    0 ,    0 ,    0 ,    0 ,    0 ,    0 ,    0 ,    0 ,    0 ,    0 ,    0 ,    0 ,    0 ,    0 ,    0 ,    0 ,    0 ,    0 ,    0 ,    0 ,    0 ,    0 ,    0 ,    0 ,    0 ,    0 ,    0 ,    0 ,    0 
E: 000001.319869 49 30 75 40 00 00 00 ae 37 71 ff 16 6d 09 00 00 00 00 00 00 00 00 00 00 00 00 00 00 00 00 00 00 00 00 00 00 00 00 00 00 00 00 00 00 00 00 00 00 00 00
# ReportID: 48 / 0xff010030:  120 ,   64 ,    0 ,    0 ,    0 ,  174 ,   55 ,  113 ,    0 ,   23 ,  109 ,    9 ,    0 ,    0 ,    0 ,    0 ,    0 ,    0 ,    0 ,    0 ,    0 ,    0 ,    0 ,    0 ,    0 ,    0 ,    0 ,    0 ,    0 ,    0 ,    0 ,    0 ,    0 ,    0 ,    0 ,    0 ,    0 ,    0 ,    0 ,    0 ,    0 ,    0 ,    0 ,    0 ,    0 ,    0 ,    0 ,    0 
E: 000001.334876 49 30 78 40 00 00 00 ae 37 71 00 17 6d 09 00 00 00 00 00 00 00 00 00 00 00 00 00 00 00 00 00 00 00 00 00 00 00 00 00 00 00 00 00 00 00 00 00 00 00 00
# ReportID: 48 / 0xff010030:  123 ,   64 ,    0 ,    0 ,    0 ,  175 ,   55 ,  113 ,    0 ,   39 ,  109 ,    9 ,    0 ,    0 ,    0 ,    0 ,    0 ,    0 ,    0 ,    0 ,    0 ,    0 ,    0 ,    0 ,    0 ,    0 ,    0 ,    0 ,    0 ,    0 ,    0 ,    0 ,    0 ,    0 ,    0 ,    0 ,    0 ,    0 ,    0 ,    0 ,    0 ,    0 ,    0 ,    0 ,    0 ,    0 ,    0 ,    0 
E: 000001.349876 49 30 7b 40 00 00 00 af 37 71 00 27 6d 09 00 00 00 00 00 00 00 00 00 00 00 00 00 00 00 00 00 00 00 00 00 00 00 00 00 00 00 00 00 00 00 00 00 00 00 00
# ReportID: 48 / 0xff010030:  126 ,   64 ,    0 ,    0 ,    0 ,  174 ,   55 ,  113 ,  255 ,  246 ,  108 ,    9 ,    0 ,    0 ,    0 ,    0 ,    0 ,    0 ,    0 ,    0 ,    0 ,    0 ,    0 ,    0 ,    0 ,    0 ,    0 ,    0 ,    0 ,    0 ,    0 ,    0 ,    0 ,    0 ,    0 ,    0 ,    0 ,    0 ,    0 ,    0 ,    0 ,    0 ,    0 ,    0 ,    0 ,    0 ,    0 ,    0 
E: 000001.364869 49 30 7e 40 00 00 00 ae 37 71 ff f6 6c 09 00 00 00 00 00 00 00 00 00 00 00 00 00 00 00 00 00 00 00 00 00 00 00 00 00 00 00 00 00 00 00 00 00 00 00 00
# ReportID: 48 / 0xff010030:  129 ,   64 ,    0 ,    0 ,    0 ,  173 ,   71 ,  113 ,    0 ,    7 ,  109 ,    9 ,    0 ,    0 ,    0 ,    0 ,    0 ,    0 ,    0 ,    0 ,    0 ,    0 ,    0 ,    0 ,    0 ,    0 ,    0 ,    0 ,    0 ,    0 ,    0 ,    0 ,    0 ,    0 ,    0 ,    0 ,    0 ,    0 ,    0 ,    0 ,    0 ,    0 ,    0 ,    0 ,    0 ,    0 ,    0 ,    0 
E: 000001.379869 49 30 81 40 00 00 00 ad 47 71 00 07 6d 09 00 00 00 00 00 00 00 00 00 00 00 00 00 00 00 00 00 00 00 00 00 00 00 00 00 00 00 00 00 00 00 00 00 00 00 00
# ReportID: 48 / 0xff010030:  132 ,   64 ,    0 ,    0 ,    0 ,  174 ,   55 ,  113 ,    0 ,    7 ,  109 ,    9 ,    0 ,    0 ,    0 ,    0 ,    0 ,    0 ,    0 ,    0 ,    0 ,    0 ,    0 ,    0 ,    0 ,    0 ,    0 ,    0 ,    0 ,    0 ,    0 ,    0 ,    0 ,    0 ,    0 ,    0 ,    0 ,    0 ,    0 ,    0 ,    0 ,    0 ,    0 ,    0 ,    0 ,    0 ,    0 ,    0 
E: 000001.394875 49 30 84 40 00 00 00 ae 37 71 00 07 6d 09 00 00 00 00 00 00 00 00 00 00 00 00 00 00 00 00 00 00 00 00 00 00 00 00 00 00 00 00 00 00 00 00 00 00 00 00
# ReportID: 48 / 0xff010030:  135 ,   64 ,    0 ,    0 ,    0 ,  173 ,   55 ,  113 ,  255 ,   22 ,  109 ,    9 ,    0 ,    0 ,    0 ,    0 ,    0 ,    0 ,    0 ,    0 ,    0 ,    0 ,    0 ,    0 ,    0 ,    0 ,    0 ,    0 ,    0 ,    0 ,    0 ,    0 ,    0 ,    0 ,    0 ,    0 ,    0 ,    0 ,    0 ,    0 ,    0 ,    0 ,    0 ,    0 ,    0 ,    0 ,    0 ,    0 
E: 000001.409870 49 30 87 40 00 00 00 ad 37 71 ff 16 6d 09 00 00 00 00 00 00 00 00 00 00 00 00 00 00 00 00 00 00 00 00 00 00 00 00 00 00 00 00 00 00 00 00 00 00 00 00
# ReportID: 48 / 0xff010030:  138 ,   64 ,    0 ,    0 ,    0 ,  174 ,   39 ,  113 ,  255 ,  230 ,  108 ,    9 ,    0 ,    0 ,    0 ,    0 ,    0 ,    0 ,    0 ,    0 ,    0 ,    0 ,    0 ,    0 ,    0 ,    0 ,    0 ,    0 ,    0 ,    0 ,    0 ,    0 ,    0 ,    0 ,    0 ,    0 ,    0 ,    0 ,    0 ,    0 ,    0 ,    0 ,    0 ,    0 ,    0 ,    0 ,    0 ,    0 
E: 000001.424895 49 30 8a 40 00 00 00 ae 27 71 ff e6 6c 09 00 00 00 00 00 00 00 00 00 00 00 00 00 00 00 00 00 00 00 00 00 00 00 00 00 00 00 00 00 00 00 00 00 00 00 00
# ReportID: 48 / 0xff010030:  141 ,   64 ,    0 ,    0 ,    0 ,  174 ,   39 ,  113 ,    0 ,    7 ,  109 ,    9 ,    0 ,    0 ,    0 ,    0 ,    0 ,    0 ,    0 ,    0 ,    0 ,    0 ,    0 ,    0 ,    0 ,    0 ,    0 ,    0 ,    0 ,    0 ,    0 ,    0 ,    0 ,    0 ,    0 ,    0 ,    0 ,    0 ,    0 ,    0 ,    0 ,    0 ,    0 ,    0 ,    0 ,    0 ,    0 ,    0 
E: 000001.439872 49 30 8d 40 00 00 00 ae 27 71 00 07 6d 09 00 00 00 00 00 00 00 00 00 00 00 00 00 00 00 00 00 00 00 00 00 00 00 00 00 00 00 00 00 00 00 00 00 00 00 00
# ReportID: 48 / 0xff010030:  144 ,   64 ,    4 ,    0 ,    0 ,  174 ,   55 ,  113 ,    0 ,  247 ,  108 ,    9 ,    0 ,    0 ,    0 ,    0 ,    0 ,    0 ,    0 ,    0 ,    0 ,    0 ,    0 ,    0 ,    0 ,    0 ,    0 ,    0 ,    0 ,    0 ,    0 ,    0 ,    0 ,    0 ,    0 ,    0 ,    0 ,    0 ,    0 ,    0 ,    0 ,    0 ,    0 ,    0 ,    0 ,    0 ,    0 ,    0 
E: 000001.454873 49 30 90 40 04 00 00 ae 37 71 00 f7 6c 09 00 00 00 00 00 00 00 00 00 00 00 00 00 00 00 00 00 00 00 00 00 00 00 00 00 00 00 00 00 00 00 00 00 00 00 00
# ReportID: 48 / 0xff010030:  147 ,   64 ,    4 ,    0 ,    0 ,  174 ,   71 ,  113 ,  255 ,   22 ,  109 ,    9 ,    0 ,    0 ,    0 ,    0 ,    0 ,    0 ,    0 ,    0 ,    0 ,    0 ,    0 ,    0 ,    0 ,    0 ,    0 ,    0 ,    0 ,    0 ,    0 ,    0 ,    0 ,    0 ,    0 ,    0 ,    0 ,    0 ,    0 ,    0 ,    0 ,    0 ,    0 ,    0 ,    0 ,    0 ,    0 ,    0 
E: 000001.469879 49 30 93 40 04 00 00 ae 47 71 ff 16 6d 09 00 00 00 00 00 00 00 00 00 00 00 00 00 00 00 00 00 00 00 00 00 00 00 00 00 00 00 00 00 00 00 00 00 00 00 00
# ReportID: 48 / 0xff010030:  150 ,   64 ,    4 ,    0 ,    0 ,  173 ,   39 ,  113 ,    0 ,    7 ,  109 ,    9 ,    0 ,    0 ,    0 ,    0 ,    0 ,    0 ,    0 ,    0 ,    0 ,    0 ,    0 ,    0 ,    0 ,    0 ,    0 ,    0 ,    0 ,    0 ,    0 ,    0 ,    0 ,    0 ,    0 ,    0 ,    0 ,    0 ,    0 ,    0 ,    0 ,    0 ,    0 ,    0 ,    0 ,    0 ,    0 ,    0 
E: 000001.484876 49 30 96 40 04 00 00 ad 27 71 00 07 6d 09 00 00 00 00 00 00 00 00 00 00 00 00 00 00 00 00 00 00 00 00 00 00 00 00 00 00 00 00 00 00 00 00 00 00 00 00
# ReportID: 48 / 0xff010030:  153 ,   64 ,    4 ,    0 ,    0 ,  174 ,   55 ,  113 ,  255 ,    6 ,  109 ,    9 ,    0 ,    0 ,    0 ,    0 ,    0 ,    0 ,    0 ,    0 ,    0 ,    0 ,    0 ,    0 ,    0 ,    0 ,    0 ,    0 ,    0 ,    0 ,    0 ,    0 ,    0 ,    0 ,    0 ,    0 ,    0 ,    0 ,    0 ,    0 ,    0 ,    0 ,    0 ,    0 ,    0 ,    0 ,    0 ,    0 
E: 000001.499872 49 30 99 40 04 00 00 ae 37 71 ff 06 6d 09 00 00 00 00 00 00 00 00 00 00 00 00 00 00 00 00 00 00 00 00 00 00 00 00 00 00 00 00 00 00 00 00 00 00 00 00
# ReportID: 48 / 0xff010030:  156 ,   64 ,    4 ,    0 ,    0 ,  174 ,   39 ,  113 ,  255 ,   22 ,  109 ,    9 ,    0 ,    0 ,    0 ,    0 ,    0 ,    0 ,    0 ,    0 ,    0 ,    0 ,    0 ,    0 ,    0 ,    0 ,    0 ,    0 ,    0 ,    0 ,    0 ,    0 ,    0 ,    0 ,    0 ,    0 ,    0 ,    0 ,    0 ,    0 ,    0 ,    0 ,    0 ,    0 ,    0 ,    0 ,    0 ,    0 
E: 000001.514877 49 30 9c 40 04 00 00 ae 27 71 ff 16 6d 09 00 00 00 00 00 00 00 00 00 00 00 00 00 00 00 00 00 00 00 00 00 00 00 00 00 00 00 00 00 00 00 00 00 00 00 00
# ReportID: 48 / 0xff010030:  159 ,   64 ,    4 ,    0 ,    0 ,  173 ,   55 ,  113 ,    0 ,  247 ,  108 ,    9 ,    0 ,    0 ,    0 ,    0 ,    0 ,    0 ,    0 ,    0 ,    0 ,    0 ,    0 ,    0 ,    0 ,    0 ,    0 ,    0 ,    0 ,    0 ,    0 ,    0 ,    0 ,    0 ,    0 ,    0 ,    0 ,    0 ,    0 ,    0 ,    0 ,    0 ,    0 ,    0 ,    0 ,    0 ,    0 ,    0 
E: 000001.529883 49 30 9f 40 04 00 00 ad 37 71 00 f7 6c 09 00 00 00 00 00 00 00 00 00 00 00 00 00 00 00 00 00 00 00 00 00 00 00 00 00 00 00 00 00 00 00 00 00 00 00 00
# ReportID: 48 / 0xff010030:  162 ,   64 ,    4 ,    0 ,    0 ,  175 ,   71 ,  113 ,    0 ,  247 ,  108 ,    9 ,    0 ,    0 ,    0 ,    0 ,    0 ,    0 ,    0 ,    0 ,    0 ,    0 ,    0 ,    0 ,    0 ,    0 ,    0 ,    0 ,    0 ,    0 ,    0 ,    0 ,    0 ,    0 ,    0 ,    0 ,    0 ,    0 ,    0 ,    0 ,    0 ,    0 ,    0 ,    0 ,    0 ,    0 ,    0 ,    0 
E: 000001.544878 49 30 a2 40 04 00 00 af 47 71 00 f7 6c 09 00 00 00 00 00 00 00 00 00 00 00 00 00 00 00 00 00 00 00 00 00 00 00 00 00 00 00 00 00 00 00 00 00 00 00 00
# ReportID: 48 / 0xff010030:  165 ,   64 ,    4 ,    0 ,    0 ,  174 ,   87 ,  113 ,    0 ,   23 ,  109 ,    9 ,    0 ,    0 ,    0 ,    0 ,    0 ,    0 ,    0 ,    0 ,    0 ,    0 ,    0 ,    0 ,    0 ,    0 ,    0 ,    0 ,    0 ,    0 ,    0 ,    0 ,    0 ,    0 ,    0 ,    0 ,    0 ,    0 ,    0 ,    0 ,    0 ,    0 ,    0 ,    0 ,    0 ,    0 ,    0 ,    0 
E: 000001.559961 49 30 a5 40 04 00 00 ae 57 71 00 17 6d 09 00 00 00 00 00 00 00 00 00 00 00 00 00 00 00 00 00 00 00 00 00 00 00 00 00 00 00 00 00 00 00 00 00 00 00 00
# ReportID: 48 / 0xff010030:  168 ,   64 ,    4 ,    0 ,    0 ,  175 ,   55 ,  113 ,    0 ,    7 ,  109 ,    9 ,    0 ,    0 ,    0 ,    0 ,    0 ,    0 ,    0 ,    0 ,    0 ,    0 ,    0 ,    0 ,    0 ,    0 ,    0 ,    0 ,    0 ,    0 ,    0 ,    0 ,    0 ,    0 ,    0 ,    0 ,    0 ,    0 ,    0 ,    0 ,    0 ,    0 ,    0 ,    0 ,    0 ,    0 ,    0 ,    0 
E: 000001.574845 49 30 a8 40 04 00 00 af 37 71 00 07 6d 09 00 00 00 00 00 00 00 00 00 00 00 00 00 00 00 00 00 00 00 00 00 00 00 00 00 00 00 00 00 00 00 00 00 00 00 00
# ReportID: 48 / 0xff010030:  171 ,   64 ,    0 ,    0 ,    0 ,  175 ,   55 ,  113 ,  255 ,   38 ,  109 ,    9 ,    0 ,    0 ,    0 ,    0 ,    0 ,    0 ,    0 ,    0 ,    0 ,    0 ,    0 ,    0 ,    0 ,    0 ,    0 ,    0 ,    0 ,    0 ,    0 ,    0 ,    0 ,    0 ,    0 ,    0 ,    0 ,    0 ,    0 ,    0 ,    0 ,    0 ,    0 ,    0 ,    0 ,    0 ,    0 ,    0 
E: 000001.589874 49 30 ab 40 00 00 00 af 37 71 ff 26 6d 09 00 00 00 00 00 00 00 00 00 00 00 00 00 00 00 00 00 00 00 00 00 00 00 00 00 00 00 00 00 00 00 00 00 00 00 00
# ReportID: 48 / 0xff010030:  174 ,   64 ,    0 ,    0 ,    0 ,  173 ,   55 ,  113 ,    0 ,    7 ,  109 ,    9 ,    0 ,    0 ,    0 ,    0 ,    0 ,    0 ,    0 ,    0 ,    0 ,    0 ,    0 ,    0 ,    0 ,    0 ,    0 ,    0 ,    0 ,    0 ,    0 ,    0 ,    0 ,    0 ,    0 ,    0 ,    0 ,    0 ,    0 ,    0 ,    0 ,    0 ,    0 ,    0 ,    0 ,    0 ,    0 ,    0 
E: 000001.604870 49 30 ae 40 00 00 00 ad 37 71 00 07 6d 09 00 00 00 00 00 00 00 00 00 00 00 00 00 00 00 00 00 00 00 00 00 00 00 00 00 00 00 00 00 00 00 00 00 00 00 00
# ReportID: 48 / 0xff010030:  177 ,   64 ,    0 ,    0 ,    0 ,  175 ,   55 ,  113 ,  255 ,   22 ,  109 ,    9 ,    0 ,    0 ,    0 ,    0 ,    0 ,    0 ,    0 ,    0 ,    0 ,    0 ,    0 ,    0 ,    0 ,    0 ,    0 ,    0 ,    0 ,    0 ,    0 ,    0 ,    0 ,    0 ,    0 ,    0 ,    0 ,    0 ,    0 ,    0 ,    0 ,    0 ,    0 ,    0 ,    0 ,    0 ,    0 ,    0 
E: 000001.619870 49 30 b1 40 00 00 00 af 37 71 ff 16 6d 09 00 00 00 00 00 00 00 00 00 00 00 00 00 00 00 00 00 00 00 00 00 00 00 00 00 00 00 00 00 00 00 00 00 00 00 00
# ReportID: 48 / 0xff010030:  180 ,   64 ,    0 ,    0 ,    0 ,  174 ,   39 ,  113 ,  255 ,    6 ,  109 ,    9 ,    0 ,    0 ,    0 ,    0 ,    0 ,    0 ,    0 ,    0 ,    0 ,    0 ,    0 ,    0 ,    0 ,    0 ,    0 ,    0 ,    0 ,    0 ,    0 ,    0 ,    0 ,    0 ,    0 ,    0 ,    0 ,    0 ,    0 ,    0 ,    0 ,    0 ,    0 ,    0 ,    0 ,    0 ,    0 ,    0 
E: 000001.634881 49 30 b4 40 00 00 00 ae 27 71 ff 06 6d 09 00 00 00 00 00 00 00 00 00 00 00 00 00 00 00 00 00 00 00 00 00 00 00 00 00 00 00 00 00 00 00 00 00 00 00 00
# ReportID: 48 / 0xff010030:  183 ,   64 ,    0 ,    0 ,    0 ,  174 ,   87 ,  113 ,  255 ,   22 ,  109 ,    9 ,    0 ,    0 ,    0 ,    0 ,    0 ,    0 ,    0 ,    0 ,    0 ,    0 ,    0 ,    0 ,    0 ,    0 ,    0 ,    0 ,    0 ,    0 ,    0 ,    0 ,    0 ,    0 ,    0 ,    0 ,    0 ,    0 ,    0 ,    0 ,    0 ,    0 ,    0 ,    0 ,    0 ,    0 ,    0 ,    0 
E: 000001.649872 49 30 b7 40 00 00 00 ae 57 71 ff 16 6d 09 00 00 00 00 00 00 00 00 00 00 00 00 00 00 00 00 00 00 00 00 00 00 00 00 00 00 00 00 00 00 00 00 00 00 00 00
# ReportID: 48 / 0xff010030:  186 ,   64 ,    0 ,    0 ,    0 ,  175 ,   39 ,  113 ,    0 ,    7 ,  109 ,    9 ,    0 ,    0 ,    0 ,    0 ,    0 ,    0 ,    0 ,    0 ,    0 ,    0 ,    0 ,    0 ,    0 ,    0 ,    0 ,    0 ,    0 ,    0 ,    0 ,    0 ,    0 ,    0 ,    0 ,    0 ,    0 ,    0 ,    0 ,    0 ,    0 ,    0 ,    0 ,    0 ,    0 ,    0 ,    0 ,    0 
E: 000001.664923 49 30 ba 40 00 00 00 af 27 71 00 07 6d 09 00 00 00 00 00 00 00 00 00 00 00 00 00 00 00 00 00 00 00 00 00 00 00 00 00 00 00 00 00 00 00 00 00 00 00 00
# ReportID: 48 / 0xff010030:  189 ,   64 ,    0 ,    0 ,    0 ,  175 ,   39 ,  113 ,    0 ,    7 ,  109 ,    9 ,    0 ,    0 ,    0 ,    0 ,    0 ,    0 ,    0 ,    0 ,    0 ,    0 ,    0 ,    0 ,    0 ,    0 ,    0 ,    0 ,    0 ,    0 ,    0 ,    0 ,    0 ,    0 ,    0 ,    0 ,    0 ,    0 ,    0 ,    0 ,    0 ,    0 ,    0 ,    0 ,    0 ,    0 ,    0 ,    0 
E: 000001.679874 49 30 bd 40 00 00 00 af 27 71 00 07 6d 09 00 00 00 00 00 00 00 00 00 00 00 00 00 00 00 00 00 00 00 00 00 00 00 00 00 00 00 00 00 00 00 00 00 00 00 00
# ReportID: 48 / 0xff010030:  192 ,   64 ,    0 ,    0 ,    0 ,  174 ,   71 ,  113 ,    0 ,   23 ,  109 ,    9 ,    0 ,    0 ,    0 ,    0 ,    0 ,    0 ,    0 ,    0 ,    0 ,    0 ,    0 ,    0 ,    0 ,    0 ,    0 ,    0 ,    0 ,    0 ,    0 ,    0 ,    0 ,    0 ,    0 ,    0 ,    0 ,    0 ,    0 ,    0 ,    0 ,    0 ,    0 ,    0 ,    0 ,    0 ,    0 ,    0 
E: 000001.694885 49 30 c0 40 00 00 00 ae 47 71 00 17 6d 09 00 00 00 00 00 00 00 00 00 00 00 00 00 00 00 00 00 00 00 00 00 00 00 00 00 00 00 00 00 00 00 00 00 00 00 00
# ReportID: 48 / 0xff010030:  195 ,   64 ,    0 ,    0 ,    0 ,  175 ,   55 ,  113 ,  255 ,    6 ,  109 ,    9 ,    0 ,    0 ,    0 ,    0 ,    0 ,    0 ,    0 ,    0 ,    0 ,    0 ,    0 ,    0 ,    0 ,    0 ,    0 ,    0 ,    0 ,    0 ,    0 ,    0 ,    0 ,    0 ,    0 ,    0 ,    0 ,    0 ,    0 ,    0 ,    0 ,    0 ,    0 ,    0 ,    0 ,    0 ,    0 ,    0 
E: 000001.709871 49 30 c3 40 00 00 00 af 37 71 ff 06 6d 09 00 00 00 00 00 00 00 00 00 00 00 00 00 00 00 00 00 00 00 00 00 00 00 00 00 00 00 00 00 00 00 00 00 00 00 00
# ReportID: 48 / 0xff010030:  198 ,   64 ,    0 ,    0 ,    0 ,  174 ,   55 ,  113 ,    0 ,  247 ,  108 ,    9 ,    0 ,    0 ,    0 ,    0 ,    0 ,    0 ,    0 ,    0 ,    0 ,    0 ,    0 ,    0 ,    0 ,    0 ,    0 ,    0 ,    0 ,    0 ,    0 ,    0 ,    0 ,    0 ,    0 ,    0 ,    0 ,    0 ,    0 ,    0 ,    0 ,    0 ,    0 ,    0 ,    0 ,    0 ,    0 ,    0 
E: 000001.724908 49 30 c6 40 00 00 00 ae 37 71 00 f7 6c 09 00 00 00 00 00 00 00 00 00 00 00 00 00 00 00 00 00 00 00 00 00 00 00 00 00 00 00 00 00 00 00 00 00 00 00 00
# ReportID: 48 / 0xff010030:  201 ,   64 ,    0 ,    0 ,    0 ,  174 ,   71 ,  113 ,    0 ,   23 ,  109 ,    9 ,    0 ,    0 ,    0 ,    0 ,    0 ,    0 ,    0 ,    0 ,    0 ,    0 ,    0 ,    0 ,    0 ,    0 ,    0 ,    0 ,    0 ,    0 ,    0 ,    0 ,    0 ,    0 ,    0 ,    0 ,    0 ,    0 ,    0 ,    0 ,    0 ,    0 ,    0 ,    0 ,    0 ,    0 ,    0 ,    0 
E: 000001.739883 49 30 c9 40 00 00 00 ae 47 71 00 17 6d 09 00 00 00 00 00 00 00 00 00 00 00 00 00 00 00 00 00 00 00 00 00 00 00 00 00 00 00 00 00 00 00 00 00 00 00 00
# ReportID: 48 / 0xff010030:  204 ,   64 ,    0 ,    0 ,    0 ,  174 ,   55 ,  113 ,    0 ,  247 ,  108 ,    9 ,    0 ,    0 ,    0 ,    0 ,    0 ,    0 ,    0 ,    0 ,    0 ,    0 ,    0 ,    0 ,    0 ,    0 ,    0 ,    0 ,    0 ,    0 ,    0 ,    0 ,    0 ,    0 ,    0 ,    0 ,    0 ,    0 ,    0 ,    0 ,    0 ,    0 ,    0 ,    0 ,    0 ,    0 ,    0 ,    0 
E: 000001.754880 49 30 cc 40 00 00 00 ae 37 71 00 f7 6c 09 00 00 00 00 00 00 00 00 00 00 00 00 00 00 00 00 00 00 00 00 00 00 00 00 00 00 00 00 00 00 00 00 00 00 00 00
# ReportID: 48 / 0xff010030:  207 ,   64 ,    0 ,    0 ,    0 ,  175 ,   39 ,  113 ,    0 ,   23 ,  109 ,    9 ,    0 ,    0 ,    0 ,    0 ,    0 ,    0 ,    0 ,    0 ,    0 ,    0 ,    0 ,    0 ,    0 ,    0 ,    0 ,    0 ,    0 ,    0 ,    0 ,    0 ,    0 ,    0 ,    0 ,    0 ,    0 ,    0 ,    0 ,    0 ,    0 ,    0 ,    0 ,    0 ,    0 ,    0 ,    0 ,    0 
E: 000001.769872 49 30 cf 40 00 00 00 af 27 71 00 17 6d 09 00 00 00 00 00 00 00 00 00 00 00 00 00 00 00 00 00 00 00 00 00 00 00 00 00 00 00 00 00 00 00 00 00 00 00 00
# ReportID: 48 / 0xff010030:  210 ,   64 ,    0 ,    0 ,    0 ,  174 ,   55 ,  113 ,    0 ,    7 ,  109 ,    9 ,    0 ,    0 ,    0 ,    0 ,    0 ,    0 ,    0 ,    0 ,    0 ,    0 ,    0 ,    0 ,    0 ,    0 ,    0 ,    0 ,    0 ,    0 ,    0 ,    0 ,    0 ,    0 ,    0 ,    0 ,    0 ,    0 ,    0 ,    0 ,    0 ,    0 ,    0 ,    0 ,    0 ,    0 ,    0 ,    0 
E: 000001.784887 49 30 d2 40 00 00 00 ae 37 71 00 07 6d 09 00 00 00 00 00 00 00 00 00 00 00 00 00 00 00 00 00 00 00 00 00 00 00 00 00 00 00 00 00 00 00 00 00 00 00 00
# ReportID: 48 / 0xff010030:  213 ,   64 ,    0 ,    0 ,    0 ,  175 ,   55 ,  113 ,    0 ,   23 ,  109 ,    9 ,    0 ,    0 ,    0 ,    0 ,    0 ,    0 ,    0 ,    0 ,    0 ,    0 ,    0 ,    0 ,    0 ,    0 ,    0 ,    0 ,    0 ,    0 ,    0 ,    0 ,    0 ,    0 ,    0 ,    0 ,    0 ,    0 ,    0 ,    0 ,    0 ,    0 ,    0 ,    0 ,    0 ,    0 ,    0 ,    0 
E: 000001.799870 49 30 d5 40 00 00 00 af 37 71 00 17 6d 09 00 00 00 00 00 00 00 00 00 00 00 00 00 00 00 00 00 00 00 00 00 00 00 00 00 00 00 00 00 00 00 00 00 00 00 00
# ReportID: 48 / 0xff010030:  216 ,   64 ,    0 ,    0 ,    0 ,  174 ,   55 ,  113 ,  254 ,   22 ,  109 ,    9 ,    0 ,    0 ,    0 ,    0 ,    0 ,    0 ,    0 ,    0 ,    0 ,    0 ,    0 ,    0 ,    0 ,    0 ,    0 ,    0 ,    0 ,    0 ,    0 ,    0 ,    0 ,    0 ,    0 ,    0 ,    0 ,    0 ,    0 ,    0 ,    0 ,    0 ,    0 ,    0 ,    0 ,    0 ,    0 ,    0 
E: 000001.814923 49 30 d8 40 00 00 00 ae 37 71 fe 16 6d 09 00 00 00 00 00 00 00 00 00 00 00 00 00 00 00 00 00 00 00 00 00 00 00 00 00 00 00 00 00 00 00 00 00 00 00 00
# ReportID: 48 / 0xff010030:  219 ,   64 ,    0 ,    0 ,    0 ,  174 ,   71 ,  113 ,  255 ,   22 ,  109 ,    9 ,    0 ,    0 ,    0 ,    0 ,    0 ,    0 ,    0 ,    0 ,    0 ,    0 ,    0 ,    0 ,    0 ,    0 ,    0 ,    0 ,    0 ,    0 ,    0 ,    0 ,    0 ,    0 ,    0 ,    0 ,    0 ,    0 ,    0 ,    0 ,    0 ,    0 ,    0 ,    0 ,    0 ,    0 ,    0 ,    0 
E: 000001.829910 49 30 db 40 00 00 00 ae 47 71 ff 16 6d 09 00 00 00 00 00 00 00 00 00 00 00 00 00 00 00 00 00 00 00 00 00 00 00 00 00 00 00 00 00 00 00 00 00 00 00 00
# ReportID: 48 / 0xff010030:  222 ,   64 ,    1 ,    0 ,    0 ,  174 ,   71 ,  113 ,  255 ,   22 ,  109 ,    9 ,    0 ,    0 ,    0 ,    0 ,    0 ,    0 ,    0 ,    0 ,    0 ,    0 ,    0 ,    0 ,    0 ,    0 ,    0 ,    0 ,    0 ,    0 ,    0 ,    0 ,    0 ,    0 ,    0 ,    0 ,    0 ,    0 ,    0 ,    0 ,    0 ,    0 ,    0 ,    0 ,    0 ,    0 ,    0 ,    0 
E: 000001.845036 49 30 de 40 01 00 00 ae 47 71 ff 16 6d 09 00 00 00 00 00 00 00 00 00 00 00 00 00 00 00 00 00 00 00 00 00 00 00 00 00 00 00 00 00 00 00 00 00 00 00 00
# ReportID: 48 / 0xff010030:  225 ,   64 ,    1 ,    0 ,    0 ,  175 ,   55 ,  113 ,  255 ,   38 ,  109 ,    9 ,    0 ,    0 ,    0 ,    0 ,    0 ,    0 ,    0 ,    0 ,    0 ,    0 ,    0 ,    0 ,    0 ,    0 ,    0 ,    0 ,    0 ,    0 ,    0 ,    0 ,    0 ,    0 ,    0 ,    0 ,    0 ,    0 ,    0 ,    0 ,    0 ,    0 ,    0 ,    0 ,    0 ,    0 ,    0 ,    0 
E: 000001.859887 49 30 e1 40 01 00 00 af 37 71 ff 26 6d 09 00 00 00 00 00 00 00 00 00 00 00 00 00 00 00 00 00 00 00 00 00 00 00 00 00 00 00 00 00 00 00 00 00 00 00 00
# ReportID: 48 / 0xff010030:  228 ,   64 ,    1 ,    0 ,    0 ,  175 ,   55 ,  113 ,    0 ,    7 ,  109 ,    9 ,    0 ,    0 ,    0 ,    0 ,    0 ,    0 ,    0 ,    0 ,    0 ,    0 ,    0 ,    0 ,    0 ,    0 ,    0 ,    0 ,    0 ,    0 ,    0 ,    0 ,    0 ,    0 ,    0 ,    0 ,    0 ,    0 ,    0 ,    0 ,    0 ,    0 ,    0 ,    0 ,    0 ,    0 ,    0 ,    0 
E: 000001.874878 49 30 e4 40 01 00 00 af 37 71 00 07 6d 09 00 00 00 00 00 00 00 00 00 00 00 00 00 00 00 00 00 00 00 00 00 00 00 00 00 00 00 00 00 00 00 00 00 00 00 00
# ReportID: 48 / 0xff010030:  231 ,   64 ,    1 ,    0 ,    0 ,  174 ,   39 ,  113 ,  255 ,    6 ,  109 ,    9 ,    0 ,    0 ,    0 ,    0 ,    0 ,    0 ,    0 ,    0 ,    0 ,    0 ,    0 ,    0 ,    0 ,    0 ,    0 ,    0 ,    0 ,    0 ,    0 ,    0 ,    0 ,    0 ,    0 ,    0 ,    0 ,    0 ,    0 ,    0 ,    0 ,    0 ,    0 ,    0 ,    0 ,    0 ,    0 ,    0 
E: 000001.889880 49 30 e7 40 01 00 00 ae 27 71 ff 06 6d 09 00 00 00 00 00 00 00 00 00 00 00 00 00 00 00 00 00 00 00 00 00 00 00 00 00 00 00 00 00 00 00 00 00 00 00 00
# ReportID: 48 / 0xff010030:  234 ,   64 ,    1 ,    0 ,    0 ,  174 ,   39 ,  113 ,    0 ,  247 ,  108 ,    9 ,    0 ,    0 ,    0 ,    0 ,    0 ,    0 ,    0 ,    0 ,    0 ,    0 ,    0 ,    0 ,    0 ,    0 ,    0 ,    0 ,    0 ,    0 ,    0 ,    0 ,    0 ,    0 ,    0 ,    0 ,    0 ,    0 ,    0 ,    0 ,    0 ,    0 ,    0 ,    0 ,    0 ,    0 ,    0 ,    0 
E: 000001.904875 49 30 ea 40 01 00 00 ae 27 71 00 f7 6c 09 00 00 00 00 00 00 00 00 00 00 00 00 00 00 00 00 00 00 00 00 00 00 00 00 00 00 00 00 00 00 00 00 00 00 00 00
# ReportID: 48 / 0xff010030:  237 ,   64 ,    1 ,    0 ,    0 ,  174 ,   55 ,  113 ,    0 ,   23 ,  109 ,    9 ,    0 ,    0 ,    0 ,    0 ,    0 ,    0 ,    0 ,    0 ,    0 ,    0 ,    0 ,    0 ,    0 ,    0 ,    0 ,    0 ,    0 ,    0 ,    0 ,    0 ,    0 ,    0 ,    0 ,    0 ,    0 ,    0 ,    0 ,    0 ,    0 ,    0 ,    0 ,    0 ,    0 ,    0 ,    0 ,    0 
E: 000001.919869 49 30 ed 40 01 00 00 ae 37 71 00 17 6d 09 00 00 00 00 00 00 00 00 00 00 00 00 00 00 00 00 00 00 00 00 00 00 00 00 00 00 00 00 00 00 00 00 00 00 00 00
# ReportID: 48 / 0xff010030:  240 ,   64 ,    1 ,    0 ,    0 ,  173 ,   55 ,  113 ,  255 ,  246 ,  108 ,    9 ,    0 ,    0 ,    0 ,    0 ,    0 ,    0 ,    0 ,    0 ,    0 ,    0 ,    0 ,    0 ,    0 ,    0 ,    0 ,    0 ,    0 ,    0 ,    0 ,    0 ,    0 ,    0 ,    0 ,    0 ,    0 ,    0 ,    0 ,    0 ,    0 ,    0 ,    0 ,    0 ,    0 ,    0 ,    0 ,    0 
E: 000001.934870 49 30 f0 40 01 00 00 ad 37 71 ff f6 6c 09 00 00 00 00 00 00 00 00 00 00 00 00 00 00 00 00 00 00 00 00 00 00 00 00 00 00 00 00 00 00 00 00 00 00 00 00
# ReportID: 48 / 0xff010030:  243 ,   64 ,    1 ,    0 ,    0 ,  175 ,   39 ,  113 ,  255 ,    6 ,  109 ,    9 ,    0 ,    0 ,    0 ,    0 ,    0 ,    0 ,    0 ,    0 ,    0 ,    0 ,    0 ,    0 ,    0 ,    0 ,    0 ,    0 ,    0 ,    0 ,    0 ,    0 ,    0 ,    0 ,    0 ,    0 ,    0 ,    0 ,    0 ,    0 ,    0 ,    0 ,    0 ,    0 ,    0 ,    0 ,    0 ,    0 
E: 000001.949871 49 30 f3 40 01 00 00 af 27 71 ff 06 6d 09 00 00 00 00 00 00 00 00 00 00 00 00 00 00 00 00 00 00 00 00 00 00 00 00 00 00 00 00 00 00 00 00 00 00 00 00
# ReportID: 48 / 0xff010030:  246 ,   64 ,    0 ,    0 ,    0 ,  173 ,   39 ,  113 ,  255 ,    6 ,  109 ,    9 ,    0 ,    0 ,    0 ,    0 ,    0 ,    0 ,    0 ,    0 ,    0 ,    0 ,    0 ,    0 ,    0 ,    0 ,    0 ,    0 ,    0 ,    0 ,    0 ,    0 ,    0 ,    0 ,    0 ,    0 ,    0 ,    0 ,    0 ,    0 ,    0 ,    0 ,    0 ,    0 ,    0 ,    0 ,    0 ,    0 
E: 000001.964879 49 30 f6 40 00 00 00 ad 27 71 ff 06 6d 09 00 00 00 00 00 00 00 00 00 00 00 00 00 00 00 00 00 00 00 00 00 00 00 00 00 00 00 00 00 00 00 00 00 00 00 00
# ReportID: 48 / 0xff010030:  249 ,   64 ,    0 ,    0 ,    0 ,  174 ,   39 ,  113 ,    0 ,   23 ,  109 ,    9 ,    0 ,    0 ,    0 ,    0 ,    0 ,    0 ,    0 ,    0 ,    0 ,    0 ,    0 ,    0 ,    0 ,    0 ,    0 ,    0 ,    0 ,    0 ,    0 ,    0 ,    0 ,    0 ,    0 ,    0 ,    0 ,    0 ,    0 ,    0 ,    0 ,    0 ,    0 ,    0 ,    0 ,    0 ,    0 ,    0 
E: 000001.979870 49 30 f9 40 00 00 00 ae 27 71 00 17 6d 09 00 00 00 00 00 00 00 00 00 00 00 00 00 00 00 00 00 00 00 00 00 00 00 00 00 00 00 00 00 00 00 00 00 00 00 00
# ReportID: 48 / 0xff010030:  252 ,   64 ,    0 ,    0 ,    0 ,  175 ,   55 ,  113 ,    0 ,    7 ,  109 ,    9 ,    0 ,    0 ,    0 ,    0 ,    0 ,    0 ,    0 ,    0 ,    0 ,    0 ,    0 ,    0 ,    0 ,    0 ,    0 ,    0 ,    0 ,    0 ,    0 ,    0 ,    0 ,    0 ,    0 ,    0 ,    0 ,    0 ,    0 ,    0 ,    0 ,    0 ,    0 ,    0 ,    0 ,    0 ,    0 ,    0 
E: 000001.994881 49 30 fc 40 00 00 00 af 37 71 00 07 6d 09 00 00 00 00 00 00 00 00 00 00 00 00 00 00 00 00 00 00 00 00 00 00 00 00 00 00 00 00 00 00 00 00 00 00 00 00
# ReportID: 48 / 0xff010030:  255 ,   64 ,    0 ,    0 ,    0 ,  174 ,   39 ,  113 ,    0 ,    7 ,  109 ,    9 ,    0 ,    0 ,    0 ,    0 ,    0 ,    0 ,    0 ,    0 ,    0 ,    0 ,    0 ,    0 ,    0 ,    0 ,    0 ,    0 ,    0 ,    0 ,    0 ,    0 ,    0 ,    0 ,    0 ,    0 ,    0 ,    0 ,    0 ,    0 ,    0 ,    0 ,    0 ,    0 ,    0 ,    0 ,    0 ,    0 
E: 000002.009870 49 30 ff 40 00 00 00 ae 27 71 00 07 6d 09 00 00 00 00 00 00 00 00 00 00 00 00 00 00 00 00 00 00 00 00 00 00 00 00 00 00 00 00 00 00 00 00 00 00 00 00
# ReportID: 48 / 0xff010030:    2 ,   64 ,    0 ,    0 ,    0 ,  174 ,   55 ,  113 ,  255 ,    6 ,  109 ,    9 ,    0 ,    0 ,    0 ,    0 ,    0 ,    0 ,    0 ,    0 ,    0 ,    0 ,    0 ,    0 ,    0 ,    0 ,    0 ,    0 ,    0 ,    0 ,    0 ,    0 ,    0 ,    0 ,    0 ,    0 ,    0 ,    0 ,    0 ,    0 ,    0 ,    0 ,    0 ,    0 ,    0 ,    0 ,    0 ,    0 
E: 000002.024870 49 30 02 40 00 00 00 ae 37 71 ff 06 6d 09 00 00 00 00 00 00 00 00 00 00 00 00 00 00 00 00 00 00 00 00 00 00 00 00 00 00 00 00 00 00 00 00 00 00 00 00
# ReportID: 48 / 0xff010030:    5 ,   64 ,    0 ,    0 ,    0 ,  175 ,   39 ,  113 ,  254 ,    6 ,  109 ,    9 ,    0 ,    0 ,    0 ,    0 ,    0 ,    0 ,    0 ,    0 ,    0 ,    0 ,    0 ,    0 ,    0 ,    0 ,    0 ,    0 ,    0 ,    0 ,    0 ,    0 ,    0 ,    0 ,    0 ,    0 ,    0 ,    0 ,    0 ,    0 ,    0 ,    0 ,    0 ,    0 ,    0 ,    0 ,    0 ,    0 
E: 000002.039867 49 30 05 40 00 00 00 af 27 71 fe 06 6d 09 00 00 00 00 00 00 00 00 00 00 00 00 00 00 00 00 00 00 00 00 00 00 00 00 00 00 00 00 00 00 00 00 00 00 00 00
# ReportID: 48 / 0xff010030:    8 ,   64 ,    0 ,    0 ,    0 ,  174 ,   39 ,  113 ,    0 ,    7 ,  109 ,    9 ,    0 ,    0 ,    0 ,    0 ,    0 ,    0 ,    0 ,    0 ,    0 ,    0 ,    0 ,    0 ,    0 ,    0 ,    0 ,    0 ,    0 ,    0 ,    0 ,    0 ,    0 ,    0 ,    0 ,    0 ,    0 ,    0 ,    0 ,    0 ,    0 ,    0 ,    0 ,    0 ,    0 ,    0 ,    0 ,    0 
E: 000002.054880 49 30 08 40 00 00 00 ae 27 71 00 07 6d 09 00 00 00 00 00 00 00 00 00 00 00 00 00 00 00 00 00 00 00 00 00 00 00 00 00 00 00 00 00 00 00 00 00 00 00 00
# ReportID: 48 / 0xff010030:   11 ,   64 ,    0 ,    0 ,    0 ,  173 ,   23 ,  113 ,  255 ,   38 ,  109 ,    9 ,    0 ,    0 ,    0 ,    0 ,    0 ,    0 ,    0 ,    0 ,    0 ,    0 ,    0 ,    0 ,    0 ,    0 ,    0 ,    0 ,    0 ,    0 ,    0 ,    0 ,    0 ,    0 ,    0 ,    0 ,    0 ,    0 ,    0 ,    0 ,    0 ,    0 ,    0 ,    0 ,    0 ,    0 ,    0 ,    0 
E: 000002.069871 49 30 0b 40 00 00 00 ad 17 71 ff 26 6d 09 00 00 00 00 00 00 00 00 00 00 00 00 00 00 00 00 00 00 00 00 00 00 00 00 00 00 00 00 00 00 00 00 00 00 00 00
# ReportID: 48 / 0xff010030:   14 ,   64 ,    0 ,    0 ,    0 ,  174 ,   55 ,  113 ,  255 ,   22 ,  109 ,    9 ,    0 ,    0 ,    0 ,    0 ,    0 ,    0 ,    0 ,    0 ,    0 ,    0 ,    0 ,    0 ,    0 ,    0 ,    0 ,    0 ,    0 ,    0 ,    0 ,    0 ,    0 ,    0 ,    0 ,    0 ,    0 ,    0 ,    0 ,    0 ,    0 ,    0 ,    0 ,    0 ,    0 ,    0 ,    0 ,    0 
E: 000002.084873 49 30 0e 40 00 00 00 ae 37 71 ff 16 6d 09 00 00 00 00 00 00 00 00 00 00 00 00 00 00 00 00 00 00 00 00 00 00 00 00 00 00 00 00 00 00 00 00 00 00 00 00
# ReportID: 48 / 0xff010030:   17 ,   64 ,    0 ,    0 ,    0 ,  175 ,   39 ,  113 ,  255 ,    6 ,  109 ,    9 ,    0 ,    0 ,    0 ,    0 ,    0 ,    0 ,    0 ,    0 ,    0 ,    0 ,    0 ,    0 ,    0 ,    0 ,    0 ,    0 ,    0 ,    0 ,    0 ,    0 ,    0 ,    0 ,    0 ,    0 ,    0 ,    0 ,    0 ,    0 ,    0 ,    0 ,    0 ,    0 ,    0 ,    0 ,    0 ,    0 
E: 000002.099870 49 30 11 40 00 00 00 af 27 71 ff 06 6d 09 00 00 00 00 00 00 00 00 00 00 00 00 00 00 00 00 00 00 00 00 00 00 00 00 00 00 00 00 00 00 00 00 00 00 00 00
# ReportID: 48 / 0xff010030:   20 ,   64 ,    0 ,    0 ,    0 ,  173 ,   39 ,  113 ,  255 ,    6 ,  109 ,    9 ,    0 ,    0 ,    0 ,    0 ,    0 ,    0 ,    0 ,    0 ,    0 ,    0 ,    0 ,    0 ,    0 ,    0 ,    0 ,    0 ,    0 ,    0 ,    0 ,    0 ,    0 ,    0 ,    0 ,    0 ,    0 ,    0 ,    0 ,    0 ,    0 ,    0 ,    0 ,    0 ,    0 ,    0 ,    0 ,    0 
E: 000002.114870 49 30 14 40 00 00 00 ad 27 71 ff 06 6d 09 00 00 00 00 00 00 00 00 00 00 00 00 00 00 00 00 00 00 00 00 00 00 00 00 00 00 00 00 00 00 00 00 00 00 00 00
# ReportID: 48 / 0xff010030:   23 ,   64 ,    0 ,    0 ,    0 ,  174 ,   23 ,  113 ,    0 ,    7 ,  109 ,    9 ,    0 ,    0 ,    0 ,    0 ,    0 ,    0 ,    0 ,    0 ,    0 ,    0 ,    0 ,    0 ,    0 ,    0 ,    0 ,    0 ,    0 ,    0 ,    0 ,    0 ,    0 ,    0 ,    0 ,    0 ,    0 ,    0 ,    0 ,    0 ,    0 ,    0 ,    0 ,    0 ,    0 ,    0 ,    0 ,    0 
E: 000002.129874 49 30 17 40 00 00 00 ae 17 71 00 07 6d 09 00 00 00 00 00 00 00 00 00 00 00 00 00 00 00 00 00 00 00 00 00 00 00 00 00 00 00 00 00 00 00 00 00 00 00 00
# ReportID: 48 / 0xff010030:   26 ,   64 ,    0 ,    0 ,    0 ,  174 ,   39 ,  113 ,  255 ,   22 ,  109 ,    9 ,    0 ,    0 ,    0 ,    0 ,    0 ,    0 ,    0 ,    0 ,    0 ,    0 ,    0 ,    0 ,    0 ,    0 ,    0 ,    0 ,    0 ,    0 ,    0 ,    0 ,    0 ,    0 ,    0 ,    0 ,    0 ,    0 ,    0 ,    0 ,    0 ,    0 ,    0 ,    0 ,    0 ,    0 ,    0 ,    0 
E: 000002.144881 49 30 1a 40 00 00 00 ae 27 71 ff 16 6d 09 00 00 00 00 00 00 00 00 00 00 00 00 00 00 00 00 00 00 00 00 00 00 00 00 00 00 00 00 00 00 00 00 00 00 00 00
# ReportID: 48 / 0xff010030:   29 ,   64 ,    0 ,    0 ,    0 ,  175 ,   39 ,  113 ,  254 ,    6 ,  109 ,    9 ,    0 ,    0 ,    0 ,    0 ,    0 ,    0 ,    0 ,    0 ,    0 ,    0 ,    0 ,    0 ,    0 ,    0 ,    0 ,    0 ,    0 ,    0 ,    0 ,    0 ,    0 ,    0 ,    0 ,    0 ,    0 ,    0 ,    0 ,    0 ,    0 ,    0 ,    0 ,    0 ,    0 ,    0 ,    0 ,    0 
E: 000002.159870 49 30 1d 40 00 00 00 af 27 71 fe 06 6d 09 00 00 00 00 00 00 00 00 00 00 00 00 00 00 00 00 00 00 00 00 00 00 00 00 00 00 00 00 00 00 00 00 00 00 00 00
# ReportID: 48 / 0xff010030:   32 ,   64 ,    0 ,    0 ,    0 ,  174 ,   39 ,  113 ,  255 ,    6 ,  109 ,    9 ,    0 ,    0 ,    0 ,    0 ,    0 ,    0 ,    0 ,    0 ,    0 ,    0 ,    0 ,    0 ,    0 ,    0 ,    0 ,    0 ,    0 ,    0 ,    0 ,    0 ,    0 ,    0 ,    0 ,    0 ,    0 ,    0 ,    0 ,    0 ,    0 ,    0 ,    0 ,    0 ,    0 ,    0 ,    0 ,    0 
E: 000002.174872 49 30 20 40 00 00 00 ae 27 71 ff 06 6d 09 00 00 00 00 00 00 00 00 00 00 00 00 00 00 00 00 00 00 00 00 00 00 00 00 00 00 00 00 00 00 00 00 00 00 00 00
# ReportID: 48 / 0xff010030:   35 ,   64 ,    0 ,    0 ,    0 ,  175 ,   39 ,  113 ,  255 ,    6 ,  109 ,    9 ,    0 ,    0 ,    0 ,    0 ,    0 ,    0 ,    0 ,    0 ,    0 ,    0 ,    0 ,    0 ,    0 ,    0 ,    0 ,    0 ,    0 ,    0 ,    0 ,    0 ,    0 ,    0 ,    0 ,    0 ,    0 ,    0 ,    0 ,    0 ,    0 ,    0 ,    0 ,    0 ,    0 ,    0 ,    0 ,    0 
E: 000002.189869 49 30 23 40 00 00 00 af 27 71 ff 06 6d 09 00 00 00 00 00 00 00 00 00 00 00 00 00 00 00 00 00 00 00 00 00 00 00 00 00 00 00 00 00 00 00 00 00 00 00 00
# ReportID: 48 / 0xff010030:   38 ,   64 ,    0 ,    0 ,    0 ,  174 ,   55 ,  113 ,    0 ,   23 ,  109 ,    9 ,    0 ,    0 ,    0 ,    0 ,    0 ,    0 ,    0 ,    0 ,    0 ,    0 ,    0 ,    0 ,    0 ,    0 ,    0 ,    0 ,    0 ,    0 ,    0 ,    0 ,    0 ,    0 ,    0 ,    0 ,    0 ,    0 ,    0 ,    0 ,    0 ,    0 ,    0 ,    0 ,    0 ,    0 ,    0 ,    0 
E: 000002.204868 49 30 26 40 00 00 00 ae 37 71 00 17 6d 09 00 00 00 00 00 00 00 00 00 00 00 00 00 00 00 00 00 00 00 00 00 00 00 00 00 00 00 00 00 00 00 00 00 00 00 00
# ReportID: 48 / 0xff010030:   41 ,   64 ,    0 ,    0 ,    0 ,  173 ,   39 ,  113 ,  255 ,   22 ,  109 ,    9 ,    0 ,    0 ,    0 ,    0 ,    0 ,    0 ,    0 ,    0 ,    0 ,    0 ,    0 ,    0 ,    0 ,    0 ,    0 ,    0 ,    0 ,    0 ,    0 ,    0 ,    0 ,    0 ,    0 ,    0 ,    0 ,    0 ,    0 ,    0 ,    0 ,    0 ,    0 ,    0 ,    0 ,    0 ,    0 ,    0 
E: 000002.219867 49 30 29 40 00 00 00 ad 27 71 ff 16 6d 09 00 00 00 00 00 00 00 00 00 00 00 00 00 00 00 00 00 00 00 00 00 00 00 00 00 00 00 00 00 00 00 00 00 00 00 00
# ReportID: 48 / 0xff010030:   44 ,   64 ,    0 ,    0 ,    0 ,  174 ,   55 ,  113 ,  255 ,    6 ,  109 ,    9 ,    0 ,    0 ,    0 ,    0 ,    0 ,    0 ,    0 ,    0 ,    0 ,    0 ,    0 ,    0 ,    0 ,    0 ,    0 ,    0 ,    0 ,    0 ,    0 ,    0 ,    0 ,    0 ,    0 ,    0 ,    0 ,    0 ,    0 ,    0 ,    0 ,    0 ,    0 ,    0 ,    0 ,    0 ,    0 ,    0 
E: 000002.234894 49 30 2c 40 00 00 00 ae 37 71 ff 06 6d 09 00 00 00 00 00 00 00 00 00 00 00 00 00 00 00 00 00 00 00 00 00 00 00 00 00 00 00 00 00 00 00 00 00 00 00 00
# ReportID: 48 / 0xff010030:   47 ,   64 ,    0 ,    0 ,    2 ,  174 ,   55 ,  113 ,    0 ,    7 ,  109 ,    9 ,    0 ,    0 ,    0 ,    0 ,    0 ,    0 ,    0 ,    0 ,    0 ,    0 ,    0 ,    0 ,    0 ,    0 ,    0 ,    0 ,    0 ,    0 ,    0 ,    0 ,    0 ,    0 ,    0 ,    0 ,    0 ,    0 ,    0 ,    0 ,    0 ,    0 ,    0 ,    0 ,    0 ,    0 ,    0 ,    0 
E: 000002.249868 49 30 2f 40 00 00 02 ae 37 71 00 07 6d 09 00 00 00 00 00 00 00 00 00 00 00 00 00 00 00 00 00 00 00 00 00 00 00 00 00 00 00 00 00 00 00 00 00 00 00 00
# ReportID: 48 / 0xff010030:   50 ,   64 ,    0 ,    0 ,    2 ,  174 ,   71 ,  113 ,  255 ,   38 ,  109 ,    9 ,    0 ,    0 ,    0 ,    0 ,    0 ,    0 ,    0 ,    0 ,    0 ,    0 ,    0 ,    0 ,    0 ,    0 ,    0 ,    0 ,    0 ,    0 ,    0 ,    0 ,    0 ,    0 ,    0 ,    0 ,    0 ,    0 ,    0 ,    0 ,    0 ,    0 ,    0 ,    0 ,    0 ,    0 ,    0 ,    0 
E: 000002.264881 49 30 32 40 00 00 02 ae 47 71 ff 26 6d 09 00 00 00 00 00 00 00 00 00 00 00 00 00 00 00 00 00 00 00 00 00 00 00 00 00 00 00 00 00 00 00 00 00 00 00 00
# ReportID: 48 / 0xff010030:   53 ,   64 ,    0 ,    0 ,    2 ,  174 ,   55 ,  113 ,    1 ,    7 ,  109 ,    9 ,    0 ,    0 ,    0 ,    0 ,    0 ,    0 ,    0 ,    0 ,    0 ,    0 ,    0 ,    0 ,    0 ,    0 ,    0 ,    0 ,    0 ,    0 ,    0 ,    0 ,    0 ,    0 ,    0 ,    0 ,    0 ,    0 ,    0 ,    0 ,    0 ,    0 ,    0 ,    0 ,    0 ,    0 ,    0 ,    0 
E: 000002.279871 49 30 35 40 00 00 02 ae 37 71 01 07 6d 09 00 00 00 00 00 00 00 00 00 00 00 00 00 00 00 00 00 00 00 00 00 00 00 00 00 00 00 00 00 00 00 00 00 00 00 00
# ReportID: 48 / 0xff010030:   56 ,   64 ,    0 ,    0 ,    2 ,  175 ,   39 ,  113 ,  255 ,   22 ,  109 ,    9 ,    0 ,    0 ,    0 ,    0 ,    0 ,    0 ,    0 ,    0 ,    0 ,    0 ,    0 ,    0 ,    0 ,    0 ,    0 ,    0 ,    0 ,    0 ,    0 ,    0 ,    0 ,    0 ,    0 ,    0 ,    0 ,    0 ,    0 ,    0 ,    0 ,    0 ,    0 ,    0 ,    0 ,    0 ,    0 ,    0 
E: 000002.294877 49 30 38 40 00 00 02 af 27 71 ff 16 6d 09 00 00 00 00 00 00 00 00 00 00 00 00 00 00 00 00 00 00 00 00 00 00 00 00 00 00 00 00 00 00 00 00 00 00 00 00
# ReportID: 48 / 0xff010030:   59 ,   64 ,    0 ,    0 ,    2 ,  175 ,   39 ,  113 ,    0 ,    7 ,  109 ,    9 ,    0 ,    0 ,    0 ,    0 ,    0 ,    0 ,    0 ,    0 ,    0 ,    0 ,    0 ,    0 ,    0 ,    0 ,    0 ,    0 ,    0 ,    0 ,    0 ,    0 ,    0 ,    0 ,    0 ,    0 ,    0 ,    0 ,    0 ,    0 ,    0 ,    0 ,    0 ,    0 ,    0 ,    0 ,    0 ,    0 
E: 000002.309868 49 30 3b 40 00 00 02 af 27 71 00 07 6d 09 00 00 00 00 00 00 00 00 00 00 00 00 00 00 00 00 00 00 00 00 00 00 00 00 00 00 00 00 00 00 00 00 00 00 00 00
# ReportID: 48 / 0xff010030:   62 ,   64 ,    0 ,    0 ,    2 ,  175 ,   71 ,  113 ,    1 ,   23 ,  109 ,    9 ,    0 ,    0 ,    0 ,    0 ,    0 ,    0 ,    0 ,    0 ,    0 ,    0 ,    0 ,    0 ,    0 ,    0 ,    0 ,    0 ,    0 ,    0 ,    0 ,    0 ,    0 ,    0 ,    0 ,    0 ,    0 ,    0 ,    0 ,    0 ,    0 ,    0 ,    0 ,    0 ,    0 ,    0 ,    0 ,    0 
E: 000002.324888 49 30 3e 40 00 00 02 af 47 71 01 17 6d 09 00 00 00 00 00 00 00 00 00 00 00 00 00 00 00 00 00 00 00 00 00 00 00 00 00 00 00 00 00 00 00 00 00 00 00 00
# ReportID: 48 / 0xff010030:   65 ,   64 ,    0 ,    0 ,    2 ,  174 ,   39 ,  113 ,  255 ,   22 ,  109 ,    9 ,    0 ,    0 ,    0 ,    0 ,    0 ,    0 ,    0 ,    0 ,    0 ,    0 ,    0 ,    0 ,    0 ,    0 ,    0 ,    0 ,    0 ,    0 ,    0 ,    0 ,    0 ,    0 ,    0 ,    0 ,    0 ,    0 ,    0 ,    0 ,    0 ,    0 ,    0 ,    0 ,    0 ,    0 ,    0 ,    0 
E: 000002.339867 49 30 41 40 00 00 02 ae 27 71 ff 16 6d 09 00 00 00 00 00 00 00 00 00 00 00 00 00 00 00 00 00 00 00 00 00 00 00 00 00 00 00 00 00 00 00 00 00 00 00 00
# ReportID: 48 / 0xff010030:   68 ,   64 ,    0 ,    0 ,    2 ,  174 ,   55 ,  113 ,    0 ,   39 ,  109 ,    9 ,    0 ,    0 ,    0 ,    0 ,    0 ,    0 ,    0 ,    0 ,    0 ,    0 ,    0 ,    0 ,    0 ,    0 ,    0 ,    0 ,    0 ,    0 ,    0 ,    0 ,    0 ,    0 ,    0 ,    0 ,    0 ,    0 ,    0 ,    0 ,    0 ,    0 ,    0 ,    0 ,    0 ,    0 ,    0 ,    0 
E: 000002.354890 49 30 44 40 00 00 02 ae 37 71 00 27 6d 09 00 00 00 00 00 00 00 00 00 00 00 00 00 00 00 00 00 00 00 00 00 00 00 00 00 00 00 00 00 00 00 00 00 00 00 00
# ReportID: 48 / 0xff010030:   71 ,   64 ,    0 ,    0 ,    2 ,  174 ,   55 ,  113 ,  255 ,    6 ,  109 ,    9 ,    0 ,    0 ,    0 ,    0 ,    0 ,    0 ,    0 ,    0 ,    0 ,    0 ,    0 ,    0 ,    0 ,    0 ,    0 ,    0 ,    0 ,    0 ,    0 ,    0 ,    0 ,    0 ,    0 ,    0 ,    0 ,    0 ,    0 ,    0 ,    0 ,    0 ,    0 ,    0 ,    0 ,    0 ,    0 ,    0 
E: 000002.369871 49 30 47 40 00 00 02 ae 37 71 ff 06 6d 09 00 00 00 00 00 00 00 00 00 00 00 00 00 00 00 00 00 00 00 00 00 00 00 00 00 00 00 00 00 00 00 00 00 00 00 00
# ReportID: 48 / 0xff010030:   74 ,   64 ,    0 ,    0 ,    2 ,  174 ,   55 ,  113 ,    0 ,   23 ,  109 ,    9 ,    0 ,    0 ,    0 ,    0 ,    0 ,    0 ,    0 ,    0 ,    0 ,    0 ,    0 ,    0 ,    0 ,    0 ,    0 ,    0 ,    0 ,    0 ,    0 ,    0 ,    0 ,    0 ,    0 ,    0 ,    0 ,    0 ,    0 ,    0 ,    0 ,    0 ,    0 ,    0 ,    0 ,    0 ,    0 ,    0 
E: 000002.384889 49 30 4a 40 00 00 02 ae 37 71 00 17 6d 09 00 00 00 00 00 00 00 00 00 00 00 00 00 00 00 00 00 00 00 00 00 00 00 00 00 00 00 00 00 00 00 00 00 00 00 00
# ReportID: 48 / 0xff010030:   77 ,   64 ,    0 ,    0 ,    2 ,  174 ,   55 ,  113 ,    0 ,    7 ,  109 ,    9 ,    0 ,    0 ,    0 ,    0 ,    0 ,    0 ,    0 ,    0 ,    0 ,    0 ,    0 ,    0 ,    0 ,    0 ,    0 ,    0 ,    0 ,    0 ,    0 ,    0 ,    0 ,    0 ,    0 ,    0 ,    0 ,    0 ,    0 ,    0 ,    0 ,    0 ,    0 ,    0 ,    0 ,    0 ,    0 ,    0 
E: 000002.399866 49 30 4d 40 00 00 02 ae 37 71 00 07 6d 09 00 00 00 00 00 00 00 00 00 00 00 00 00 00 00 00 00 00 00 00 00 00 00 00 00 00 00 00 00 00 00 00 00 00 00 00
# ReportID: 48 / 0xff010030:   80 ,   64 ,    0 ,    0 ,    2 ,  174 ,   71 ,  113 ,    0 ,   23 ,  109 ,    9 ,    0 ,    0 ,    0 ,    0 ,    0 ,    0 ,    0 ,    0 ,    0 ,    0 ,    0 ,    0 ,    0 ,    0 ,    0 ,    0 ,    0 ,    0 ,    0 ,    0 ,    0 ,    0 ,    0 ,    0 ,    0 ,    0 ,    0 ,    0 ,    0 ,    0 ,    0 ,    0 ,    0 ,    0 ,    0 ,    0 
E: 000002.414868 49 30 50 40 00 00 02 ae 47 71 00 17 6d 09 00 00 00 00 00 00 00 00 00 00 00 00 00 00 00 00 00 00 00 00 00 00 00 00 00 00 00 00 00 00 00 00 00 00 00 00
# ReportID: 48 / 0xff010030:   83 ,   64 ,    0 ,    0 ,    0 ,  175 ,   39 ,  113 ,    0 ,    7 ,  109 ,    9 ,    0 ,    0 ,    0 ,    0 ,    0 ,    0 ,    0 ,    0 ,    0 ,    0 ,    0 ,    0 ,    0 ,    0 ,    0 ,    0 ,    0 ,    0 ,    0 ,    0 ,    0 ,    0 ,    0 ,    0 ,    0 ,    0 ,    0 ,    0 ,    0 ,    0 ,    0 ,    0 ,    0 ,    0 ,    0 ,    0 
E: 000002.429866 49 30 53 40 00 00 00 af 27 71 00 07 6d 09 00 00 00 00 00 00 00 00 00 00 00 00 00 00 00 00 00 00 00 00 00 00 00 00 00 00 00 00 00 00 00 00 00 00 00 00
# ReportID: 48 / 0xff010030:   86 ,   64 ,    0 ,    0 ,    0 ,  175 ,   71 ,  113 ,  255 ,   22 ,  109 ,    9 ,    0 ,    0 ,    0 ,    0 ,    0 ,    0 ,    0 ,    0 ,    0 ,    0 ,    0 ,    0 ,    0 ,    0 ,    0 ,    0 ,    0 ,    0 ,    0 ,    0 ,    0 ,    0 ,    0 ,    0 ,    0 ,    0 ,    0 ,    0 ,    0 ,    0 ,    0 ,    0 ,    0 ,    0 ,    0 ,    0 
E: 000002.444894 49 30 56 40 00 00 00 af 47 71 ff 16 6d 09 00 00 00 00 00 00 00 00 00 00 00 00 00 00 00 00 00 00 00 00 00 00 00 00 00 00 00 00 00 00 00 00 00 00 00 00
# ReportID: 48 / 0xff010030:   89 ,   64 ,    0 ,    0 ,    0 ,  175 ,   39 ,  113 ,    0 ,  231 ,  108 ,    9 ,    0 ,    0 ,    0 ,    0 ,    0 ,    0 ,    0 ,    0 ,    0 ,    0 ,    0 ,    0 ,    0 ,    0 ,    0 ,    0 ,    0 ,    0 ,    0 ,    0 ,    0 ,    0 ,    0 ,    0 ,    0 ,    0 ,    0 ,    0 ,    0 ,    0 ,    0 ,    0 ,    0 ,    0 ,    0 ,    0 
E: 000002.459869 49 30 59 40 00 00 00 af 27 71 00 e7 6c 09 00 00 00 00 00 00 00 00 00 00 00 00 00 00 00 00 00 00 00 00 00 00 00 00 00 00 00 00 00 00 00 00 00 00 00 00
# ReportID: 48 / 0xff010030:   92 ,   64 ,    0 ,    0 ,    0 ,  175 ,   55 ,  113 ,  255 ,    6 ,  109 ,    9 ,    0 ,    0 ,    0 ,    0 ,    0 ,    0 ,    0 ,    0 ,    0 ,    0 ,    0 ,    0 ,    0 ,    0 ,    0 ,    0 ,    0 ,    0 ,    0 ,    0 ,    0 ,    0 ,    0 ,    0 ,    0 ,    0 ,    0 ,    0 ,    0 ,    0 ,    0 ,    0 ,    0 ,    0 ,    0 ,    0 
E: 000002.474881 49 30 5c 40 00 00 00 af 37 71 ff 06 6d 09 00 00 00 00 00 00 00 00 00 00 00 00 00 00 00 00 00 00 00 00 00 00 00 00 00 00 00 00 00 00 00 00 00 00 00 00
# ReportID: 48 / 0xff010030:   95 ,   64 ,    0 ,    0 ,    0 ,  175 ,   39 ,  113 ,    0 ,  247 ,  108 ,    9 ,    0 ,    0 ,    0 ,    0 ,    0 ,    0 ,    0 ,    0 ,    0 ,    0 ,    0 ,    0 ,    0 ,    0 ,    0 ,    0 ,    0 ,    0 ,    0 ,    0 ,    0 ,    0 ,    0 ,    0 ,    0 ,    0 ,    0 ,    0 ,    0 ,    0 ,    0 ,    0 ,    0 ,    0 ,    0 ,    0 
E: 000002.489866 49 30 5f 40 00 00 00 af 27 71 00 f7 6c 09 00 00 00 00 00 00 00 00 00 00 00 00 00 00 00 00 00 00 00 00 00 00 00 00 00 00 00 00 00 00 00 00 00 00 00 00
# ReportID: 48 / 0xff010030:   98 ,   64 ,    0 ,    0 ,    0 ,  175 ,   71 ,  113 ,  255 ,   22 ,  109 ,    9 ,    0 ,    0 ,    0 ,    0 ,    0 ,    0 ,    0 ,    0 ,    0 ,    0 ,    0 ,    0 ,    0 ,    0 ,    0 ,    0 ,    0 ,    0 ,    0 ,    0 ,    0 ,    0 ,    0 ,    0 ,    0 ,    0 ,    0 ,    0 ,    0 ,    0 ,    0 ,    0 ,    0 ,    0 ,    0 ,    0 
E: 000002.504866 49 30 62 40 00 00 00 af 47 71 ff 16 6d 09 00 00 00 00 00 00 00 00 00 00 00 00 00 00 00 00 00 00 00 00 00 00 00 00 00 00 00 00 00 00 00 00 00 00 00 00
# ReportID: 48 / 0xff010030:  101 ,   64 ,    0 ,    0 ,    0 ,  174 ,   55 ,  113 ,    0 ,    7 ,  109 ,    9 ,    0 ,    0 ,    0 ,    0 ,    0 ,    0 ,    0 ,    0 ,    0 ,    0 ,    0 ,    0 ,    0 ,    0 ,    0 ,    0 ,    0 ,    0 ,    0 ,    0 ,    0 ,    0 ,    0 ,    0 ,    0 ,    0 ,    0 ,    0 ,    0 ,    0 ,    0 ,    0 ,    0 ,    0 ,    0 ,    0 
E: 000002.519866 49 30 65 40 00 00 00 ae 37 71 00 07 6d 09 00 00 00 00 00 00 00 00 00 00 00 00 00 00 00 00 00 00 00 00 00 00 00 00 00 00 00 00 00 00 00 00 00 00 00 00
# ReportID: 48 / 0xff010030:  104 ,   64 ,    0 ,    0 ,    0 ,  175 ,   55 ,  113 ,    1 ,    7 ,  109 ,    9 ,    0 ,    0 ,    0 ,    0 ,    0 ,    0 ,    0 ,    0 ,    0 ,    0 ,    0 ,    0 ,    0 ,    0 ,    0 ,    0 ,    0 ,    0 ,    0 ,    0 ,    0 ,    0 ,    0 ,    0 ,    0 ,    0 ,    0 ,    0 ,    0 ,    0 ,    0 ,    0 ,    0 ,    0 ,    0 ,    0 
E: 000002.534867 49 30 68 40 00 00 00 af 37 71 01 07 6d 09 00 00 00 00 00 00 00 00 00 00 00 00 00 00 00 00 00 00 00 00 00 00 00 00 00 00 00 00 00 00 00 00 00 00 00 00
# ReportID: 48 / 0xff010030:  107 ,   64 ,    0 ,    0 ,    0 ,  173 ,   55 ,  113 ,    0 ,  247 ,  108 ,    9 ,    0 ,    0 ,    0 ,    0 ,    0 ,    0 ,    0 ,    0 ,    0 ,    0 ,    0 ,    0 ,    0 ,    0 ,    0 ,    0 ,    0 ,    0 ,    0 ,    0 ,    0 ,    0 ,    0 ,    0 ,    0 ,    0 ,    0 ,    0 ,    0 ,    0 ,    0 ,    0 ,    0 ,    0 ,    0 ,    0 
E: 000002.549834 49 30 6b 40 00 00 00 ad 37 71 00 f7 6c 09 00 00 00 00 00 00 00 00 00 00 00 00 00 00 00 00 00 00 00 00 00 00 00 00 00 00 00 00 00 00 00 00 00 00 00 00
# ReportID: 48 / 0xff010030:  110 ,   64 ,    0 ,    0 ,    0 ,  173 ,   87 ,  113 ,  254 ,    6 ,  109 ,    9 ,    0 ,    0 ,    0 ,    0 ,    0 ,    0 ,    0 ,    0 ,    0 ,    0 ,    0 ,    0 ,    0 ,    0 ,    0 ,    0 ,    0 ,    0 ,    0 ,    0 ,    0 ,    0 ,    0 ,    0 ,    0 ,    0 ,    0 ,    0 ,    0 ,    0 ,    0 ,    0 ,    0 ,    0 ,    0 ,    0 
E: 000002.564865 49 30 6e 40 00 00 00 ad 57 71 fe 06 6d 09 00 00 00 00 00 00 00 00 00 00 00 00 00 00 00 00 00 00 00 00 00 00 00 00 00 00 00 00 00 00 00 00 00 00 00 00
# ReportID: 48 / 0xff010030:  113 ,   64 ,    0 ,    0 ,    0 ,  174 ,   39 ,  113 ,  254 ,    6 ,  109 ,    9 ,    0 ,    0 ,    0 ,    0 ,    0 ,    0 ,    0 ,    0 ,    0 ,    0 ,    0 ,    0 ,    0 ,    0 ,    0 ,    0 ,    0 ,    0 ,    0 ,    0 ,    0 ,    0 ,    0 ,    0 ,    0 ,    0 ,    0 ,    0 ,    0 ,    0 ,    0 ,    0 ,    0 ,    0 ,    0 ,    0 
E: 000002.579869 49 30 71 40 00 00 00 ae 27 71 fe 06 6d 09 00 00 00 00 00 00 00 00 00 00 00 00 00 00 00 00 00 00 00 00 00 00 00 00 00 00 00 00 00 00 00 00 00 00 00 00
# ReportID: 48 / 0xff010030:  116 ,   64 ,    0 ,    0 ,    0 ,  173 ,   39 ,  113 ,    0 ,    7 ,  109 ,    9 ,    0 ,    0 ,    0 ,    0 ,    0 ,    0 ,    0 ,    0 ,    0 ,    0 ,    0 ,    0 ,    0 ,    0 ,    0 ,    0 ,    0 ,    0 ,    0 ,    0 ,    0 ,    0 ,    0 ,    0 ,    0 ,    0 ,    0 ,    0 ,    0 ,    0 ,    0 ,    0 ,    0 ,    0 ,    0 ,    0 
E: 000002.594878 49 30 74 40 00 00 00 ad 27 71 00 07 6d 09 00 00 00 00 00 00 00 00 00 00 00 00 00 00 00 00 00 00 00 00 00 00 00 00 00 00 00 00 00 00 00 00 00 00 00 00
# ReportID: 48 / 0xff010030:  119 ,   64 ,    0 ,    0 ,    0 ,  173 ,   55 ,  113 ,    0 ,  247 ,  108 ,    9 ,    0 ,    0 ,    0 ,    0 ,    0 ,    0 ,    0 ,    0 ,    0 ,    0 ,    0 ,    0 ,    0 ,    0 ,    0 ,    0 ,    0 ,    0 ,    0 ,    0 ,    0 ,    0 ,    0 ,    0 ,    0 ,    0 ,    0 ,    0 ,    0 ,    0 ,    0 ,    0 ,    0 ,    0 ,    0 ,    0 
E: 000002.609864 49 30 77 40 00 00 00 ad 37 71 00 f7 6c 09 00 00 00 00 00 00 00 00 00 00 00 00 00 00 00 00 00 00 00 00 00 00 00 00 00 00 00 00 00 00 00 00 00 00 00 00
# ReportID: 48 / 0xff010030:  122 ,   64 ,    0 ,    0 ,    0 ,  174 ,   55 ,  113 ,    0 ,    7 ,  109 ,    9 ,    0 ,    0 ,    0 ,    0 ,    0 ,    0 ,    0 ,    0 ,    0 ,    0 ,    0 ,    0 ,    0 ,    0 ,    0 ,    0 ,    0 ,    0 ,    0 ,    0 ,    0 ,    0 ,    0 ,    0 ,    0 ,    0 ,    0 ,    0 ,    0 ,    0 ,    0 ,    0 ,    0 ,    0 ,    0 ,    0 
